{
  "contractName": "CaptainSell",
  "abi": [
    {
      "constant": false,
      "inputs": [
        {
          "name": "_address",
          "type": "address"
        }
      ],
      "name": "setGameConfigContract",
      "outputs": [],
      "payable": false,
      "stateMutability": "nonpayable",
      "type": "function"
    },
    {
      "constant": false,
      "inputs": [
        {
          "name": "_address",
          "type": "address"
        }
      ],
      "name": "setCaptainTokenContract",
      "outputs": [],
      "payable": false,
      "stateMutability": "nonpayable",
      "type": "function"
    },
    {
      "constant": false,
      "inputs": [
        {
          "name": "_captainId",
          "type": "uint32"
        }
      ],
      "name": "prepurchase",
      "outputs": [],
      "payable": true,
      "stateMutability": "payable",
      "type": "function"
    },
    {
      "constant": true,
      "inputs": [],
      "name": "captains",
      "outputs": [
        {
          "name": "",
          "type": "address"
        }
      ],
      "payable": false,
      "stateMutability": "view",
      "type": "function"
    },
    {
      "constant": true,
      "inputs": [],
      "name": "config",
      "outputs": [
        {
          "name": "",
          "type": "address"
        }
      ],
      "payable": false,
      "stateMutability": "view",
      "type": "function"
    },
    {
      "constant": true,
      "inputs": [
        {
          "name": "_captainId",
          "type": "uint32"
        }
      ],
      "name": "getCaptainCount",
      "outputs": [
        {
          "name": "",
          "type": "uint256"
        }
      ],
      "payable": false,
      "stateMutability": "view",
      "type": "function"
    },
    {
      "inputs": [],
      "payable": false,
      "stateMutability": "nonpayable",
      "type": "constructor"
    },
    {
      "payable": true,
      "stateMutability": "payable",
      "type": "fallback"
    },
    {
      "anonymous": false,
      "inputs": [
        {
          "indexed": false,
          "name": "tokenId",
          "type": "uint256"
        },
        {
          "indexed": false,
          "name": "oldPrice",
          "type": "uint256"
        },
        {
          "indexed": false,
          "name": "prevOwner",
          "type": "address"
        },
        {
          "indexed": false,
          "name": "winner",
          "type": "address"
        }
      ],
      "name": "BuyToken",
      "type": "event"
    }
  ],
  "bytecode": "0x6060604052341561000f57600080fd5b60008054600160a060020a033316600160a060020a03199091161790556104c08061003b6000396000f30060606040526004361061005e5763ffffffff60e060020a60003504166308227acb81146100605780631bbec9871461007f5780632e7db4401461009e5780633c6b9d8c146100af57806379502c55146100de578063aebad3a4146100f1575b005b341561006b57600080fd5b61005e600160a060020a036004351661011f565b341561008a57600080fd5b61005e600160a060020a0360043516610169565b61005e63ffffffff600435166101b3565b34156100ba57600080fd5b6100c261045e565b604051600160a060020a03909116815260200160405180910390f35b34156100e957600080fd5b6100c261046d565b34156100fc57600080fd5b61010d63ffffffff6004351661047c565b60405190815260200160405180910390f35b60005433600160a060020a0390811691161461013a57600080fd5b6002805473ffffffffffffffffffffffffffffffffffffffff1916600160a060020a0392909216919091179055565b60005433600160a060020a0390811691161461018457600080fd5b6001805473ffffffffffffffffffffffffffffffffffffffff1916600160a060020a0392909216919091179055565b63ffffffff8116600090815260036020526040808220546002548392839283928392600160a060020a0390911690631b8bd57c90899085905160e0015260405163ffffffff83811660e060020a02825291909116600482015260240160e060405180830381600087803b151561022857600080fd5b6102c65a03f1151561023957600080fd5b5050506040518051906020018051906020018051906020018051906020018051906020018051906020018051600254979d50959b50919950975092955050600160a060020a03909216915063732519d590508860006040516020015260405163ffffffff83811660e060020a028252919091166004820152602401602060405180830381600087803b15156102cd57600080fd5b6102c65a03f115156102de57600080fd5b5050506040518051151560011490506102f657600080fd5b6001018181111561030657600080fd5b33600160a060020a0316151561031b57600080fd5b348390101561032957600080fd5b60018054600160a060020a031690636aaacb3f90339086908b908b908b908b90600060405163ffffffff8a811660e060020a028252600160a060020a039990991660048201526024810197909752948716604487015292861660648601529085166084850152841660a484015290921660c482015260e481019190915261010401600060405180830381600087803b15156103c357600080fd5b6102c65a03f115156103d457600080fd5b50505063ffffffff8716600090815260036020526040908190208290557f4141150ed7d16fb9ef7d804930ab30a68ccbd8e90eb05c54f3c0f36d1f2107899088908590309033905163ffffffff90941684526020840192909252600160a060020a03908116604080850191909152911660608301526080909101905180910390a150505050505050565b600154600160a060020a031681565b600254600160a060020a031681565b63ffffffff16600090815260036020526040902054905600a165627a7a723058207ccafd053fa7c294151a9d34de208fbf5439acc86daac7ceebd8a50c1a2ebe4f0029",
  "source": "pragma solidity ^0.4.18;\nimport \"./SafeMath.sol\";\n\ninterface CaptainTokenInterface {\n  function transferFrom(address _from, address _to, uint256 _tokenId) external;\n  function setTokenPrice(uint256 _tokenId, uint256 _price) external;\n  function CreateCaptainToken(address _owner,uint256 _price, uint32 _captainId, uint32 _color,uint32 _atk, uint32 _defense,uint32 _level,uint256 _exp) public;\n}\n\ninterface CaptainGameConfigInterface {\n  function getCardInfo(uint32 cardId) external constant returns (uint32,uint32,uint32, uint32,uint32,uint256,uint256);\n  function getCalLevel(uint32 _level) external returns (uint32);\n  function getSellable(uint32 _captainId) external returns (bool);\n}\ncontract CaptainSell {\n  using SafeMath for SafeMath;\n  address devAddress;\n\n  function CaptainSell() public {\n    devAddress = msg.sender;\n  }\n  CaptainTokenInterface public captains;\n  CaptainGameConfigInterface public config; \n  /// @dev The BuyToken event is fired whenever a token is sold.\n  event BuyToken(uint256 tokenId, uint256 oldPrice, address prevOwner, address winner);\n  \n  //mapping\n  mapping(uint32 => uint256) captainToCount; \n\n  function() external payable {\n  }\n\n  modifier onlyOwner {\n    require(msg.sender == devAddress); \n    _;\n  }\n\n  //setting configuration\n  function setGameConfigContract(address _address) external onlyOwner {\n    config = CaptainGameConfigInterface(_address);\n  }\n\n  //setting configuration\n  function setCaptainTokenContract(address _address) external onlyOwner {\n    captains = CaptainTokenInterface(_address);\n  }\n\n\n  function prepurchase(uint32 _captainId) external payable {\n    uint32 color;\n    uint32 atk;\n    uint32 defense;\n    uint256 price;\n    uint256 captainCount;\n    uint256 SellCount = captainToCount[_captainId];\n    (color,atk,,,defense,price,captainCount) = config.getCardInfo(_captainId);\n    require(config.getSellable(_captainId) == true);\n    SellCount += 1;\n    require(SellCount<=captainCount);\n\n    // Safety check to prevent against an unexpected 0x0 default.\n    require(msg.sender != address(0));\n    \n    // Making sure sent amount is greater than or equal to the sellingPrice\n    require(msg.value >= price);\n    captains.CreateCaptainToken(msg.sender,price,_captainId,color,atk, defense,1,0);\n    captainToCount[_captainId] = SellCount;\n    //event \n    BuyToken(_captainId, price,address(this),msg.sender);\n  }\n\n  function getCaptainCount(uint32 _captainId) external constant returns (uint256) {\n    return captainToCount[_captainId];\n  }\n}",
  "sourcePath": "/Users/rainysiu/Projects/Blockchain/PirateConquest/contracts/CaptainSell.sol",
  "compiler": {
    "name": "solc",
    "version": "0.4.19+commit.c4cbbb05.Emscripten.clang"
  },
  "schemaVersion": "2.0.0",
  "updatedAt": "2018-06-14T14:21:18.959Z"
}