{
  "contractName": "CaptainMarket",
  "abi": [
    {
      "constant": false,
      "inputs": [
        {
          "name": "_address",
          "type": "address"
        }
      ],
      "name": "setCaptainTokenContract",
      "outputs": [],
      "payable": false,
      "stateMutability": "nonpayable",
      "type": "function"
    },
    {
      "constant": false,
      "inputs": [
        {
          "name": "_tokenId",
          "type": "uint256"
        },
        {
          "name": "_startPrice",
          "type": "uint256"
        },
        {
          "name": "_duration",
          "type": "uint64"
        }
      ],
      "name": "createAuction",
      "outputs": [],
      "payable": false,
      "stateMutability": "nonpayable",
      "type": "function"
    },
    {
      "constant": true,
      "inputs": [],
      "name": "captains",
      "outputs": [
        {
          "name": "",
          "type": "address"
        }
      ],
      "payable": false,
      "stateMutability": "view",
      "type": "function"
    },
    {
      "constant": false,
      "inputs": [],
      "name": "unpause",
      "outputs": [
        {
          "name": "",
          "type": "bool"
        }
      ],
      "payable": false,
      "stateMutability": "nonpayable",
      "type": "function"
    },
    {
      "constant": true,
      "inputs": [],
      "name": "paused",
      "outputs": [
        {
          "name": "",
          "type": "bool"
        }
      ],
      "payable": false,
      "stateMutability": "view",
      "type": "function"
    },
    {
      "constant": true,
      "inputs": [
        {
          "name": "_tokenId",
          "type": "uint256"
        }
      ],
      "name": "getAuction",
      "outputs": [
        {
          "name": "seller",
          "type": "address"
        },
        {
          "name": "startPrice",
          "type": "uint256"
        },
        {
          "name": "duration",
          "type": "uint256"
        },
        {
          "name": "startedAt",
          "type": "uint256"
        }
      ],
      "payable": false,
      "stateMutability": "view",
      "type": "function"
    },
    {
      "constant": false,
      "inputs": [],
      "name": "pause",
      "outputs": [
        {
          "name": "",
          "type": "bool"
        }
      ],
      "payable": false,
      "stateMutability": "nonpayable",
      "type": "function"
    },
    {
      "constant": true,
      "inputs": [],
      "name": "owner",
      "outputs": [
        {
          "name": "",
          "type": "address"
        }
      ],
      "payable": false,
      "stateMutability": "view",
      "type": "function"
    },
    {
      "constant": true,
      "inputs": [],
      "name": "getAuctions",
      "outputs": [
        {
          "name": "",
          "type": "uint256[]"
        }
      ],
      "payable": false,
      "stateMutability": "view",
      "type": "function"
    },
    {
      "constant": false,
      "inputs": [
        {
          "name": "_tokenId",
          "type": "uint256"
        }
      ],
      "name": "buy",
      "outputs": [],
      "payable": true,
      "stateMutability": "payable",
      "type": "function"
    },
    {
      "constant": false,
      "inputs": [
        {
          "name": "_tokenId",
          "type": "uint256"
        }
      ],
      "name": "purchase",
      "outputs": [],
      "payable": true,
      "stateMutability": "payable",
      "type": "function"
    },
    {
      "constant": false,
      "inputs": [
        {
          "name": "newOwner",
          "type": "address"
        }
      ],
      "name": "transferOwnership",
      "outputs": [],
      "payable": false,
      "stateMutability": "nonpayable",
      "type": "function"
    },
    {
      "inputs": [],
      "payable": false,
      "stateMutability": "nonpayable",
      "type": "constructor"
    },
    {
      "payable": true,
      "stateMutability": "payable",
      "type": "fallback"
    },
    {
      "anonymous": false,
      "inputs": [
        {
          "indexed": false,
          "name": "v1",
          "type": "address"
        }
      ],
      "name": "deubug",
      "type": "event"
    },
    {
      "anonymous": false,
      "inputs": [
        {
          "indexed": false,
          "name": "tokenId",
          "type": "uint256"
        },
        {
          "indexed": false,
          "name": "oldPrice",
          "type": "uint256"
        },
        {
          "indexed": false,
          "name": "prevOwner",
          "type": "address"
        },
        {
          "indexed": false,
          "name": "winner",
          "type": "address"
        }
      ],
      "name": "BuyToken",
      "type": "event"
    },
    {
      "anonymous": false,
      "inputs": [
        {
          "indexed": false,
          "name": "tokenId",
          "type": "uint256"
        },
        {
          "indexed": false,
          "name": "startPrice",
          "type": "uint256"
        },
        {
          "indexed": false,
          "name": "duration",
          "type": "uint256"
        }
      ],
      "name": "AuctionCreated",
      "type": "event"
    },
    {
      "anonymous": false,
      "inputs": [
        {
          "indexed": false,
          "name": "tokenId",
          "type": "uint256"
        },
        {
          "indexed": false,
          "name": "totalPrice",
          "type": "uint256"
        },
        {
          "indexed": false,
          "name": "winner",
          "type": "address"
        }
      ],
      "name": "AuctionSuccessful",
      "type": "event"
    },
    {
      "anonymous": false,
      "inputs": [
        {
          "indexed": false,
          "name": "tokenId",
          "type": "uint256"
        }
      ],
      "name": "AuctionCancelled",
      "type": "event"
    },
    {
      "anonymous": false,
      "inputs": [],
      "name": "Pause",
      "type": "event"
    },
    {
      "anonymous": false,
      "inputs": [],
      "name": "Unpause",
      "type": "event"
    },
    {
      "anonymous": false,
      "inputs": [
        {
          "indexed": true,
          "name": "previousOwner",
          "type": "address"
        },
        {
          "indexed": true,
          "name": "newOwner",
          "type": "address"
        }
      ],
      "name": "OwnershipTransferred",
      "type": "event"
    }
  ],
  "bytecode": "0x60606040526000805460a060020a60ff0219169055341561001f57600080fd5b60008054600160a060020a033316600160a060020a03199182168117909255600180549091169091179055611073806100596000396000f3006060604052600436106100a05763ffffffff60e060020a6000350416631bbec98781146100a25780632e39000f146100c15780633c6b9d8c146100e75780633f4ba83a146101165780635c975abb1461013d57806378bd7935146101505780638456cb59146101a35780638da5cb5b146101b6578063d7c06919146101c9578063d96a094a1461022f578063efef39a11461023a578063f2fde38b14610245575b005b34156100ad57600080fd5b6100a0600160a060020a0360043516610264565b34156100cc57600080fd5b6100a060043560243567ffffffffffffffff604435166102ae565b34156100f257600080fd5b6100fa6103d3565b604051600160a060020a03909116815260200160405180910390f35b341561012157600080fd5b6101296103e2565b604051901515815260200160405180910390f35b341561014857600080fd5b610129610468565b341561015b57600080fd5b610166600435610478565b6040518085600160a060020a0316600160a060020a0316815260200184815260200183815260200182815260200194505050505060405180910390f35b34156101ae57600080fd5b61012961051f565b34156101c157600080fd5b6100fa6105aa565b34156101d457600080fd5b6101dc6105b9565b60405160208082528190810183818151815260200191508051906020019060200280838360005b8381101561021b578082015183820152602001610203565b505050509050019250505060405180910390f35b6100a06004356106a5565b6100a0600435610a33565b341561025057600080fd5b6100a0600160a060020a0360043516610d5f565b60015433600160a060020a0390811691161461027f57600080fd5b6002805473ffffffffffffffffffffffffffffffffffffffff1916600160a060020a0392909216919091179055565b6102b661100e565b60005460a060020a900460ff16156102cd57600080fd5b6fffffffffffffffffffffffffffffffff831683146102eb57600080fd5b600254600160a060020a033381169116636352211e8660006040516020015260405160e060020a63ffffffff84160281526004810191909152602401602060405180830381600087803b151561034057600080fd5b6102c65a03f1151561035157600080fd5b50505060405180519050600160a060020a031614151561037057600080fd5b60806040519081016040528033600160a060020a03168152602001846fffffffffffffffffffffffffffffffff1681526020018367ffffffffffffffff1681526020014267ffffffffffffffff1681525090506103cd8482610dfa565b50505050565b600254600160a060020a031681565b60015460009033600160a060020a0390811691161461040057600080fd5b60005460a060020a900460ff16151561041857600080fd5b6000805474ff0000000000000000000000000000000000000000191690557f7805862f689e2f13df9f062ff482ad3ad112aca9e0847911ed832e158c525b3360405160405180910390a150600190565b60005460a060020a900460ff1681565b600081815260036020526040812081908190819061049581610f7e565b156105095780546001820154600160a060020a0390911695506fffffffffffffffffffffffffffffffff8116945067ffffffffffffffff7001000000000000000000000000000000008204811694507801000000000000000000000000000000000000000000000000909104169150610517565b600094508493508392508291505b509193509193565b60015460009033600160a060020a0390811691161461053d57600080fd5b60005460a060020a900460ff161561055457600080fd5b6000805474ff0000000000000000000000000000000000000000191660a060020a1790557f6985a02210a168e66602d3235cb6db0e70f92b3ba4d376a33c0f3d9434bff62560405160405180910390a150600190565b600054600160a060020a031681565b6105c1611035565b6105c9611035565b6000806004546040518059106105dc5750595b9080825280602002602001820160405250925060019150600190505b600454811161069d57600254600160a060020a031663ecc4a6c28260006040516020015260405160e060020a63ffffffff84160281526004810191909152602401602060405180830381600087803b151561065257600080fd5b6102c65a03f1151561066357600080fd5b50505060405180511515600114159050610695578183828151811061068457fe5b602090810290910101526001909101905b6001016105f8565b509092915050565b600254600090819081908190819081908190600160a060020a03166369b7ca858983604051610120015260405160e060020a63ffffffff8416028152600481019190915260240161012060405180830381600087803b151561070657600080fd5b6102c65a03f1151561071757600080fd5b5050506040518051906020018051906020018051906020018051906020018051906020018051906020018051906020018051906020018051939f50929d509b5050505033600160a060020a03908116908b161415935061077a9250505057600080fd5b33600160a060020a0316151561078f57600080fd5b348590101561079d57600080fd5b6107b26107ab86605d610faf565b6064610fe5565b93506107be3486610ffc565b92506107ca8585610ffc565b600254909250600160a060020a031663d43262b2868960006040516020015260405163ffffffff84811660e060020a028252600482019390935291166024820152604401602060405180830381600087803b151561082757600080fd5b6102c65a03f1151561083857600080fd5b5050506040518051600254909250600160a060020a0316905063eb685c47898360405160e060020a63ffffffff851602815260048101929092526024820152604401600060405180830381600087803b151561089357600080fd5b6102c65a03f115156108a457600080fd5b5050600254600160a060020a031690506323b872dd87338b60405160e060020a63ffffffff8616028152600160a060020a0393841660048201529190921660248201526044810191909152606401600060405180830381600087803b151561090b57600080fd5b6102c65a03f1151561091c57600080fd5b50505030600160a060020a031686600160a060020a031614151561096b57600160a060020a03861684156108fc0285604051600060405180830381858888f19350505050151561096b57600080fd5b600160a060020a03331683156108fc0284604051600060405180830381858888f19350505050151561099c57600080fd5b600154600160a060020a031682156108fc0283604051600060405180830381858888f1935050505015156109cf57600080fd5b7f4141150ed7d16fb9ef7d804930ab30a68ccbd8e90eb05c54f3c0f36d1f210789888688336040519384526020840192909252600160a060020a03908116604080850191909152911660608301526080909101905180910390a15050505050505050565b6000818152600360205260408120805460018201549192600160a060020a03918216926fffffffffffffffffffffffffffffffff16918190819081903316861415610a7d57600080fd5b33600160a060020a03161515610a9257600080fd5b3485901015610aa057600080fd5b610aae6107ab86605d610faf565b9350610aba3486610ffc565b9250610ac68585610ffc565b9150610ad66107ab86607d610faf565b600254909150600160a060020a031663eb685c47898360405160e060020a63ffffffff851602815260048101929092526024820152604401600060405180830381600087803b1515610b2757600080fd5b6102c65a03f11515610b3857600080fd5b5050600254600160a060020a0316905063fbeecb4787338b60405160e060020a63ffffffff8616028152600160a060020a0393841660048201529190921660248201526044810191909152606401600060405180830381600087803b1515610b9f57600080fd5b6102c65a03f11515610bb057600080fd5b50505030600160a060020a031686600160a060020a0316141515610bff57600160a060020a03861684156108fc0285604051600060405180830381858888f193505050501515610bff57600080fd5b600160a060020a03331683156108fc0284604051600060405180830381858888f193505050501515610c3057600080fd5b600154600160a060020a031682156108fc0283604051600060405180830381858888f193505050501515610c6357600080fd5b600088815260036020526040808220805473ffffffffffffffffffffffffffffffffffffffff19168155600190810192909255600254600160a060020a03169163916f7c23918b91905160e060020a63ffffffff8516028152600481019290925215156024820152604401600060405180830381600087803b1515610ce757600080fd5b6102c65a03f11515610cf857600080fd5b5050507f4141150ed7d16fb9ef7d804930ab30a68ccbd8e90eb05c54f3c0f36d1f210789888688336040519384526020840192909252600160a060020a03908116604080850191909152911660608301526080909101905180910390a15050505050505050565b60015433600160a060020a03908116911614610d7a57600080fd5b600160a060020a0381161515610d8f57600080fd5b600054600160a060020a0380831691167f8be0079c531659141344cd1fd0a4f28419497f9722a3daafe3b4186f6b6457e060405160405180910390a36000805473ffffffffffffffffffffffffffffffffffffffff1916600160a060020a0392909216919091179055565b603c816040015167ffffffffffffffff161015610e1657600080fd5b600082815260036020526040902081908151815473ffffffffffffffffffffffffffffffffffffffff1916600160a060020a039190911617815560208201516001820180546fffffffffffffffffffffffffffffffff19166fffffffffffffffffffffffffffffffff9290921691909117905560408201518160010160106101000a81548167ffffffffffffffff021916908367ffffffffffffffff16021790555060608201516001909101805467ffffffffffffffff9290921678010000000000000000000000000000000000000000000000000277ffffffffffffffffffffffffffffffffffffffffffffffff909216919091179055507fd6eddd1118d71820909c1197aa966dbc15ed6f508554252169cc3d5ccac756ca8260208301516fffffffffffffffffffffffffffffffff16836040015167ffffffffffffffff1660405180848152602001838152602001828152602001935050505060405180910390a15050565b600101546000780100000000000000000000000000000000000000000000000090910467ffffffffffffffff161190565b600080831515610fc25760009150610fde565b50828202828482811515610fd257fe5b0414610fda57fe5b8091505b5092915050565b6000808284811515610ff357fe5b04949350505050565b60008282111561100857fe5b50900390565b60806040519081016040908152600080835260208301819052908201819052606082015290565b602060405190810160405260008152905600a165627a7a723058208dda19a2893db881db601d903ebe71e4e6aa1cf58dec6ea1373a68b1979093a70029",
  "source": "pragma solidity ^0.4.18;\nimport \"./SafeMath.sol\";\nimport \"./Pausable.sol\";\n\ninterface CaptainTokenInterface {\nfunction getCaptainInfo(uint256 _tokenId) external view returns (\n    uint32 captainId,  \n    uint32 color, \n    uint32 atk_min,\n    uint32 atk_max,\n    uint32 defense,\n    uint32 level,\n    uint256 exp, \n    uint256 price,\n    address owner\n  );\n  function ownerOf(uint256 _tokenId) external view returns (address);\n  function transferFrom(address _from, address _to, uint256 _tokenId) external;\n  function setTokenPrice(uint256 _tokenId, uint256 _price) external;\n  function CreateCaptainToken(address _owner,uint256 _price, uint32 _captainId, uint32 _color,uint32 _atk_min, uint32 _atk_max,uint32 _defense,uint32 _level,uint256 _exp) public;\n  function safeTransferByContract(address _from,address _to, uint256 _tokenId) external;\n  function setSelled(uint256 _tokenId, bool fsell) external;\n  function getprice(uint256 _curPrice,uint32 _level) external returns(uint256);\n  function getSelled(uint256 _tokenId) external view returns (bool);\n}\n\n\ncontract CaptainMarket is Pausable {\n  using SafeMath for SafeMath;\n  address devAddress;\n  event deubug(address v1);\n     // Represents an auction on an NFT\n  struct Auction {\n    // Current owner of NFT  \n    address seller;\n    // Price (in wei) at beginning of auction  \n    uint128 startPrice;\n    // Duration (in seconds) of auction\n    uint64 duration;\n    // Time when auction started  \n    // NOTE: 0 if this auction has been concluded\n    uint64 startedAt;\n  }\n\n  function CaptainMarket() public {\n    devAddress = msg.sender;\n  }\n  CaptainTokenInterface public captains;\n  /// @dev The BuyToken event is fired whenever a token is sold.\n  event BuyToken(uint256 tokenId, uint256 oldPrice, address prevOwner, address winner);\n  \n  // Map from token ID to their corresponding auction. \n  mapping (uint256 => Auction) tokenIdToAuction;\n   \n  event AuctionCreated(uint256 tokenId, uint256 startPrice, uint256 duration);\n  event AuctionSuccessful(uint256 tokenId, uint256 totalPrice, address winner);\n  event AuctionCancelled(uint256 tokenId);\n\n  uint256 onAuction;\n\n  function() external payable {\n  }\n  \n  modifier onlyOwner {\n    require(msg.sender == devAddress); \n    _;\n  }\n\n  //setting configuration\n  function setCaptainTokenContract(address _address) external onlyOwner {\n    captains = CaptainTokenInterface(_address);\n  }\n\n    /// @dev Creates and begins a new auction.\n    /// @param _tokenId - ID of token to auction, sender must be owner.\n    /// @param _startPrice - Price of item (in wei) at beginning of auction.\n    /// @param _duration - Length of time to move between starting\n    ///  price and ending price (in seconds).\n  function createAuction(\n    uint256 _tokenId,\n    uint256 _startPrice,\n    uint64 _duration\n  )\n  external\n  whenNotPaused\n  {\n    // Sanity check that no inputs overflow how many bits we've allocated\n    // to store them in the auction struct.\n    require(_startPrice == uint256(uint128(_startPrice)));\n    require(_duration == uint256(uint64(_duration)));\n    require(captains.ownerOf(_tokenId) == msg.sender);\n\n    Auction memory auction = Auction(\n      msg.sender,\n      uint128(_startPrice),\n      uint64(_duration),\n      uint64(now)\n    );\n    _addAuction(_tokenId, auction);\n    //captains.setSelled(_tokenId,true);\n  }\n\n \n\n    /// @dev Return all the auction tokens\n  function getAuctions() external view returns (uint256[]) {\n    uint256[] memory result = new uint256[](onAuction);\n    uint256 tokenId = 1;\n    for (uint i=1;i<=onAuction;i++) {\n      if ( captains.getSelled(i) == true) {\n        result[i] = tokenId;\n        tokenId ++;\n      }\n    }\n    return result;\n  }\n\n  /// @param _tokenId - ID of NFT on auction.\n  function getAuction(uint256 _tokenId)\n    external\n    view\n    returns\n    (\n        address seller,\n        uint256 startPrice,\n        uint256 duration,\n        uint256 startedAt\n    ) {\n    Auction storage auction = tokenIdToAuction[_tokenId];\n    if (_isOnAuction(auction)) {\n      return (\n      auction.seller,\n      auction.startPrice,\n      auction.duration,\n      auction.startedAt\n      );\n    } else {\n      return (address(0),0,0,0);\n    }\n  }\n    /// @dev Adds an auction to the list of open auctions. Also fires the\n    ///  AuctionCreated event.\n    /// @param _tokenId The ID of the token to be put on auction.\n    /// @param _auction Auction to add.\n  function _addAuction(uint256 _tokenId, Auction _auction) internal {\n    // Require that all auctions have a duration of\n    // at least one minute. (Keeps our math from getting hairy!)\n    require(_auction.duration >= 1 minutes);\n\n    tokenIdToAuction[_tokenId] = _auction;\n    //event\n    AuctionCreated(\n      uint256(_tokenId),\n      uint256(_auction.startPrice),\n      uint256(_auction.duration)\n    );\n  }\n\n  /// @dev Returns true if the NFT is on auction.\n  /// @param _auction - Auction to check.\n  function _isOnAuction(Auction storage _auction) internal view returns (bool) {\n    return (_auction.startedAt > 0);\n  }\n\n\n  // Allows someone to send ether and obtain the token\n  function purchase(uint256 _tokenId) external payable {\n    Auction storage auction = tokenIdToAuction[_tokenId];\n    address seller = auction.seller;\n    uint256 startPrice = auction.startPrice;\n  \n    // Making sure token owner is not sending to self\n    require(seller != msg.sender);\n\n    // Safety check to prevent against an unexpected 0x0 default.\n    require(msg.sender != address(0));\n    \n    // Making sure sent amount is greater than or equal to the sellingPrice\n    require(msg.value >= startPrice);\n\n    uint256 payment = uint256(SafeMath.div(SafeMath.mul(startPrice, 93), 100));\n    uint256 purchaseExcess = SafeMath.sub(msg.value, startPrice); \n    uint256 commission = SafeMath.sub(startPrice,payment); \n    uint256 nextPrice = SafeMath.div(SafeMath.mul(startPrice, 125), 100);\n    \n    //update prices\n    //IndexToPrice[_tokenId] = nextPrice;\n    captains.setTokenPrice(_tokenId,nextPrice);\n    //_transfer(oldOwner, msg.sender, _tokenId);\n    captains.safeTransferByContract(seller,msg.sender, _tokenId);\n\t\t// Pay previous tokenOwner if owner is not contract\n    if (seller != address(this)) {\n      seller.transfer(payment); //(1-0.07)\n    }\n\n    msg.sender.transfer(purchaseExcess);\n    devAddress.transfer(commission);\n    //delete token from auction\n    delete tokenIdToAuction[_tokenId];\n    captains.setSelled(_tokenId,true);\n    //event \n    BuyToken(_tokenId, startPrice,seller,msg.sender);\n  }\n\n   // Allows someone to send ether and obtain the token\n  function buy(uint256 _tokenId) external payable {\n    uint32 level;\n    address curOwner;\n    uint256 curPrice;\n    (,,level,,curPrice,curOwner) = captains.getCaptainInfo(_tokenId);\n    // Making sure token owner is not sending to self\n    require(curOwner != msg.sender);\n\n    // Safety check to prevent against an unexpected 0x0 default.\n    require(msg.sender != address(0));\n    \n    // Making sure sent amount is greater than or equal to the sellingPrice\n    require(msg.value >= curPrice);\n\n    uint256 payment = uint256(SafeMath.div(SafeMath.mul(curPrice, 93), 100));\n    uint256 purchaseExcess = SafeMath.sub(msg.value, curPrice); \n    uint256 commission = SafeMath.sub(curPrice,payment);\n    uint256 nextPrice = captains.getprice(curPrice,level);\n    \n    //update prices\n    //IndexToPrice[_tokenId] = nextPrice;\n    captains.setTokenPrice(_tokenId,nextPrice);\n    //_transfer(oldOwner, msg.sender, _tokenId);\n    captains.transferFrom(curOwner,msg.sender, _tokenId);\n\t\t// Pay previous tokenOwner if owner is not contract\n    if (curOwner != address(this)) {\n      curOwner.transfer(payment); //(1-0.07)\n    }\n\n    msg.sender.transfer(purchaseExcess);\n    devAddress.transfer(commission);\n    //event \n    BuyToken(_tokenId, curPrice,curOwner,msg.sender);\n  }\n\n}",
  "sourcePath": "/Users/rainysiu/Projects/Blockchain/PirateConquest/contracts/CaptainMarket.sol",
  "compiler": {
    "name": "solc",
    "version": "0.4.19+commit.c4cbbb05.Emscripten.clang"
  },
  "schemaVersion": "2.0.0",
  "updatedAt": "2018-06-15T06:45:00.364Z"
}