{
  "contractName": "CaptainGameConfig",
  "abi": [
    {
      "constant": true,
      "inputs": [
        {
          "name": "",
          "type": "uint32"
        }
      ],
      "name": "captainIndxToCount",
      "outputs": [
        {
          "name": "",
          "type": "uint256"
        }
      ],
      "payable": false,
      "stateMutability": "view",
      "type": "function"
    },
    {
      "inputs": [],
      "payable": false,
      "stateMutability": "nonpayable",
      "type": "constructor"
    },
    {
      "constant": true,
      "inputs": [
        {
          "name": "cardId",
          "type": "uint32"
        }
      ],
      "name": "getCardInfo",
      "outputs": [
        {
          "name": "",
          "type": "uint32"
        },
        {
          "name": "",
          "type": "uint32"
        },
        {
          "name": "",
          "type": "uint32"
        },
        {
          "name": "",
          "type": "uint32"
        },
        {
          "name": "",
          "type": "uint32"
        },
        {
          "name": "",
          "type": "uint256"
        },
        {
          "name": "",
          "type": "uint256"
        }
      ],
      "payable": false,
      "stateMutability": "view",
      "type": "function"
    },
    {
      "constant": false,
      "inputs": [
        {
          "name": "id",
          "type": "uint32"
        },
        {
          "name": "color",
          "type": "uint32"
        },
        {
          "name": "atk",
          "type": "uint32"
        },
        {
          "name": "defense",
          "type": "uint32"
        },
        {
          "name": "price",
          "type": "uint256"
        }
      ],
      "name": "addCard",
      "outputs": [],
      "payable": false,
      "stateMutability": "nonpayable",
      "type": "function"
    },
    {
      "constant": false,
      "inputs": [
        {
          "name": "_id",
          "type": "uint32"
        },
        {
          "name": "_count",
          "type": "uint256"
        }
      ],
      "name": "setCaptainIndexToCount",
      "outputs": [],
      "payable": false,
      "stateMutability": "nonpayable",
      "type": "function"
    },
    {
      "constant": true,
      "inputs": [
        {
          "name": "_id",
          "type": "uint32"
        }
      ],
      "name": "getCaptainIndexToCount",
      "outputs": [
        {
          "name": "",
          "type": "uint256"
        }
      ],
      "payable": false,
      "stateMutability": "view",
      "type": "function"
    },
    {
      "constant": true,
      "inputs": [
        {
          "name": "_color",
          "type": "uint32"
        }
      ],
      "name": "getCalFactor",
      "outputs": [
        {
          "name": "",
          "type": "uint32"
        }
      ],
      "payable": false,
      "stateMutability": "view",
      "type": "function"
    },
    {
      "constant": false,
      "inputs": [
        {
          "name": "_color",
          "type": "uint32"
        },
        {
          "name": "_factor",
          "type": "uint32"
        }
      ],
      "name": "setCalFactor",
      "outputs": [],
      "payable": false,
      "stateMutability": "nonpayable",
      "type": "function"
    },
    {
      "constant": true,
      "inputs": [
        {
          "name": "_captainId",
          "type": "uint32"
        }
      ],
      "name": "getSellable",
      "outputs": [
        {
          "name": "",
          "type": "bool"
        }
      ],
      "payable": false,
      "stateMutability": "view",
      "type": "function"
    },
    {
      "constant": false,
      "inputs": [
        {
          "name": "_captainId",
          "type": "uint32"
        },
        {
          "name": "b",
          "type": "bool"
        }
      ],
      "name": "setSellable",
      "outputs": [],
      "payable": false,
      "stateMutability": "nonpayable",
      "type": "function"
    }
  ],
  "bytecode": "0x6060604052341561000f57600080fd5b60008054600160a060020a03191633600160a060020a031617905560a0604051908101604090815260018083526002602080850191909152610108928401929092526060808401526707a1fe16027700006080840152600081905290527fcc69885fda6bcc1a4ace058b4a62bf5e179ea78fd58a1ccd71c22cc9b688792f8151815463ffffffff191663ffffffff919091161781556020820151815463ffffffff919091166401000000000267ffffffff00000000199091161781556040820151815463ffffffff919091166801000000000000000002604060020a63ffffffff02199091161781556060820151815463ffffffff919091166c0100000000000000000000000002606060020a63ffffffff021990911617815560808201516001909101555060a06040519081016040908152600280835260016020808501829052610104938501939093526028606085015267063eb89da4ed0000608085015260009190915290527fd9d16d34ffb15ba3a3d852f0d403e2ce1d691fb54de27ac87cd2f993f3ec330f8151815463ffffffff191663ffffffff919091161781556020820151815463ffffffff919091166401000000000267ffffffff00000000199091161781556040820151815463ffffffff919091166801000000000000000002604060020a63ffffffff02199091161781556060820151815463ffffffff919091166c0100000000000000000000000002606060020a63ffffffff021990911617815560808201516001909101555060a060405190810160409081526003808352600460208085019190915261023c9284019290925260586060840152670dbd2fc137a300006080840152600052600190527f7dfe757ecd65cbd7922a9c0161e935dd7fdbcc0e999689c7d31633896b1fc60b8151815463ffffffff191663ffffffff919091161781556020820151815463ffffffff919091166401000000000267ffffffff00000000199091161781556040820151815463ffffffff919091166801000000000000000002604060020a63ffffffff02199091161781556060820151815463ffffffff919091166c0100000000000000000000000002606060020a63ffffffff021990911617815560808201516001909101555060a06040519081016040908152600480835260036020808501919091526101009284019290925260e060608401526709fdf42f6e4800006080840152600052600190527fedc95719e9a3b28dd8e80877cb5880a9be7de1a13fc8b05e7999683b6b5676438151815463ffffffff191663ffffffff919091161781556020820151815463ffffffff919091166401000000000267ffffffff00000000199091161781556040820151815463ffffffff919091166801000000000000000002604060020a63ffffffff02199091161781556060820151815463ffffffff919091166c0100000000000000000000000002606060020a63ffffffff021990911617815560808201516001909101555060a0604051908101604090815260058083526004602080850191909152610160928401929092526101346060840152670dbd2fc137a300006080840152600052600190527fe2689cd4a84e23ad2f564004f1c9013e9589d260bde6380aba3ca7e09e4df40c8151815463ffffffff191663ffffffff919091161781556020820151815463ffffffff919091166401000000000267ffffffff00000000199091161781556040820151815463ffffffff919091166801000000000000000002604060020a63ffffffff02199091161781556060820151815463ffffffff919091166c0100000000000000000000000002606060020a63ffffffff021990911617815560808201516001909101555060a06040519081016040908152600680835260046020808501919091526101e49284019290925260b06060840152670dbd2fc137a300006080840152600052600190527f8f331abe73332f95a25873e8b430885974c0409691f89d643119a11623a7924a8151815463ffffffff191663ffffffff919091161781556020820151815463ffffffff919091166401000000000267ffffffff00000000199091161781556040820151815463ffffffff919091166801000000000000000002604060020a63ffffffff02199091161781556060820151815463ffffffff919091166c0100000000000000000000000002606060020a63ffffffff021990911617815560808201516001909101555060a06040519081016040908152600780835260026020808501919091526101389284019290925260306060840152670bcbce7f1b1500006080840152600052600190527fdc686ec4a0ff239c70e7c7c36e8f853eced3bc8618f48d2b816da2a74311237e8151815463ffffffff191663ffffffff919091161781556020820151815463ffffffff919091166401000000000267ffffffff00000000199091161781556040820151815463ffffffff919091166801000000000000000002604060020a63ffffffff02199091161781556060820151815463ffffffff919091166c0100000000000000000000000002606060020a63ffffffff021990911617815560808201516001909101555060a0604051908101604090815260088083526003602080850191909152610160928401929092526080606084018190526709fdf42f6e48000090840152600052600190527f4db623e5c4870b62d3fc9b4e8f893a1a77627d75ab45d9ff7e56ba19564af99b8151815463ffffffff191663ffffffff919091161781556020820151815463ffffffff919091166401000000000267ffffffff00000000199091161781556040820151815463ffffffff919091166801000000000000000002604060020a63ffffffff02199091161781556060820151815463ffffffff919091166c0100000000000000000000000002606060020a63ffffffff021990911617815560808201516001909101555060a06040519081016040908152600980835260016020808501829052610104938501939093526028606085015267063eb89da4ed0000608085015260009190915290527f74a5fbcb419ab7dbacbb2c92a4e163730f0da5c72b911deecf4f05a6b327d0a48151815463ffffffff191663ffffffff919091161781556020820151815463ffffffff919091166401000000000267ffffffff00000000199091161781556040820151815463ffffffff919091166801000000000000000002604060020a63ffffffff02199091161781556060820151815463ffffffff919091166c0100000000000000000000000002606060020a63ffffffff021990911617815560808201516001918201556127107fe90b7bceb6e7df5418fb78d8ee546e97c83a08bbccc01a0644d599ccd2a7c2e08190557f679795a0195a1b76cdebb7c51d74e058aee92919b8c3389af86ef24535e8a28c819055601e7f88601476d11616a71c5be67555bd1dff4b1cbf21533d2669b768b61518cfe1c38190557fee60d0579bcffd98e668647d59fec1ff86a7fb340ce572e844f234ae73a6918f8290557fb98b78633099fa36ed8b8680c4f8092689e1e04080eb9cbb077ca38a14d7e3848190557f59dd4b18488d12f51eda69757a0ed42a2010c14b564330cc74a06895e60c077b557facd8ef244210bb6898e73c48bf820ed8ecc857a3bab8d79c10e4fa92b1e9ca658190557f3a5ea591190eeb3f8fcdced843c78df04ec0dfd42f5510375207515664fa0a758190557ff85cc6ffc513dc6cf7d199ef87b7a63cf9defe62251c1c247cd12f1eec7bff29557fa15bc60c955c405d20d9149c709e2460f1c2d9a497496a7f46004d1772c3054c805463ffffffff199081166050179091557fc3a24b0501bd2c13a7e57f2db4369ec4c223447539fc0724a9d55ac4a06ebd4d8054821660551790557fcbc4e5fb02c3d1de23a9f1e014b4d2ee5aeaea9505df5e855c9210bf472495af80548216605a1790557f83ec6a1f0257b830b5e016457c9cf1435391bf56cc98f369a58a54fe937724658054909116605f17905560046020527f2e174c10e159ea99b867ce3205125c24a42d128804e4070ed6fcc8cc98166aa0805460ff1990811683179091557f04cde762ef08b6b6c5ded8e8c4c0b3f4e5c9ad7342c88fcc93681b4588b73f05805482168317905560066000527fc59312466997bb42aaaf719ece141047820e6b34531e1670dc1852a453648f0f805490911690911790555061050580610c286000396000f3006060604052600436106100985763ffffffff7c01000000000000000000000000000000000000000000000000000000006000350416631b8bd57c811461009d5780636d12fb5b14610101578063732519d51461012457806374d41fa4146101545780638bb204d41461018257806391959fe3146101a1578063b2549717146101d6578063c345f724146101f8578063ea9707a314610229575b600080fd5b34156100a857600080fd5b6100b963ffffffff60043516610245565b60405163ffffffff9788168152958716602087015293861660408087019190915292861660608601529416608084015260a083019390935260c082015260e001905180910390f35b341561010c57600080fd5b61012263ffffffff6004351660243515156102c4565b005b341561012f57600080fd5b61014063ffffffff600435166102ec565b604051901515815260200160405180910390f35b341561015f57600080fd5b61017063ffffffff60043516610307565b60405190815260200160405180910390f35b341561018d57600080fd5b61012263ffffffff60043516602435610319565b34156101ac57600080fd5b6101bd63ffffffff6004351661035a565b60405163ffffffff909116815260200160405180910390f35b34156101e157600080fd5b61012263ffffffff60043581169060243516610375565b341561020357600080fd5b61012263ffffffff6004358116906024358116906044358116906064351660843561039d565b341561023457600080fd5b61017063ffffffff600435166104c1565b63ffffffff908116600081815260016020818152604080842080546401000000008104881680875260038552838720549787529190940154600290935293205492956801000000000000000083048616956064958116870281168690049560c88990038802821604946c01000000000000000000000000909404169290565b63ffffffff919091166000908152600460205260409020805460ff1916911515919091179055565b63ffffffff1660009081526004602052604090205460ff1690565b60026020526000908152604090205481565b6000543373ffffffffffffffffffffffffffffffffffffffff90811691161461034157600080fd5b63ffffffff909116600090815260026020526040902055565b63ffffffff9081166000908152600360205260409020541690565b63ffffffff9182166000908152600360205260409020805463ffffffff191691909216179055565b6000543373ffffffffffffffffffffffffffffffffffffffff9081169116146103c557600080fd5b60a0604051908101604090815263ffffffff8088168084528782166020808601919091528783168486015291861660608501526080840185905260009081526001909152208151815463ffffffff191663ffffffff919091161781556020820151815463ffffffff919091166401000000000267ffffffff00000000199091161781556040820151815463ffffffff9190911668010000000000000000026bffffffff0000000000000000199091161781556060820151815463ffffffff919091166c01000000000000000000000000026fffffffff000000000000000000000000199091161781556080820151600190910155505050505050565b63ffffffff16600090815260026020526040902054905600a165627a7a723058205b483286ac33e16ebe9c4d20e12d286496dd47cd172df1f0bc83f77ff0dd44de0029",
  "source": "pragma solidity ^0.4.18;\n/* ==================================================================== */\n/* Copyright (c) 2018 The Priate Conquest Project.  All rights reserved.\n/* \n/* https://www.priateconquest.io One of the world's slg games of blockchain \n/*  \n/* authors rainy@livestar.com/fanny.zheng@livestar.com\n/*                 \n/* ==================================================================== */\ncontract CaptainGameConfig {\n  address owner;\n  struct Card {\n    uint32 cardId;\n    uint32 color;\n    uint32 atk;\n    uint32 defense;\n    uint256 price;\n  }\n\n  /** mapping**/\n  mapping(uint256 => Card) private cardInfo;  //normal card\n  mapping(uint32 => uint256) public captainIndxToCount;\n  mapping(uint32 => uint32) private calfactor;\n  mapping(uint32 => bool) private unitSellable;\n\n  function CaptainGameConfig() public {\n    owner = msg.sender;\n\n    cardInfo[1] = Card(1, 2, 264, 96,  0.55 ether);\n    cardInfo[2] = Card(2, 1, 260, 40,  0.45 ether);\n    cardInfo[3] = Card(3, 4, 572, 88,  0.99 ether);\n    cardInfo[4] = Card(4, 3, 256, 224,  0.72 ether);\n    cardInfo[5] = Card(5, 4, 352, 308,  0.99 ether);\n    cardInfo[6] = Card(6, 4, 484, 176,  0.99 ether);\n    cardInfo[7] = Card(7, 2, 312, 48, 0.85 ether);\n    cardInfo[8] = Card(8, 3, 352, 128, 0.72 ether);\n    cardInfo[9] = Card(9, 1, 260, 40,  0.45 ether);\n\n    captainIndxToCount[1] = 10000;\n    captainIndxToCount[2] = 10000;\n    captainIndxToCount[3] = 30;\n    captainIndxToCount[4] = 10000;\n    captainIndxToCount[5] = 30;\n    captainIndxToCount[6] = 30;\n    captainIndxToCount[7] = 10000;\n    captainIndxToCount[8] = 10000;\n    captainIndxToCount[9] = 10000;\n    calfactor[1] = 80;\n    calfactor[2] = 85;\n    calfactor[3] = 90;\n    calfactor[4] = 95;\n\n    unitSellable[3] = true;\n    unitSellable[5] = true;\n    unitSellable[6] = true;\n  }\n\n  function getCardInfo(uint32 cardId) external constant returns (uint32,uint32,uint32,uint32,uint32,uint256,uint256) {\n    return (\n      cardInfo[cardId].color,\n      cardInfo[cardId].atk, \n      cardInfo[cardId].atk*calfactor[cardInfo[cardId].color]/100,\n      cardInfo[cardId].atk*(200-cardInfo[cardId].color)/100,\n      cardInfo[cardId].defense,\n      cardInfo[cardId].price,\n      captainIndxToCount[cardId]);\n  }    \n  \n  function addCard(uint32 id, uint32 color, uint32 atk,uint32 defense, uint256 price) external {\n    require(msg.sender == owner);\n    cardInfo[id] = Card(id, color, atk, defense, price);\n  }\n  \n  function setCaptainIndexToCount(uint32 _id, uint256 _count) external {\n    require(msg.sender == owner);\n    captainIndxToCount[_id] = _count;\n  }\n  function getCaptainIndexToCount(uint32 _id) external constant returns (uint256) {\n    return captainIndxToCount[_id];\n  }\n\n  function getCalFactor(uint32 _color) external constant returns (uint32) {\n    return calfactor[_color];\n  }\n  function setCalFactor(uint32 _color, uint32 _factor) external {\n    calfactor[_color] = _factor;\n  }\n\n  function getSellable(uint32 _captainId) external constant returns (bool) {\n    return unitSellable[_captainId];\n  }\n\n  function setSellable(uint32 _captainId,bool b) external {\n    unitSellable[_captainId] = b;\n  }\n}",
  "sourcePath": "/Users/rainysiu/Projects/Blockchain/PirateConquest/contracts/CaptainGameConfig.sol",
  "compiler": {
    "name": "solc",
    "version": "0.4.19+commit.c4cbbb05.Emscripten.clang"
  },
  "schemaVersion": "2.0.0",
  "updatedAt": "2018-06-15T06:45:00.353Z"
}