{
  "contractName": "CaptainSell",
  "abi": [
    {
      "constant": true,
      "inputs": [],
      "name": "captains",
      "outputs": [
        {
          "name": "",
          "type": "address"
        }
      ],
      "payable": false,
      "stateMutability": "view",
      "type": "function"
    },
    {
      "constant": false,
      "inputs": [
        {
          "name": "_tokenId",
          "type": "uint256"
        }
      ],
      "name": "purchase",
      "outputs": [],
      "payable": true,
      "stateMutability": "payable",
      "type": "function"
    },
    {
      "inputs": [],
      "payable": false,
      "stateMutability": "nonpayable",
      "type": "constructor"
    },
    {
      "anonymous": false,
      "inputs": [
        {
          "indexed": false,
          "name": "tokenId",
          "type": "uint256"
        },
        {
          "indexed": false,
          "name": "oldPrice",
          "type": "uint256"
        },
        {
          "indexed": false,
          "name": "prevOwner",
          "type": "address"
        },
        {
          "indexed": false,
          "name": "winner",
          "type": "address"
        }
      ],
      "name": "BuyToken",
      "type": "event"
    }
  ],
  "bytecode": "0x6060604052341561000f57600080fd5b60008054600160a060020a033316600160a060020a03199091161790556104178061003b6000396000f3006060604052600436106100325763ffffffff60e060020a6000350416633c6b9d8c8114610037578063efef39a114610066575b600080fd5b341561004257600080fd5b61004a610073565b604051600160a060020a03909116815260200160405180910390f35b610071600435610082565b005b600154600160a060020a031681565b60015460009081908190819081908190600160a060020a03166369b7ca85888360405160c0015260405160e060020a63ffffffff8416028152600481019190915260240160c060405180830381600087803b15156100df57600080fd5b6102c65a03f115156100f057600080fd5b50505060405180519060200180519060200180519060200180519060200180519060200180519b5090995050505033600160a060020a039081169089161415915061013c905057600080fd5b33600160a060020a0316151561015157600080fd5b348590101561015f57600080fd5b61017461016d86605d61038c565b60646103c2565b935061018034866103d9565b925061018c85856103d9565b915061019c61016d86607d61038c565b600154909150600160a060020a031663eb685c47888360405160e060020a63ffffffff851602815260048101929092526024820152604401600060405180830381600087803b15156101ed57600080fd5b6102c65a03f115156101fe57600080fd5b5050600154600160a060020a031690506323b872dd87338a60405160e060020a63ffffffff8616028152600160a060020a0393841660048201529190921660248201526044810191909152606401600060405180830381600087803b151561026557600080fd5b6102c65a03f1151561027657600080fd5b50505030600160a060020a031686600160a060020a03161415156102c557600160a060020a03861684156108fc0285604051600060405180830381858888f1935050505015156102c557600080fd5b600160a060020a03331683156108fc0284604051600060405180830381858888f1935050505015156102f657600080fd5b600054600160a060020a031682156108fc0283604051600060405180830381858888f19350505050151561032957600080fd5b7f4141150ed7d16fb9ef7d804930ab30a68ccbd8e90eb05c54f3c0f36d1f210789878688336040519384526020840192909252600160a060020a03908116604080850191909152911660608301526080909101905180910390a150505050505050565b60008083151561039f57600091506103bb565b508282028284828115156103af57fe5b04146103b757fe5b8091505b5092915050565b60008082848115156103d057fe5b04949350505050565b6000828211156103e557fe5b509003905600a165627a7a7230582000eff011ed9e4dcfad3349f4566d7391db56c2ec48b34f2adfcd0470b8548fb10029",
  "source": "pragma solidity ^0.4.18;\nimport \"./AccessAdmin.sol\";\nimport \"./SafeMath.sol\";\n\ninterface CaptainTokenInterface {\n  function getCaptainInfo(uint256 _tokenId) external view returns (\n    string name, \n    uint32 captainId,  \n    uint32 color, \n    uint32 attType, \n    uint256 price,\n    address owner\n  );\n  function transferFrom(address _from, address _to, uint256 _tokenId) external;\n  function setTokenPrice(uint256 _tokenId, uint256 _price) external;\n}\n  \ncontract CaptainSell {\n  using SafeMath for SafeMath;\n  address devAddress;\n  function CaptainSell() public {\n    devAddress = msg.sender;\n  }\n  CaptainTokenInterface public captains; \n  /// @dev The BuyToken event is fired whenever a token is sold.\n  event BuyToken(uint256 tokenId, uint256 oldPrice, address prevOwner, address winner);\n\n  // Allows someone to send ether and obtain the token\n  function purchase(uint256 _tokenId) external payable {\n    address curOwner;\n    uint256 curPrice;\n    (,,,,curPrice,curOwner) = captains.getCaptainInfo(_tokenId);\n    // Making sure token owner is not sending to self\n    require(curOwner != msg.sender);\n\n    // Safety check to prevent against an unexpected 0x0 default.\n    require(msg.sender != address(0));\n    \n    // Making sure sent amount is greater than or equal to the sellingPrice\n    require(msg.value >= curPrice);\n\n    uint256 payment = uint256(SafeMath.div(SafeMath.mul(curPrice, 93), 100));\n    uint256 purchaseExcess = SafeMath.sub(msg.value, curPrice); \n    uint256 commission = SafeMath.sub(curPrice,payment); \n    uint256 nextPrice = SafeMath.div(SafeMath.mul(curPrice, 125), 100);\n    \n    //update prices\n    //IndexToPrice[_tokenId] = nextPrice;\n    captains.setTokenPrice(_tokenId,nextPrice);\n    //_transfer(oldOwner, msg.sender, _tokenId);\n    captains.transferFrom(curOwner,msg.sender, _tokenId);\n\t\t// Pay previous tokenOwner if owner is not contract\n    if (curOwner != address(this)) {\n      curOwner.transfer(payment); //(1-0.07)\n    }\n\n    msg.sender.transfer(purchaseExcess);\n    devAddress.transfer(commission);\n    //event \n    BuyToken(_tokenId, curPrice,curOwner,msg.sender);\n  }\n}",
  "sourcePath": "/Users/xiaojingyu/Projects/BCProj/priate/contracts/CaptainSell.sol",
  "compiler": {
    "name": "solc",
    "version": "0.4.19+commit.c4cbbb05.Emscripten.clang"
  },
  "schemaVersion": "1.0.1",
  "updatedAt": "2018-06-02T08:20:29.081Z"
}