{
  "contractName": "CaptainToken",
  "abi": [
    {
      "constant": false,
      "inputs": [
        {
          "name": "_addr",
          "type": "address"
        },
        {
          "name": "_useful",
          "type": "bool"
        }
      ],
      "name": "setAdminContract",
      "outputs": [],
      "payable": false,
      "stateMutability": "nonpayable",
      "type": "function"
    },
    {
      "constant": false,
      "inputs": [],
      "name": "unpause",
      "outputs": [
        {
          "name": "",
          "type": "bool"
        }
      ],
      "payable": false,
      "stateMutability": "nonpayable",
      "type": "function"
    },
    {
      "constant": true,
      "inputs": [],
      "name": "paused",
      "outputs": [
        {
          "name": "",
          "type": "bool"
        }
      ],
      "payable": false,
      "stateMutability": "view",
      "type": "function"
    },
    {
      "constant": false,
      "inputs": [
        {
          "name": "_actionAddr",
          "type": "address"
        },
        {
          "name": "_useful",
          "type": "bool"
        }
      ],
      "name": "setActionContract",
      "outputs": [],
      "payable": false,
      "stateMutability": "nonpayable",
      "type": "function"
    },
    {
      "constant": false,
      "inputs": [],
      "name": "pause",
      "outputs": [
        {
          "name": "",
          "type": "bool"
        }
      ],
      "payable": false,
      "stateMutability": "nonpayable",
      "type": "function"
    },
    {
      "constant": true,
      "inputs": [
        {
          "name": "",
          "type": "uint256"
        }
      ],
      "name": "captainTokenIdToOwner",
      "outputs": [
        {
          "name": "",
          "type": "address"
        }
      ],
      "payable": false,
      "stateMutability": "view",
      "type": "function"
    },
    {
      "constant": true,
      "inputs": [],
      "name": "owner",
      "outputs": [
        {
          "name": "",
          "type": "address"
        }
      ],
      "payable": false,
      "stateMutability": "view",
      "type": "function"
    },
    {
      "constant": false,
      "inputs": [
        {
          "name": "newOwner",
          "type": "address"
        }
      ],
      "name": "transferOwnership",
      "outputs": [],
      "payable": false,
      "stateMutability": "nonpayable",
      "type": "function"
    },
    {
      "constant": true,
      "inputs": [
        {
          "name": "",
          "type": "uint256"
        }
      ],
      "name": "captains",
      "outputs": [
        {
          "name": "captainId",
          "type": "uint32"
        },
        {
          "name": "color",
          "type": "uint32"
        },
        {
          "name": "atk",
          "type": "uint32"
        },
        {
          "name": "defense",
          "type": "uint32"
        },
        {
          "name": "level",
          "type": "uint32"
        },
        {
          "name": "exp",
          "type": "uint256"
        }
      ],
      "payable": false,
      "stateMutability": "view",
      "type": "function"
    },
    {
      "inputs": [],
      "payable": false,
      "stateMutability": "nonpayable",
      "type": "constructor"
    },
    {
      "anonymous": false,
      "inputs": [
        {
          "indexed": false,
          "name": "tokenId",
          "type": "uint256"
        },
        {
          "indexed": false,
          "name": "captainId",
          "type": "uint32"
        },
        {
          "indexed": false,
          "name": "_owner",
          "type": "address"
        },
        {
          "indexed": false,
          "name": "_price",
          "type": "uint256"
        }
      ],
      "name": "CreateCaptain",
      "type": "event"
    },
    {
      "anonymous": false,
      "inputs": [
        {
          "indexed": true,
          "name": "_from",
          "type": "address"
        },
        {
          "indexed": true,
          "name": "_to",
          "type": "address"
        },
        {
          "indexed": false,
          "name": "_tokenId",
          "type": "uint256"
        }
      ],
      "name": "Transfer",
      "type": "event"
    },
    {
      "anonymous": false,
      "inputs": [
        {
          "indexed": true,
          "name": "_owner",
          "type": "address"
        },
        {
          "indexed": true,
          "name": "_approved",
          "type": "address"
        },
        {
          "indexed": false,
          "name": "_tokenId",
          "type": "uint256"
        }
      ],
      "name": "Approval",
      "type": "event"
    },
    {
      "anonymous": false,
      "inputs": [
        {
          "indexed": true,
          "name": "_owner",
          "type": "address"
        },
        {
          "indexed": true,
          "name": "_operator",
          "type": "address"
        },
        {
          "indexed": false,
          "name": "_approved",
          "type": "bool"
        }
      ],
      "name": "ApprovalForAll",
      "type": "event"
    },
    {
      "anonymous": false,
      "inputs": [],
      "name": "Pause",
      "type": "event"
    },
    {
      "anonymous": false,
      "inputs": [],
      "name": "Unpause",
      "type": "event"
    },
    {
      "anonymous": false,
      "inputs": [
        {
          "indexed": true,
          "name": "previousOwner",
          "type": "address"
        },
        {
          "indexed": true,
          "name": "newOwner",
          "type": "address"
        }
      ],
      "name": "OwnershipTransferred",
      "type": "event"
    },
    {
      "constant": false,
      "inputs": [
        {
          "name": "_owner",
          "type": "address"
        },
        {
          "name": "_price",
          "type": "uint256"
        },
        {
          "name": "_captainId",
          "type": "uint32"
        },
        {
          "name": "_color",
          "type": "uint32"
        },
        {
          "name": "_atk",
          "type": "uint32"
        },
        {
          "name": "_defense",
          "type": "uint32"
        },
        {
          "name": "_level",
          "type": "uint32"
        },
        {
          "name": "_exp",
          "type": "uint256"
        }
      ],
      "name": "CreateCaptainToken",
      "outputs": [],
      "payable": false,
      "stateMutability": "nonpayable",
      "type": "function"
    },
    {
      "constant": false,
      "inputs": [
        {
          "name": "_tokenId",
          "type": "uint256"
        },
        {
          "name": "_price",
          "type": "uint256"
        }
      ],
      "name": "setTokenPrice",
      "outputs": [],
      "payable": false,
      "stateMutability": "nonpayable",
      "type": "function"
    },
    {
      "constant": false,
      "inputs": [
        {
          "name": "_tokenId",
          "type": "uint256"
        },
        {
          "name": "fsell",
          "type": "bool"
        }
      ],
      "name": "setSelled",
      "outputs": [],
      "payable": false,
      "stateMutability": "nonpayable",
      "type": "function"
    },
    {
      "constant": true,
      "inputs": [
        {
          "name": "_tokenId",
          "type": "uint256"
        }
      ],
      "name": "getSelled",
      "outputs": [
        {
          "name": "",
          "type": "bool"
        }
      ],
      "payable": false,
      "stateMutability": "view",
      "type": "function"
    },
    {
      "constant": true,
      "inputs": [
        {
          "name": "_tokenId",
          "type": "uint256"
        }
      ],
      "name": "getCaptainInfo",
      "outputs": [
        {
          "name": "captainId",
          "type": "uint32"
        },
        {
          "name": "color",
          "type": "uint32"
        },
        {
          "name": "atk",
          "type": "uint32"
        },
        {
          "name": "defense",
          "type": "uint32"
        },
        {
          "name": "level",
          "type": "uint32"
        },
        {
          "name": "exp",
          "type": "uint256"
        },
        {
          "name": "price",
          "type": "uint256"
        },
        {
          "name": "owner",
          "type": "address"
        },
        {
          "name": "selled",
          "type": "bool"
        }
      ],
      "payable": false,
      "stateMutability": "view",
      "type": "function"
    },
    {
      "constant": false,
      "inputs": [
        {
          "name": "_tokenId",
          "type": "uint256"
        }
      ],
      "name": "LevelUp",
      "outputs": [],
      "payable": true,
      "stateMutability": "payable",
      "type": "function"
    },
    {
      "constant": true,
      "inputs": [
        {
          "name": "_level",
          "type": "uint32"
        }
      ],
      "name": "getCalLevel",
      "outputs": [
        {
          "name": "",
          "type": "uint32"
        }
      ],
      "payable": false,
      "stateMutability": "view",
      "type": "function"
    },
    {
      "constant": true,
      "inputs": [
        {
          "name": "_curPrice",
          "type": "uint256"
        },
        {
          "name": "_level",
          "type": "uint32"
        }
      ],
      "name": "getprice",
      "outputs": [
        {
          "name": "",
          "type": "uint256"
        }
      ],
      "payable": false,
      "stateMutability": "view",
      "type": "function"
    },
    {
      "constant": true,
      "inputs": [
        {
          "name": "_owner",
          "type": "address"
        }
      ],
      "name": "balanceOf",
      "outputs": [
        {
          "name": "",
          "type": "uint256"
        }
      ],
      "payable": false,
      "stateMutability": "view",
      "type": "function"
    },
    {
      "constant": true,
      "inputs": [
        {
          "name": "_tokenId",
          "type": "uint256"
        }
      ],
      "name": "ownerOf",
      "outputs": [
        {
          "name": "",
          "type": "address"
        }
      ],
      "payable": false,
      "stateMutability": "view",
      "type": "function"
    },
    {
      "constant": false,
      "inputs": [
        {
          "name": "_from",
          "type": "address"
        },
        {
          "name": "_to",
          "type": "address"
        },
        {
          "name": "_tokenId",
          "type": "uint256"
        },
        {
          "name": "data",
          "type": "bytes"
        }
      ],
      "name": "safeTransferFrom",
      "outputs": [],
      "payable": true,
      "stateMutability": "payable",
      "type": "function"
    },
    {
      "constant": false,
      "inputs": [
        {
          "name": "_from",
          "type": "address"
        },
        {
          "name": "_to",
          "type": "address"
        },
        {
          "name": "_tokenId",
          "type": "uint256"
        }
      ],
      "name": "safeTransferFrom",
      "outputs": [],
      "payable": true,
      "stateMutability": "payable",
      "type": "function"
    },
    {
      "constant": false,
      "inputs": [
        {
          "name": "_from",
          "type": "address"
        },
        {
          "name": "_to",
          "type": "address"
        },
        {
          "name": "_tokenId",
          "type": "uint256"
        }
      ],
      "name": "transferFrom",
      "outputs": [],
      "payable": true,
      "stateMutability": "payable",
      "type": "function"
    },
    {
      "constant": false,
      "inputs": [
        {
          "name": "_from",
          "type": "address"
        },
        {
          "name": "_to",
          "type": "address"
        },
        {
          "name": "_tokenId",
          "type": "uint256"
        }
      ],
      "name": "safeTransferByContract",
      "outputs": [],
      "payable": false,
      "stateMutability": "nonpayable",
      "type": "function"
    },
    {
      "constant": false,
      "inputs": [
        {
          "name": "_approved",
          "type": "address"
        },
        {
          "name": "_tokenId",
          "type": "uint256"
        }
      ],
      "name": "approve",
      "outputs": [],
      "payable": true,
      "stateMutability": "payable",
      "type": "function"
    },
    {
      "constant": false,
      "inputs": [
        {
          "name": "_operator",
          "type": "address"
        },
        {
          "name": "_approved",
          "type": "bool"
        }
      ],
      "name": "setApprovalForAll",
      "outputs": [],
      "payable": false,
      "stateMutability": "nonpayable",
      "type": "function"
    },
    {
      "constant": true,
      "inputs": [
        {
          "name": "_tokenId",
          "type": "uint256"
        }
      ],
      "name": "getApproved",
      "outputs": [
        {
          "name": "",
          "type": "address"
        }
      ],
      "payable": false,
      "stateMutability": "view",
      "type": "function"
    },
    {
      "constant": true,
      "inputs": [
        {
          "name": "_owner",
          "type": "address"
        },
        {
          "name": "_operator",
          "type": "address"
        }
      ],
      "name": "isApprovedForAll",
      "outputs": [
        {
          "name": "",
          "type": "bool"
        }
      ],
      "payable": false,
      "stateMutability": "view",
      "type": "function"
    },
    {
      "constant": true,
      "inputs": [],
      "name": "name",
      "outputs": [
        {
          "name": "",
          "type": "string"
        }
      ],
      "payable": false,
      "stateMutability": "pure",
      "type": "function"
    },
    {
      "constant": true,
      "inputs": [],
      "name": "symbol",
      "outputs": [
        {
          "name": "",
          "type": "string"
        }
      ],
      "payable": false,
      "stateMutability": "pure",
      "type": "function"
    },
    {
      "constant": true,
      "inputs": [],
      "name": "totalSupply",
      "outputs": [
        {
          "name": "",
          "type": "uint256"
        }
      ],
      "payable": false,
      "stateMutability": "view",
      "type": "function"
    },
    {
      "constant": true,
      "inputs": [
        {
          "name": "_index",
          "type": "uint256"
        }
      ],
      "name": "tokenByIndex",
      "outputs": [
        {
          "name": "",
          "type": "uint256"
        }
      ],
      "payable": false,
      "stateMutability": "view",
      "type": "function"
    },
    {
      "constant": true,
      "inputs": [
        {
          "name": "_owner",
          "type": "address"
        },
        {
          "name": "_index",
          "type": "uint256"
        }
      ],
      "name": "tokenOfOwnerByIndex",
      "outputs": [
        {
          "name": "",
          "type": "uint256"
        }
      ],
      "payable": false,
      "stateMutability": "view",
      "type": "function"
    },
    {
      "constant": true,
      "inputs": [
        {
          "name": "_owner",
          "type": "address"
        }
      ],
      "name": "tokensOfOwner",
      "outputs": [
        {
          "name": "",
          "type": "uint256[]"
        },
        {
          "name": "",
          "type": "uint32[]"
        }
      ],
      "payable": false,
      "stateMutability": "view",
      "type": "function"
    },
    {
      "constant": true,
      "inputs": [
        {
          "name": "_captainId",
          "type": "uint32"
        }
      ],
      "name": "tokensOfCaptain",
      "outputs": [
        {
          "name": "captainTokens",
          "type": "uint256[]"
        }
      ],
      "payable": false,
      "stateMutability": "view",
      "type": "function"
    }
  ],
  "bytecode": "0x60606040526000805460a060020a60ff021916905534156200002057600080fd5b60008054600160a060020a03191633600160a060020a031617905560058054600101906200004f908262000354565b506200006b33600164010000000062000867620002a482021704565b6200008633600164010000000062000e9c6200030182021704565b6103207fa15bc60c955c405d20d9149c709e2460f1c2d9a497496a7f46004d1772c3054c556106407fc3a24b0501bd2c13a7e57f2db4369ec4c223447539fc0724a9d55ac4a06ebd4d556109c47fcbc4e5fb02c3d1de23a9f1e014b4d2ee5aeaea9505df5e855c9210bf472495af55610dac7f83ec6a1f0257b830b5e016457c9cf1435391bf56cc98f369a58a54fe93772465556117707f405aad32e1adbac89bb7f176e338b8fc6e994ca210c9bb7bdca249b465942250556127107fc69056f16cbaa3c616b828e333ab7d3a32310765507f8f58359e99ebb7a885f35560046020527fabd6e7cb50984ff9c2f3e18a2660c3353dadf4e3291deeb275dae2cd1e44fe05805463ffffffff199081166005179091557f91da3fd0782e51c6b3986e9e672fd566868e71f3dbc2d6c2cd6fbb3e361af2a78054821660079081179091557f2e174c10e159ea99b867ce3205125c24a42d128804e4070ed6fcc8cc98166aa08054831660091790557f1a1e6821cde7d0159c0d293177871e09677b4e42307c7db3ba94f8648a5a050f80548316600b1790557f04cde762ef08b6b6c5ded8e8c4c0b3f4e5c9ad7342c88fcc93681b4588b73f0580548316600d1790557fc59312466997bb42aaaf719ece141047820e6b34531e1670dc1852a453648f0f80548316600f1790556000527fbeb3bad75134cb432e5707980e3245c52c5998a1125ee30f2f0dbf3925b1e55180549091166014179055620003bd565b60005433600160a060020a03908116911614620002c057600080fd5b600160a060020a0382161515620002d657600080fd5b600160a060020a03919091166000908152600160205260409020805460ff1916911515919091179055565b600160a060020a03331660009081526001602052604090205460ff1615156200032957600080fd5b600160a060020a03919091166000908152600260205260409020805460ff1916911515919091179055565b815481835581811511620003835760020281600202836000526020600020918201910162000383919062000388565b505050565b620003ba91905b80821115620003b6578054600160a060020a0319168155600060018201556002016200038f565b5090565b90565b611e2180620003cd6000396000f3006060604052600436106101ab5763ffffffff7c010000000000000000000000000000000000000000000000000000000060003504166306fdde0381146101b0578063081812fc1461023a5780630865dadc1461026c578063095ea7b31461029257806318160ddd146102a957806323b872dd146102ce5780632f745c59146102eb5780633f4ba83a1461030d57806342842e0e14610334578063499db180146103515780634f6ccce7146103865780635c975abb1461039c5780636352211e146103af57806369b7ca85146103c55780636a1b6f911461043e5780636aaacb3f146104495780636fb642de1461048f57806370a08231146104b35780638456cb59146104d25780638462151c146104e557806386b259f51461059d5780638da5cb5b146105b3578063916f7c23146105c657806395d89b41146105e1578063a22cb465146105f4578063b88d4fde14610618578063d43262b214610644578063e985e9c514610663578063eb685c4714610688578063ecc4a6c2146106a1578063ee992fd8146106b7578063f2fde38b14610726578063f412511e14610745578063fbeecb471461079c575b600080fd5b34156101bb57600080fd5b6101c36107c4565b60405160208082528190810183818151815260200191508051906020019080838360005b838110156101ff5780820151838201526020016101e7565b50505050905090810190601f16801561022c5780820380516001836020036101000a031916815260200191505b509250505060405180910390f35b341561024557600080fd5b610250600435610806565b604051600160a060020a03909116815260200160405180910390f35b341561027757600080fd5b610290600160a060020a03600435166024351515610867565b005b610290600160a060020a03600435166024356108c2565b34156102b457600080fd5b6102bc6109c7565b60405190815260200160405180910390f35b610290600160a060020a03600435811690602435166044356109d5565b34156102f657600080fd5b6102bc600160a060020a0360043516602435610ae5565b341561031857600080fd5b610320610b57565b604051901515815260200160405180910390f35b610290600160a060020a0360043581169060243516604435610bdb565b341561035c57600080fd5b61036d63ffffffff60043516610bfa565b60405163ffffffff909116815260200160405180910390f35b341561039157600080fd5b6102bc600435610c15565b34156103a757600080fd5b610320610c2f565b34156103ba57600080fd5b610250600435610c3f565b34156103d057600080fd5b6103db600435610c5a565b60405163ffffffff998a1681529789166020890152958816604080890191909152948816606088015292909616608086015260a085015260c0840194909452600160a060020a0390931660e0830152151561010082015261012001905180910390f35b610290600435610d72565b341561045457600080fd5b610290600160a060020a036004351660243563ffffffff60443581169060643581169060843581169060a43581169060c4351660e435610e5b565b341561049a57600080fd5b610290600160a060020a03600435166024351515610e9c565b34156104be57600080fd5b6102bc600160a060020a0360043516610eee565b34156104dd57600080fd5b610320610f21565b34156104f057600080fd5b610504600160a060020a0360043516610faa565b604051808060200180602001838103835285818151815260200191508051906020019060200280838360005b83811015610548578082015183820152602001610530565b50505050905001838103825284818151815260200191508051906020019060200280838360005b8381101561058757808201518382015260200161056f565b5050505090500194505050505060405180910390f35b34156105a857600080fd5b610250600435611114565b34156105be57600080fd5b61025061112f565b34156105d157600080fd5b610290600435602435151561113e565b34156105ec57600080fd5b6101c3611185565b34156105ff57600080fd5b610290600160a060020a036004351660243515156111c6565b610290600160a060020a036004803582169160248035909116916044359160643590810191013561124d565b341561064f57600080fd5b6102bc60043563ffffffff6024351661128f565b341561066e57600080fd5b610320600160a060020a03600435811690602435166112d2565b341561069357600080fd5b610290600435602435611300565b34156106ac57600080fd5b610320600435611339565b34156106c257600080fd5b6106d363ffffffff6004351661134e565b60405160208082528190810183818151815260200191508051906020019060200280838360005b838110156107125780820151838201526020016106fa565b505050509050019250505060405180910390f35b341561073157600080fd5b610290600160a060020a036004351661143a565b341561075057600080fd5b61075b6004356114d5565b60405163ffffffff968716815294861660208601529285166040808601919091529185166060850152909316608083015260a082015260c001905180910390f35b34156107a757600080fd5b610290600160a060020a036004358116906024351660443561154e565b6107cc611d0c565b60408051908101604052601581527f50697261746520436f6e717565737420546f6b656e0000000000000000000000602082015290505b90565b6000816001811015801561081c57506005548111155b151561082757600080fd5b600081815260066020526040902054600160a060020a0316151561084a57600080fd5b50506000908152600c6020526040902054600160a060020a031690565b60005433600160a060020a0390811691161461088257600080fd5b600160a060020a038216151561089757600080fd5b600160a060020a03919091166000908152600160205260409020805460ff1916911515919091179055565b6000805460a060020a900460ff16156108da57600080fd5b50600081815260066020526040902054600160a060020a03168015156108ff57600080fd5b80600160a060020a031633600160a060020a031614806109455750600160a060020a038082166000908152600d60209081526040808320339094168352929052205460ff165b151561095057600080fd5b6000828152600c602052604090819020805473ffffffffffffffffffffffffffffffffffffffff1916600160a060020a0386811691821790925591908316907f8c5be1e5ebec7d5bd14f71427d1e84f3dd0314c0f7b2291e5b200ac8c7c3b9259085905190815260200160405180910390a3505050565b600f54600554036000190190565b6000805460a060020a900460ff16156109ed57600080fd5b8160018110158015610a0157506005548111155b1515610a0c57600080fd5b600081815260066020526040902054600160a060020a03161515610a2f57600080fd5b600083815260066020526040902054839033600160a060020a0390811691161480610a7457506000818152600c602052604090205433600160a060020a039081169116145b1515610a7f57600080fd5b600084815260066020526040902054600160a060020a03169250821515610aa557600080fd5b600160a060020a0383811690871614610abd57600080fd5b600160a060020a0385161515610ad257600080fd5b610add868686611627565b505050505050565b600160a060020a03821660009081526008602052604081205481908310610b0b57600080fd5b600160a060020a03841615610b5057600160a060020a0384166000908152600860205260409020805484908110610b3e57fe5b90600052602060002090015490508091505b5092915050565b6000805433600160a060020a03908116911614610b7357600080fd5b60005460a060020a900460ff161515610b8b57600080fd5b6000805474ff0000000000000000000000000000000000000000191690557f7805862f689e2f13df9f062ff482ad3ad112aca9e0847911ed832e158c525b3360405160405180910390a150600190565b610bf5838383602060405190810160405260008152611824565b505050565b63ffffffff9081166000908152600460205260409020541690565b600f5460055460009190038210610c2b57600080fd5b5090565b60005460a060020a900460ff1681565b600090815260066020526040902054600160a060020a031690565b60008060008060008060008060008060058b815481101515610c7857fe5b906000526020600020906002020190508060000160009054906101000a900463ffffffff1699508060000160049054906101000a900463ffffffff1698508060000160089054906101000a900463ffffffff16975080600001600c9054906101000a900463ffffffff1696508060000160109054906101000a900463ffffffff16955080600101549450600960008c8152602001908152602001600020549350600660008c815260200190815260200160002060009054906101000a9004600160a060020a03169250600e60008c815260200190815260200160002060009054906101000a900460ff169150509193959799909294969850565b60008181526006602052604081205433600160a060020a03908116911614610d9957600080fd5b6005805483908110610da757fe5b600091825260208083206002909202909101805463ffffffff70010000000000000000000000000000000090910416835260039091526040909120546001820154919250901115610df757600080fd5b6005805483908110610e0557fe5b600091825260209091206002909102018054600163ffffffff700100000000000000000000000000000000808404821692909201160273ffffffff00000000000000000000000000000000199091161790555050565b600160a060020a03331660009081526002602052604090205460ff161515610e8257600080fd5b610e928888888888888888611a76565b5050505050505050565b600160a060020a03331660009081526001602052604090205460ff161515610ec357600080fd5b600160a060020a03919091166000908152600260205260409020805460ff1916911515919091179055565b6000600160a060020a0382161515610f0557600080fd5b50600160a060020a031660009081526008602052604090205490565b6000805433600160a060020a03908116911614610f3d57600080fd5b60005460a060020a900460ff1615610f5457600080fd5b6000805474ff0000000000000000000000000000000000000000191660a060020a1790557f6985a02210a168e66602d3235cb6db0e70f92b3ba4d376a33c0f3d9434bff62560405160405180910390a150600190565b610fb2611d0c565b610fba611d0c565b6000610fc4611d0c565b610fcc611d0c565b600160a060020a0386166000908152600860205260408082205494508190859051805910610ff75750595b90808252806020026020018201604052509350846040518059106110185750595b90808252806020026020018201604052509250600160a060020a03881615611107575060005b8481101561110757600160a060020a038816600090815260086020526040902080548390811061106a57fe5b90600052602060002090015484828151811061108257fe5b6020908102909101810191909152600160a060020a03891660009081526008909152604081208054600b929190859081106110b957fe5b6000918252602080832090910154835282019290925260400190205463ffffffff168382815181106110e757fe5b63ffffffff9092166020928302909101909101526001918201910161103e565b5091969095509350505050565b600660205260009081526040902054600160a060020a031681565b600054600160a060020a031681565b600160a060020a03331660009081526002602052604090205460ff16151561116557600080fd5b6000918252600e6020526040909120805460ff1916911515919091179055565b61118d611d0c565b60408051908101604052600381527f50435400000000000000000000000000000000000000000000000000000000006020820152905090565b60005460a060020a900460ff16156111dd57600080fd5b33600160a060020a039081166000818152600d602090815260408083209487168084529490915290819020805460ff19168515151790557f17307eab39ab6107e8899845ad3d59bd9653f200f220920489ca2b5937696c3190849051901515815260200160405180910390a35050565b61128885858585858080601f016020809104026020016040519081016040528181529291906020840183838082843750611824945050505050565b5050505050565b63ffffffff80821660009081526004602052604081205490916112cb916112c49186916112bf9160649116611cbb565b611cca565b6064611cf5565b9392505050565b600160a060020a039182166000908152600d6020908152604080832093909416825291909152205460ff1690565b600160a060020a03331660009081526002602052604090205460ff16151561132757600080fd5b60009182526009602052604090912055565b6000908152600e602052604090205460ff1690565b611356611d0c565b6000611360611d0c565b63ffffffff84166000908152600a6020526040812054925080808415156113a85760006040518059106113905750595b90808252806020026020018201604052509550611430565b846040518059106113b65750595b9080825280602002602001820160405250600f546005549195506000199103019250600091508190505b82811161142c576000818152600b602052604090205463ffffffff88811691161415611424578084838151811061141357fe5b602090810290910101526001909101905b6001016113e0565b8395505b5050505050919050565b60005433600160a060020a0390811691161461145557600080fd5b600160a060020a038116151561146a57600080fd5b600054600160a060020a0380831691167f8be0079c531659141344cd1fd0a4f28419497f9722a3daafe3b4186f6b6457e060405160405180910390a36000805473ffffffffffffffffffffffffffffffffffffffff1916600160a060020a0392909216919091179055565b60058054829081106114e357fe5b60009182526020909120600290910201805460019091015463ffffffff808316935064010000000083048116926801000000000000000081048216926c0100000000000000000000000082048316927001000000000000000000000000000000009092049091169086565b6000805460a060020a900460ff161561156657600080fd5b600160a060020a03331660009081526002602052604090205460ff16151561158d57600080fd5b600182101580156115a057506005548211155b15156115ab57600080fd5b50600081815260066020526040902054600160a060020a03168015156115d057600080fd5b600160a060020a03831615156115e557600080fd5b600160a060020a0381811690841614156115fe57600080fd5b600160a060020a038481169082161461161657600080fd5b611621818484611627565b50505050565b60008080600160a060020a0386161561173f57600084815260076020908152604080832054600160a060020a038a168452600890925290912080549194509250849083908590811061167557fe5b6000918252602090912001541461168b57600080fd5b81546000190183146116e7578154829060001981019081106116a957fe5b90600052602060002090015490508082848154811015156116c657fe5b60009182526020808320909101929092558281526007909152604090208390555b8154600019016116f78382611d1e565b506000848152600c6020526040902054600160a060020a03161561173f576000848152600c60205260409020805473ffffffffffffffffffffffffffffffffffffffff191690555b6000848152600660209081526040808320805473ffffffffffffffffffffffffffffffffffffffff1916600160a060020a038a169081179091558352600890915290208054600181016117928382611d1e565b506000918252602080832091909101869055600160a060020a03808816808452600883526040808520548986526007909452909320600019909201909155871615156117de57306117e0565b865b600160a060020a03167fddf252ad1be2c89b69c2b068fc378daa952ba7f163c4a11628f55a4df523b3ef8660405190815260200160405180910390a3505050505050565b600080836001811015801561183b57506005548111155b151561184657600080fd5b600081815260066020526040902054600160a060020a0316151561186957600080fd5b600085815260066020526040902054859033600160a060020a03908116911614806118ae57506000818152600c602052604090205433600160a060020a039081169116145b15156118b957600080fd5b600086815260066020526040902054600160a060020a0316935083158015906118f3575087600160a060020a031684600160a060020a0316145b15156118fe57600080fd5b600160a060020a038716151561191357600080fd5b61191e888888611627565b86600160a060020a031663f0b9e5ba8988886000604051602001526040518463ffffffff167c01000000000000000000000000000000000000000000000000000000000281526004018084600160a060020a0316600160a060020a0316815260200183815260200180602001828103825283818151815260200191508051906020019080838360005b838110156119bf5780820151838201526020016119a7565b50505050905090810190601f1680156119ec5780820380516001836020036101000a031916815260200191505b50945050505050602060405180830381600087803b1515611a0c57600080fd5b6102c65a03f11515611a1d57600080fd5b50505060405180519350507ff0b9e5ba000000000000000000000000000000000000000000000000000000007fffffffff00000000000000000000000000000000000000000000000000000000841614610e9257600080fd5b6000611a80611d42565b600554915060c0604051908101604052808963ffffffff1681526020018863ffffffff1681526020018763ffffffff1681526020018663ffffffff1681526020018563ffffffff16815260200184815250905060058054806001018281611ae79190611d77565b600092835260209092208391600202018151815463ffffffff191663ffffffff919091161781556020820151815463ffffffff919091166401000000000267ffffffff00000000199091161781556040820151815463ffffffff9190911668010000000000000000026bffffffff0000000000000000199091161781556060820151815463ffffffff919091166c01000000000000000000000000026fffffffff000000000000000000000000199091161781556080820151815463ffffffff919091167001000000000000000000000000000000000273ffffffff000000000000000000000000000000001990911617815560a082015181600101555050507fe1ea955b818ed7aa04751f4187794a758e077e289195544fd00ef49de3df5a7582898c8c60405193845263ffffffff9092166020840152600160a060020a031660408084019190915260608301919091526080909101905180910390a160008281526009602090815260408083208c9055600b8252808320805463ffffffff191663ffffffff8d169081179091558352600a909152902054611c8b906001611cbb565b63ffffffff89166000908152600a6020526040812091909155611caf908b84611627565b50505050505050505050565b6000828201838110156112cb57fe5b600080831515611cdd5760009150610b50565b50828202828482811515611ced57fe5b04146112cb57fe5b6000808284811515611d0357fe5b04949350505050565b60206040519081016040526000815290565b815481835581811511610bf557600083815260209020610bf5918101908301611da3565b60c06040519081016040908152600080835260208301819052908201819052606082018190526080820181905260a082015290565b815481835581811511610bf557600202816002028360005260206000209182019101610bf59190611dbd565b61080391905b80821115610c2b5760008155600101611da9565b61080391905b80821115610c2b57805473ffffffffffffffffffffffffffffffffffffffff1916815560006001820155600201611dc35600a165627a7a723058208100f64c238a3799b0e375096ff70d649d70d7a412aca76339725512d51da67b0029",
  "source": "pragma solidity ^0.4.18;\nimport \"./AccessAdmin.sol\";\nimport \"./SafeMath.sol\";\nimport \"./ERC721.sol\";\n\ncontract CaptainToken is AccessAdmin, ERC721 {\n  using SafeMath for SafeMath;\n  //event \n  event CreateCaptain(uint tokenId,uint32 captainId, address _owner, uint256 _price);\n  //ERC721\n  event Transfer(address indexed _from, address indexed _to, uint256 _tokenId);\n  event Approval(address indexed _owner, address indexed _approved, uint256 _tokenId);\n  event ApprovalForAll(address indexed _owner, address indexed _operator, bool _approved);\n\n  struct Captain {\n    uint32 captainId;  \n    uint32 color; // 1,2,3,4  \n    uint32 atk; \n    uint32 defense;\n    uint32 level;\n    uint256 exp;\n  }\n  mapping (uint32 => uint256) levelupexp;\n  mapping(uint32 => uint32) private callevel;\n\n  Captain[] public captains; //dynamic Array\n  function CaptainToken() public {\n    captains.length += 1;\n    setAdminContract(msg.sender,true);\n    setActionContract(msg.sender,true);\n\n    levelupexp[1] = 800;\n    levelupexp[2] = 1600;\n    levelupexp[3] = 2500;\n    levelupexp[4] = 3500;\n    levelupexp[5] = 6000;\n    levelupexp[6] = 10000;\n\n    callevel[1] = 5;\n    callevel[2] = 7;\n    callevel[3] = 9;\n    callevel[4] = 11;\n    callevel[5] = 13;\n    callevel[6] = 15;\n    callevel[7] = 20;\n  }\n\n  /**MAPPING**/\n  /// @dev tokenId to owner  tokenId -> address\n  mapping (uint256 => address) public captainTokenIdToOwner;\n  /// @dev Equipment token ID search in owner array captainId -> tokenId\n  mapping (uint256 => uint256) captainIdToOwnerIndex;  \n  /// @dev captains owner by the owner (array)\n  mapping (address => uint256[]) ownerToCaptainArray;\n  /// @dev price of each token\n  mapping (uint256 => uint256) captainTokenIdToPrice;\n  /// @dev token count of captain\n  mapping (uint32 => uint256) tokenCountOfCaptain;\n  /// @dev tokens by the captain\n  mapping (uint256 => uint32) IndexToCaptain;\n  /// @dev The authorized address for each Captain\n  mapping (uint256 => address) captainTokenIdToApprovals;\n  /// @dev The authorized operators for each address\n  mapping (address => mapping (address => bool)) operatorToApprovals;\n  mapping(uint256 => bool) tokenToSell;\n  \n\n  /*** CONSTRUCTOR ***/\n  /// @dev Amount of tokens destroyed\n  uint256 destroyCaptainCount;\n  \n  // modifier\n  /// @dev Check if token ID is valid\n  modifier isValidToken(uint256 _tokenId) {\n    require(_tokenId >= 1 && _tokenId <= captains.length);\n    require(captainTokenIdToOwner[_tokenId] != address(0)); \n    _;\n  }\n  modifier canTransfer(uint256 _tokenId) {\n    require(msg.sender == captainTokenIdToOwner[_tokenId] || msg.sender == captainTokenIdToApprovals[_tokenId]);\n    _;\n  }\n  /// @dev Creates a new Captain with the given name.\n  function CreateCaptainToken(address _owner,uint256 _price, uint32 _captainId, uint32 _color,uint32 _atk,uint32 _defense,uint32 _level,uint256 _exp) public onlyAccess {\n    _createCaptainToken(_owner,_price,_captainId,_color,_atk,_defense,_level,_exp);\n  }\n\n    /// For creating CaptainToken\n  function _createCaptainToken(address _owner, uint256 _price, uint32 _captainId, uint32 _color, uint32 _atk, uint32 _defense,uint32 _level,uint256 _exp) \n  internal {\n    uint256 newTokenId = captains.length;\n    Captain memory _captain = Captain({\n      captainId: _captainId,\n      color: _color,\n      atk: _atk,\n      defense: _defense,\n      level: _level,\n      exp: _exp \n    });\n    captains.push(_captain);\n    //event\n    CreateCaptain(newTokenId, _captainId, _owner, _price);\n    captainTokenIdToPrice[newTokenId] = _price;\n    IndexToCaptain[newTokenId] = _captainId;\n    tokenCountOfCaptain[_captainId] = SafeMath.add(tokenCountOfCaptain[_captainId],1);\n    // This will assign ownership, and also emit the Transfer event as\n    // per ERC721 draft\n    _transfer(address(0), _owner, newTokenId);\n  } \n  /// @dev set the token price\n  function setTokenPrice(uint256 _tokenId, uint256 _price) external {\n    require(actionContracts[msg.sender]);\n    captainTokenIdToPrice[_tokenId] = _price;\n  }\n  /// @dev set sellable\n\n  function setSelled(uint256 _tokenId, bool fsell) external {\n    require(actionContracts[msg.sender]);\n    tokenToSell[_tokenId] = fsell;\n  }\n\n  function getSelled(uint256 _tokenId) external view returns (bool) {\n    return tokenToSell[_tokenId];\n  }\n  /// @dev Do the real transfer with out any condition checking\n  /// @param _from The old owner of this Captain(If created: 0x0)\n  /// @param _to The new owner of this Captain \n  /// @param _tokenId The tokenId of the Captain\n  function _transfer(address _from, address _to, uint256 _tokenId) internal {\n    if (_from != address(0)) {\n      uint256 indexFrom = captainIdToOwnerIndex[_tokenId];  // tokenId -> captainId\n      uint256[] storage cpArray = ownerToCaptainArray[_from];\n      require(cpArray[indexFrom] == _tokenId);\n\n      // If the Captain is not the element of array, change it to with the last\n      if (indexFrom != cpArray.length - 1) {\n        uint256 lastTokenId = cpArray[cpArray.length - 1];\n        cpArray[indexFrom] = lastTokenId; \n        captainIdToOwnerIndex[lastTokenId] = indexFrom;\n      }\n      cpArray.length -= 1; \n    \n      if (captainTokenIdToApprovals[_tokenId] != address(0)) {\n        delete captainTokenIdToApprovals[_tokenId];\n      }      \n    }\n\n    // Give the Captain to '_to'\n    captainTokenIdToOwner[_tokenId] = _to;\n    ownerToCaptainArray[_to].push(_tokenId);\n    captainIdToOwnerIndex[_tokenId] = ownerToCaptainArray[_to].length - 1;\n        \n    Transfer(_from != address(0) ? _from : this, _to, _tokenId);\n  }\n\n\n  /// @notice Returns all the relevant information about a specific tokenId.\n  /// @param _tokenId The tokenId of the captain\n  function getCaptainInfo(uint256 _tokenId) external view returns (\n    uint32 captainId,  \n    uint32 color, \n    uint32 atk,\n    uint32 defense,\n    uint32 level,\n    uint256 exp, \n    uint256 price,\n    address owner,\n    bool selled\n  ) {\n    Captain storage captain = captains[_tokenId];\n    captainId = captain.captainId;\n    color = captain.color;\n    atk = captain.atk;\n    defense = captain.defense;\n    level = captain.level;\n    exp = captain.exp;\n    price = captainTokenIdToPrice[_tokenId];\n    owner = captainTokenIdToOwner[_tokenId];\n    selled = tokenToSell[_tokenId];\n  }\n  /// @dev levelUp \n  function LevelUp(uint256 _tokenId) external payable {\n    require(msg.sender == captainTokenIdToOwner[_tokenId]);\n    Captain storage captain = captains[_tokenId];\n    require(captain.exp<=levelupexp[captain.level]);\n    captains[_tokenId].level++;\n  }\n  \n  function getCalLevel(uint32 _level) external constant returns (uint32) {\n    return callevel[_level];\n  }\n\n  function getprice(uint256 _curPrice,uint32 _level) external view returns(uint256) {\n    return SafeMath.div(SafeMath.mul(_curPrice,SafeMath.add(100,callevel[_level])),100);\n  }\n\n  /// ERC721 \n\n  function balanceOf(address _owner) external view returns (uint256) {\n    require(_owner != address(0));\n    return ownerToCaptainArray[_owner].length;\n  }\n\n  function ownerOf(uint256 _tokenId) external view returns (address) {\n    return captainTokenIdToOwner[_tokenId];\n  }\n  function safeTransferFrom(address _from, address _to, uint256 _tokenId, bytes data) external payable {\n    _safeTransferFrom(_from, _to, _tokenId, data);\n  }\n  function safeTransferFrom(address _from, address _to, uint256 _tokenId) external payable {\n    _safeTransferFrom(_from, _to, _tokenId, \"\");\n  }\n\n  /// @dev Actually perform the safeTransferFrom\n  function _safeTransferFrom(address _from, address _to, uint256 _tokenId, bytes data) \n    internal\n    isValidToken(_tokenId) \n    canTransfer(_tokenId)\n    {\n    address owner = captainTokenIdToOwner[_tokenId];\n    require(owner != address(0) && owner == _from);\n    require(_to != address(0));\n        \n    _transfer(_from, _to, _tokenId);\n\n    // Do the callback after everything is done to avoid reentrancy attack\n    /*uint256 codeSize;\n    assembly { codeSize := extcodesize(_to) }\n    if (codeSize == 0) {\n      return;\n    }*/\n    bytes4 retval = ERC721TokenReceiver(_to).onERC721Received(_from, _tokenId, data);\n    // bytes4(keccak256(\"onERC721Received(address,uint256,bytes)\")) = 0xf0b9e5ba;\n    require(retval == 0xf0b9e5ba);\n  }\n    \n  /// @dev Transfer ownership of an Captain, '_to' must be a vaild address, or the WAR will lost\n  /// @param _from The current owner of the Captain\n  /// @param _to The new owner\n  /// @param _tokenId The Captain to transfer\n  function transferFrom(address _from, address _to, uint256 _tokenId)\n        external\n        whenNotPaused\n        isValidToken(_tokenId)\n        canTransfer(_tokenId)\n        payable\n    {\n    address owner = captainTokenIdToOwner[_tokenId];\n    require(owner != address(0));\n    require(owner == _from);\n    require(_to != address(0));\n        \n    _transfer(_from, _to, _tokenId);\n  }\n\n  /// @dev Safe transfer by trust contracts\n  function safeTransferByContract(address _from,address _to, uint256 _tokenId) \n  external\n  whenNotPaused\n  {\n    require(actionContracts[msg.sender]);\n\n    require(_tokenId >= 1 && _tokenId <= captains.length);\n    address owner = captainTokenIdToOwner[_tokenId];\n    require(owner != address(0));\n    require(_to != address(0));\n    require(owner != _to);\n    require(_from == owner);\n\n    _transfer(owner, _to, _tokenId);\n  }\n\n  /// @dev Set or reaffirm the approved address for an captain\n  /// @param _approved The new approved captain controller\n  /// @param _tokenId The captain to approve\n  function approve(address _approved, uint256 _tokenId)\n    external\n    whenNotPaused \n    payable\n  {\n    address owner = captainTokenIdToOwner[_tokenId];\n    require(owner != address(0));\n    require(msg.sender == owner || operatorToApprovals[owner][msg.sender]);\n\n    captainTokenIdToApprovals[_tokenId] = _approved;\n    Approval(owner, _approved, _tokenId);\n  }\n\n  /// @dev Enable or disable approval for a third party (\"operator\") to manage all your asset.\n  /// @param _operator Address to add to the set of authorized operators.\n  /// @param _approved True if the operators is approved, false to revoke approval\n  function setApprovalForAll(address _operator, bool _approved) \n    external \n    whenNotPaused\n  {\n    operatorToApprovals[msg.sender][_operator] = _approved;\n    ApprovalForAll(msg.sender, _operator, _approved);\n  }\n\n  /// @dev Get the approved address for a single Captain\n  /// @param _tokenId The WAR to find the approved address for\n  /// @return The approved address for this WAR, or the zero address if there is none\n  function getApproved(uint256 _tokenId) external view isValidToken(_tokenId) returns (address) {\n    return captainTokenIdToApprovals[_tokenId];\n  }\n  \n  /// @dev Query if an address is an authorized operator for another address\n  /// @param _owner The address that owns the WARs\n  /// @param _operator The address that acts on behalf of the owner\n  /// @return True if `_operator` is an approved operator for `_owner`, false otherwise\n  function isApprovedForAll(address _owner, address _operator) external view returns (bool) {\n    return operatorToApprovals[_owner][_operator];\n  }\n  /// @notice A descriptive name for a collection of NFTs in this contract\n  function name() public pure returns(string) {\n    return \"Pirate Conquest Token\";\n  }\n  /// @notice An abbreviated name for NFTs in this contract\n  function symbol() public pure returns(string) {\n    return \"PCT\";\n  }\n  /// @notice A distinct Uniform Resource Identifier (URI) for a given asset.\n  /// @dev Throws if `_tokenId` is not a valid NFT. URIs are defined in RFC\n  ///  3986. The URI may point to a JSON file that conforms to the \"ERC721\n  ///  Metadata JSON Schema\".\n  //function tokenURI(uint256 _tokenId) external view returns (string);\n\n  /// @notice Count NFTs tracked by this contract\n  /// @return A count of valid NFTs tracked by this contract, where each one of\n  ///  them has an assigned and queryable owner not equal to the zero address\n  function totalSupply() external view returns (uint256) {\n    return captains.length - destroyCaptainCount -1;\n  }\n  /// @notice Enumerate valid NFTs\n  /// @dev Throws if `_index` >= `totalSupply()`.\n  /// @param _index A counter less than `totalSupply()`\n  /// @return The token identifier for the `_index`th NFT,\n  ///  (sort order not specified)\n  function tokenByIndex(uint256 _index) external view returns (uint256) {\n    require(_index<(captains.length - destroyCaptainCount));\n    //return captainIdToOwnerIndex[_index];\n    return _index;\n  }\n  /// @notice Enumerate NFTs assigned to an owner\n  /// @dev Throws if `_index` >= `balanceOf(_owner)` or if\n  ///  `_owner` is the zero address, representing invalid NFTs.\n  /// @param _owner An address where we are interested in NFTs owned by them\n  /// @param _index A counter less than `balanceOf(_owner)`\n  /// @return The token identifier for the `_index`th NFT assigned to `_owner`,\n  ///   (sort order not specified)\n  function tokenOfOwnerByIndex(address _owner, uint256 _index) external view returns (uint256) {\n    require(_index < ownerToCaptainArray[_owner].length);\n    if (_owner != address(0)) {\n      uint256 tokenId = ownerToCaptainArray[_owner][_index];\n      return tokenId;\n    }\n  }\n\n  /// @param _owner The owner whose celebrity tokens we are interested in.\n  /// @dev This method MUST NEVER be called by smart contract code. First, it's fairly\n  ///  expensive (it walks the entire Persons array looking for persons belonging to owner),\n  ///  but it also returns a dynamic array, which is only supported for web3 calls, and\n  ///  not contract-to-contract calls.\n  function tokensOfOwner(address _owner) external view returns (uint256[],uint32[]) {\n    uint256 len = ownerToCaptainArray[_owner].length;\n    uint256[] memory tokens = new uint256[](len);\n    uint32[] memory captainss = new uint32[](len);\n    uint256 icount;\n    if (_owner != address(0)) {\n      for (uint256 i=0;i<len;i++) {\n        tokens[i] = ownerToCaptainArray[_owner][icount];\n        captainss[i] = IndexToCaptain[ownerToCaptainArray[_owner][icount]];\n        icount++;\n      }\n    }\n    return (tokens,captainss);\n  }\n\n  /// @param _captainId The captain whose celebrity tokens we are interested in.\n  /// @dev This method MUST NEVER be called by smart contract code. First, it's fairly\n  ///  expensive (it walks the entire Persons array looking for persons belonging to owner),\n  ///  but it also returns a dynamic array, which is only supported for web3 calls, and\n  ///  not contract-to-contract calls.\n  function tokensOfCaptain(uint32 _captainId) public view returns(uint256[] captainTokens) {\n    uint256 tokenCount = tokenCountOfCaptain[_captainId];\n    if (tokenCount == 0) {\n        // Return an empty array\n      return new uint256[](0);\n    } else {\n      uint256[] memory result = new uint256[](tokenCount);\n      uint256 totalcaptains = captains.length - destroyCaptainCount - 1;\n      uint256 resultIndex = 0;\n\n      uint256 tokenId;\n      for (tokenId = 0; tokenId <= totalcaptains; tokenId++) {\n        if (IndexToCaptain[tokenId] == _captainId) {\n          result[resultIndex] = tokenId;\n          resultIndex++;\n        }\n      }\n      return result;\n    }\n  } \n}",
  "sourcePath": "/Users/rainysiu/Projects/Blockchain/PirateConquest/contracts/CaptainToken.sol",
  "compiler": {
    "name": "solc",
    "version": "0.4.19+commit.c4cbbb05.Emscripten.clang"
  },
  "schemaVersion": "2.0.0",
  "updatedAt": "2018-06-15T06:45:00.379Z"
}