{
  "contractName": "CaptainToken",
  "abi": [
    {
      "constant": false,
      "inputs": [
        {
          "name": "_addr",
          "type": "address"
        },
        {
          "name": "_useful",
          "type": "bool"
        }
      ],
      "name": "setAdminContract",
      "outputs": [],
      "payable": false,
      "stateMutability": "nonpayable",
      "type": "function"
    },
    {
      "constant": false,
      "inputs": [],
      "name": "unpause",
      "outputs": [
        {
          "name": "",
          "type": "bool"
        }
      ],
      "payable": false,
      "stateMutability": "nonpayable",
      "type": "function"
    },
    {
      "constant": true,
      "inputs": [],
      "name": "paused",
      "outputs": [
        {
          "name": "",
          "type": "bool"
        }
      ],
      "payable": false,
      "stateMutability": "view",
      "type": "function"
    },
    {
      "constant": false,
      "inputs": [
        {
          "name": "_actionAddr",
          "type": "address"
        },
        {
          "name": "_useful",
          "type": "bool"
        }
      ],
      "name": "setActionContract",
      "outputs": [],
      "payable": false,
      "stateMutability": "nonpayable",
      "type": "function"
    },
    {
      "constant": false,
      "inputs": [],
      "name": "pause",
      "outputs": [
        {
          "name": "",
          "type": "bool"
        }
      ],
      "payable": false,
      "stateMutability": "nonpayable",
      "type": "function"
    },
    {
      "constant": true,
      "inputs": [
        {
          "name": "",
          "type": "uint256"
        }
      ],
      "name": "captainTokenIdToOwner",
      "outputs": [
        {
          "name": "",
          "type": "address"
        }
      ],
      "payable": false,
      "stateMutability": "view",
      "type": "function"
    },
    {
      "constant": true,
      "inputs": [],
      "name": "owner",
      "outputs": [
        {
          "name": "",
          "type": "address"
        }
      ],
      "payable": false,
      "stateMutability": "view",
      "type": "function"
    },
    {
      "constant": false,
      "inputs": [
        {
          "name": "newOwner",
          "type": "address"
        }
      ],
      "name": "transferOwnership",
      "outputs": [],
      "payable": false,
      "stateMutability": "nonpayable",
      "type": "function"
    },
    {
      "constant": true,
      "inputs": [
        {
          "name": "",
          "type": "uint256"
        }
      ],
      "name": "captains",
      "outputs": [
        {
          "name": "captainId",
          "type": "uint32"
        },
        {
          "name": "color",
          "type": "uint32"
        },
        {
          "name": "atk_min",
          "type": "uint32"
        },
        {
          "name": "atk_max",
          "type": "uint32"
        },
        {
          "name": "defense",
          "type": "uint32"
        },
        {
          "name": "level",
          "type": "uint32"
        },
        {
          "name": "exp",
          "type": "uint256"
        }
      ],
      "payable": false,
      "stateMutability": "view",
      "type": "function"
    },
    {
      "inputs": [],
      "payable": false,
      "stateMutability": "nonpayable",
      "type": "constructor"
    },
    {
      "anonymous": false,
      "inputs": [
        {
          "indexed": false,
          "name": "tokenId",
          "type": "uint256"
        },
        {
          "indexed": false,
          "name": "captainId",
          "type": "uint32"
        },
        {
          "indexed": false,
          "name": "_owner",
          "type": "address"
        },
        {
          "indexed": false,
          "name": "_price",
          "type": "uint256"
        }
      ],
      "name": "CreateCaptain",
      "type": "event"
    },
    {
      "anonymous": false,
      "inputs": [
        {
          "indexed": true,
          "name": "_from",
          "type": "address"
        },
        {
          "indexed": true,
          "name": "_to",
          "type": "address"
        },
        {
          "indexed": false,
          "name": "_tokenId",
          "type": "uint256"
        }
      ],
      "name": "Transfer",
      "type": "event"
    },
    {
      "anonymous": false,
      "inputs": [
        {
          "indexed": true,
          "name": "_owner",
          "type": "address"
        },
        {
          "indexed": true,
          "name": "_approved",
          "type": "address"
        },
        {
          "indexed": false,
          "name": "_tokenId",
          "type": "uint256"
        }
      ],
      "name": "Approval",
      "type": "event"
    },
    {
      "anonymous": false,
      "inputs": [
        {
          "indexed": true,
          "name": "_owner",
          "type": "address"
        },
        {
          "indexed": true,
          "name": "_operator",
          "type": "address"
        },
        {
          "indexed": false,
          "name": "_approved",
          "type": "bool"
        }
      ],
      "name": "ApprovalForAll",
      "type": "event"
    },
    {
      "anonymous": false,
      "inputs": [],
      "name": "Pause",
      "type": "event"
    },
    {
      "anonymous": false,
      "inputs": [],
      "name": "Unpause",
      "type": "event"
    },
    {
      "anonymous": false,
      "inputs": [
        {
          "indexed": true,
          "name": "previousOwner",
          "type": "address"
        },
        {
          "indexed": true,
          "name": "newOwner",
          "type": "address"
        }
      ],
      "name": "OwnershipTransferred",
      "type": "event"
    },
    {
      "constant": false,
      "inputs": [
        {
          "name": "_owner",
          "type": "address"
        },
        {
          "name": "_price",
          "type": "uint256"
        },
        {
          "name": "_captainId",
          "type": "uint32"
        },
        {
          "name": "_color",
          "type": "uint32"
        },
        {
          "name": "_atk_min",
          "type": "uint32"
        },
        {
          "name": "_atk_max",
          "type": "uint32"
        },
        {
          "name": "_defense",
          "type": "uint32"
        },
        {
          "name": "_level",
          "type": "uint32"
        },
        {
          "name": "_exp",
          "type": "uint256"
        }
      ],
      "name": "CreateCaptainToken",
      "outputs": [],
      "payable": false,
      "stateMutability": "nonpayable",
      "type": "function"
    },
    {
      "constant": false,
      "inputs": [
        {
          "name": "_tokenId",
          "type": "uint256"
        },
        {
          "name": "_price",
          "type": "uint256"
        }
      ],
      "name": "setTokenPrice",
      "outputs": [],
      "payable": false,
      "stateMutability": "nonpayable",
      "type": "function"
    },
    {
      "constant": true,
      "inputs": [
        {
          "name": "_tokenId",
          "type": "uint256"
        }
      ],
      "name": "getCaptainInfo",
      "outputs": [
        {
          "name": "captainId",
          "type": "uint32"
        },
        {
          "name": "color",
          "type": "uint32"
        },
        {
          "name": "atk_min",
          "type": "uint32"
        },
        {
          "name": "atk_max",
          "type": "uint32"
        },
        {
          "name": "defense",
          "type": "uint32"
        },
        {
          "name": "level",
          "type": "uint32"
        },
        {
          "name": "exp",
          "type": "uint256"
        },
        {
          "name": "price",
          "type": "uint256"
        },
        {
          "name": "owner",
          "type": "address"
        }
      ],
      "payable": false,
      "stateMutability": "view",
      "type": "function"
    },
    {
      "constant": true,
      "inputs": [
        {
          "name": "_owner",
          "type": "address"
        }
      ],
      "name": "balanceOf",
      "outputs": [
        {
          "name": "",
          "type": "uint256"
        }
      ],
      "payable": false,
      "stateMutability": "view",
      "type": "function"
    },
    {
      "constant": true,
      "inputs": [
        {
          "name": "_tokenId",
          "type": "uint256"
        }
      ],
      "name": "ownerOf",
      "outputs": [
        {
          "name": "",
          "type": "address"
        }
      ],
      "payable": false,
      "stateMutability": "view",
      "type": "function"
    },
    {
      "constant": false,
      "inputs": [
        {
          "name": "_from",
          "type": "address"
        },
        {
          "name": "_to",
          "type": "address"
        },
        {
          "name": "_tokenId",
          "type": "uint256"
        }
      ],
      "name": "safeTransferFrom",
      "outputs": [],
      "payable": true,
      "stateMutability": "payable",
      "type": "function"
    },
    {
      "constant": false,
      "inputs": [
        {
          "name": "_from",
          "type": "address"
        },
        {
          "name": "_to",
          "type": "address"
        },
        {
          "name": "_tokenId",
          "type": "uint256"
        },
        {
          "name": "data",
          "type": "bytes"
        }
      ],
      "name": "safeTransferFrom",
      "outputs": [],
      "payable": true,
      "stateMutability": "payable",
      "type": "function"
    },
    {
      "constant": false,
      "inputs": [
        {
          "name": "_from",
          "type": "address"
        },
        {
          "name": "_to",
          "type": "address"
        },
        {
          "name": "_tokenId",
          "type": "uint256"
        }
      ],
      "name": "transferFrom",
      "outputs": [],
      "payable": true,
      "stateMutability": "payable",
      "type": "function"
    },
    {
      "constant": false,
      "inputs": [
        {
          "name": "_approved",
          "type": "address"
        },
        {
          "name": "_tokenId",
          "type": "uint256"
        }
      ],
      "name": "approve",
      "outputs": [],
      "payable": true,
      "stateMutability": "payable",
      "type": "function"
    },
    {
      "constant": false,
      "inputs": [
        {
          "name": "_operator",
          "type": "address"
        },
        {
          "name": "_approved",
          "type": "bool"
        }
      ],
      "name": "setApprovalForAll",
      "outputs": [],
      "payable": false,
      "stateMutability": "nonpayable",
      "type": "function"
    },
    {
      "constant": true,
      "inputs": [
        {
          "name": "_tokenId",
          "type": "uint256"
        }
      ],
      "name": "getApproved",
      "outputs": [
        {
          "name": "",
          "type": "address"
        }
      ],
      "payable": false,
      "stateMutability": "view",
      "type": "function"
    },
    {
      "constant": true,
      "inputs": [
        {
          "name": "_owner",
          "type": "address"
        },
        {
          "name": "_operator",
          "type": "address"
        }
      ],
      "name": "isApprovedForAll",
      "outputs": [
        {
          "name": "",
          "type": "bool"
        }
      ],
      "payable": false,
      "stateMutability": "view",
      "type": "function"
    },
    {
      "constant": true,
      "inputs": [],
      "name": "name",
      "outputs": [
        {
          "name": "",
          "type": "string"
        }
      ],
      "payable": false,
      "stateMutability": "pure",
      "type": "function"
    },
    {
      "constant": true,
      "inputs": [],
      "name": "symbol",
      "outputs": [
        {
          "name": "",
          "type": "string"
        }
      ],
      "payable": false,
      "stateMutability": "pure",
      "type": "function"
    },
    {
      "constant": true,
      "inputs": [],
      "name": "totalSupply",
      "outputs": [
        {
          "name": "",
          "type": "uint256"
        }
      ],
      "payable": false,
      "stateMutability": "view",
      "type": "function"
    },
    {
      "constant": true,
      "inputs": [
        {
          "name": "_index",
          "type": "uint256"
        }
      ],
      "name": "tokenByIndex",
      "outputs": [
        {
          "name": "",
          "type": "uint256"
        }
      ],
      "payable": false,
      "stateMutability": "view",
      "type": "function"
    },
    {
      "constant": true,
      "inputs": [
        {
          "name": "_owner",
          "type": "address"
        },
        {
          "name": "_index",
          "type": "uint256"
        }
      ],
      "name": "tokenOfOwnerByIndex",
      "outputs": [
        {
          "name": "",
          "type": "uint256"
        }
      ],
      "payable": false,
      "stateMutability": "view",
      "type": "function"
    },
    {
      "constant": true,
      "inputs": [
        {
          "name": "_owner",
          "type": "address"
        }
      ],
      "name": "tokensOfOwner",
      "outputs": [
        {
          "name": "",
          "type": "uint256[]"
        },
        {
          "name": "",
          "type": "uint32[]"
        }
      ],
      "payable": false,
      "stateMutability": "view",
      "type": "function"
    },
    {
      "constant": true,
      "inputs": [
        {
          "name": "_captainId",
          "type": "uint32"
        }
      ],
      "name": "tokensOfCaptain",
      "outputs": [
        {
          "name": "captainTokens",
          "type": "uint256[]"
        }
      ],
      "payable": false,
      "stateMutability": "view",
      "type": "function"
    }
  ],
  "bytecode": "0x60606040526000805460a060020a60ff021916905534156200002057600080fd5b60008054600160a060020a03191633600160a060020a031617905560038054600101906200004f90826200013c565b506200006b3360016401000000006200077c6200008c82021704565b6200008633600164010000000062000c59620000e982021704565b620001a5565b60005433600160a060020a03908116911614620000a857600080fd5b600160a060020a0382161515620000be57600080fd5b600160a060020a03919091166000908152600160205260409020805460ff1916911515919091179055565b600160a060020a03331660009081526001602052604090205460ff1615156200011157600080fd5b600160a060020a03919091166000908152600260205260409020805460ff1916911515919091179055565b8154818355818115116200016b576002028160020283600052602060002091820191016200016b919062000170565b505050565b620001a291905b808211156200019e578054600160c060020a03191681556000600182015560020162000177565b5090565b90565b611a8a80620001b56000396000f3006060604052600436106101695763ffffffff7c010000000000000000000000000000000000000000000000000000000060003504166306fdde03811461016e578063081812fc146101f85780630865dadc1461022a578063095ea7b3146102505780630fd238d31461026757806318160ddd146102b457806323b872dd146102d95780632f745c59146102f65780633f4ba83a1461031857806342842e0e1461033f5780634f6ccce71461035c5780635c975abb146103725780636352211e1461038557806369b7ca851461039b5780636fb642de1461041457806370a08231146104385780638456cb59146104575780638462151c1461046a57806386b259f5146105225780638da5cb5b1461053857806395d89b411461054b578063a22cb4651461055e578063b88d4fde14610582578063e985e9c5146105ae578063eb685c47146105d3578063ee992fd8146105ec578063f2fde38b1461065b578063f412511e1461067a575b600080fd5b341561017957600080fd5b6101816106d9565b60405160208082528190810183818151815260200191508051906020019080838360005b838110156101bd5780820151838201526020016101a5565b50505050905090810190601f1680156101ea5780820380516001836020036101000a031916815260200191505b509250505060405180910390f35b341561020357600080fd5b61020e60043561071b565b604051600160a060020a03909116815260200160405180910390f35b341561023557600080fd5b61024e600160a060020a0360043516602435151561077c565b005b61024e600160a060020a03600435166024356107d7565b341561027257600080fd5b61024e600160a060020a036004351660243563ffffffff60443581169060643581169060843581169060a43581169060c43581169060e43516610104356108dc565b34156102bf57600080fd5b6102c761091f565b60405190815260200160405180910390f35b61024e600160a060020a036004358116906024351660443561092d565b341561030157600080fd5b6102c7600160a060020a0360043516602435610a3d565b341561032357600080fd5b61032b610aaf565b604051901515815260200160405180910390f35b61024e600160a060020a0360043581169060243516604435610b33565b341561036757600080fd5b6102c7600435610b52565b341561037d57600080fd5b61032b610b6c565b341561039057600080fd5b61020e600435610b7c565b34156103a657600080fd5b6103b1600435610b97565b60405163ffffffff998a168152978916602089015295881660408089019190915294881660608801529287166080870152951660a085015260c084019490945260e0830193909352600160a060020a031661010082015261012001905180910390f35b341561041f57600080fd5b61024e600160a060020a03600435166024351515610c59565b341561044357600080fd5b6102c7600160a060020a0360043516610cab565b341561046257600080fd5b61032b610cde565b341561047557600080fd5b610489600160a060020a0360043516610d67565b604051808060200180602001838103835285818151815260200191508051906020019060200280838360005b838110156104cd5780820151838201526020016104b5565b50505050905001838103825284818151815260200191508051906020019060200280838360005b8381101561050c5780820151838201526020016104f4565b5050505090500194505050505060405180910390f35b341561052d57600080fd5b61020e600435610ed1565b341561054357600080fd5b61020e610eec565b341561055657600080fd5b610181610efb565b341561056957600080fd5b61024e600160a060020a03600435166024351515610f3c565b61024e600160a060020a0360048035821691602480359091169160443591606435908101910135610fc3565b34156105b957600080fd5b61032b600160a060020a0360043581169060243516611005565b34156105de57600080fd5b61024e600435602435611033565b34156105f757600080fd5b61060863ffffffff6004351661106c565b60405160208082528190810183818151815260200191508051906020019060200280838360005b8381101561064757808201518382015260200161062f565b505050509050019250505060405180910390f35b341561066657600080fd5b61024e600160a060020a0360043516611158565b341561068557600080fd5b6106906004356111f3565b60405163ffffffff978816815295871660208701529386166040808701919091529286166060860152908516608085015290931660a083015260c082015260e001905180910390f35b6106e161196a565b60408051908101604052601581527f50697261746520436f6e717565737420546f6b656e0000000000000000000000602082015290505b90565b6000816001811015801561073157506003548111155b151561073c57600080fd5b600081815260046020526040902054600160a060020a0316151561075f57600080fd5b50506000908152600a6020526040902054600160a060020a031690565b60005433600160a060020a0390811691161461079757600080fd5b600160a060020a03821615156107ac57600080fd5b600160a060020a03919091166000908152600160205260409020805460ff1916911515919091179055565b6000805460a060020a900460ff16156107ef57600080fd5b50600081815260046020526040902054600160a060020a031680151561081457600080fd5b80600160a060020a031633600160a060020a0316148061085a5750600160a060020a038082166000908152600b60209081526040808320339094168352929052205460ff165b151561086557600080fd5b6000828152600a602052604090819020805473ffffffffffffffffffffffffffffffffffffffff1916600160a060020a0386811691821790925591908316907f8c5be1e5ebec7d5bd14f71427d1e84f3dd0314c0f7b2291e5b200ac8c7c3b9259085905190815260200160405180910390a3505050565b600160a060020a03331660009081526002602052604090205460ff16151561090357600080fd5b610914898989898989898989611273565b505050505050505050565b600c54600354036000190190565b6000805460a060020a900460ff161561094557600080fd5b816001811015801561095957506003548111155b151561096457600080fd5b600081815260046020526040902054600160a060020a0316151561098757600080fd5b600083815260046020526040902054839033600160a060020a03908116911614806109cc57506000818152600a602052604090205433600160a060020a039081169116145b15156109d757600080fd5b600084815260046020526040902054600160a060020a031692508215156109fd57600080fd5b600160a060020a0383811690871614610a1557600080fd5b600160a060020a0385161515610a2a57600080fd5b610a358686866114fb565b505050505050565b600160a060020a03821660009081526006602052604081205481908310610a6357600080fd5b600160a060020a03841615610aa857600160a060020a0384166000908152600660205260409020805484908110610a9657fe5b90600052602060002090015490508091505b5092915050565b6000805433600160a060020a03908116911614610acb57600080fd5b60005460a060020a900460ff161515610ae357600080fd5b6000805474ff0000000000000000000000000000000000000000191690557f7805862f689e2f13df9f062ff482ad3ad112aca9e0847911ed832e158c525b3360405160405180910390a150600190565b610b4d8383836020604051908101604052600081526116f8565b505050565b600c5460035460009190038210610b6857600080fd5b5090565b60005460a060020a900460ff1681565b600090815260046020526040902054600160a060020a031690565b60008060008060008060008060008060038b815481101515610bb557fe5b60009182526020808320600290920290910180546001909101549d83526007825260408084205460049093529092205463ffffffff8084169f640100000000850482169f68010000000000000000860483169f506c01000000000000000000000000860483169e50700100000000000000000000000000000000860483169d5060a060020a9095049091169a50929850909650600160a060020a0316945092505050565b600160a060020a03331660009081526001602052604090205460ff161515610c8057600080fd5b600160a060020a03919091166000908152600260205260409020805460ff1916911515919091179055565b6000600160a060020a0382161515610cc257600080fd5b50600160a060020a031660009081526006602052604090205490565b6000805433600160a060020a03908116911614610cfa57600080fd5b60005460a060020a900460ff1615610d1157600080fd5b6000805474ff0000000000000000000000000000000000000000191660a060020a1790557f6985a02210a168e66602d3235cb6db0e70f92b3ba4d376a33c0f3d9434bff62560405160405180910390a150600190565b610d6f61196a565b610d7761196a565b6000610d8161196a565b610d8961196a565b600160a060020a0386166000908152600660205260408082205494508190859051805910610db45750595b9080825280602002602001820160405250935084604051805910610dd55750595b90808252806020026020018201604052509250600160a060020a03881615610ec4575060005b84811015610ec457600160a060020a0388166000908152600660205260409020805483908110610e2757fe5b906000526020600020900154848281518110610e3f57fe5b6020908102909101810191909152600160a060020a03891660009081526006909152604081208054600992919085908110610e7657fe5b6000918252602080832090910154835282019290925260400190205463ffffffff16838281518110610ea457fe5b63ffffffff90921660209283029091019091015260019182019101610dfb565b5091969095509350505050565b600460205260009081526040902054600160a060020a031681565b600054600160a060020a031681565b610f0361196a565b60408051908101604052600381527f50435400000000000000000000000000000000000000000000000000000000006020820152905090565b60005460a060020a900460ff1615610f5357600080fd5b33600160a060020a039081166000818152600b602090815260408083209487168084529490915290819020805460ff19168515151790557f17307eab39ab6107e8899845ad3d59bd9653f200f220920489ca2b5937696c3190849051901515815260200160405180910390a35050565b610ffe85858585858080601f0160208091040260200160405190810160405281815292919060208401838380828437506116f8945050505050565b5050505050565b600160a060020a039182166000908152600b6020908152604080832093909416825291909152205460ff1690565b600160a060020a03331660009081526002602052604090205460ff16151561105a57600080fd5b60009182526007602052604090912055565b61107461196a565b600061107e61196a565b63ffffffff8416600090815260086020526040812054925080808415156110c65760006040518059106110ae5750595b9080825280602002602001820160405250955061114e565b846040518059106110d45750595b9080825280602002602001820160405250600c546003549195506000199103019250600091508190505b82811161114a5760008181526009602052604090205463ffffffff88811691161415611142578084838151811061113157fe5b602090810290910101526001909101905b6001016110fe565b8395505b5050505050919050565b60005433600160a060020a0390811691161461117357600080fd5b600160a060020a038116151561118857600080fd5b600054600160a060020a0380831691167f8be0079c531659141344cd1fd0a4f28419497f9722a3daafe3b4186f6b6457e060405160405180910390a36000805473ffffffffffffffffffffffffffffffffffffffff1916600160a060020a0392909216919091179055565b600380548290811061120157fe5b60009182526020909120600290910201805460019091015463ffffffff808316935064010000000083048116926801000000000000000081048216926c010000000000000000000000008204831692700100000000000000000000000000000000830481169260a060020a9004169087565b600061127d61197c565b600354915060e0604051908101604052808a63ffffffff1681526020018963ffffffff1681526020018863ffffffff1681526020018763ffffffff1681526020018663ffffffff1681526020018563ffffffff168152602001848152509050600380548060010182816112f091906119b8565b600092835260209092208391600202018151815463ffffffff191663ffffffff919091161781556020820151815463ffffffff919091166401000000000267ffffffff00000000199091161781556040820151815463ffffffff9190911668010000000000000000026bffffffff0000000000000000199091161781556060820151815463ffffffff919091166c01000000000000000000000000026fffffffff000000000000000000000000199091161781556080820151815463ffffffff919091167001000000000000000000000000000000000273ffffffff000000000000000000000000000000001990911617815560a0820151815463ffffffff9190911660a060020a0277ffffffff00000000000000000000000000000000000000001990911617815560c082015181600101555050507fe1ea955b818ed7aa04751f4187794a758e077e289195544fd00ef49de3df5a75828a8d8d60405193845263ffffffff9092166020840152600160a060020a031660408084019190915260608301919091526080909101905180910390a160008281526007602090815260408083208d905560098252808320805463ffffffff191663ffffffff8e16908117909155835260089091529020546114ca906001611954565b63ffffffff8a166000908152600860205260408120919091556114ee908c846114fb565b5050505050505050505050565b60008080600160a060020a0386161561161357600084815260056020908152604080832054600160a060020a038a168452600690925290912080549194509250849083908590811061154957fe5b6000918252602090912001541461155f57600080fd5b81546000190183146115bb5781548290600019810190811061157d57fe5b906000526020600020900154905080828481548110151561159a57fe5b60009182526020808320909101929092558281526005909152604090208390555b8154600019016115cb83826119e4565b506000848152600a6020526040902054600160a060020a031615611613576000848152600a60205260409020805473ffffffffffffffffffffffffffffffffffffffff191690555b6000848152600460209081526040808320805473ffffffffffffffffffffffffffffffffffffffff1916600160a060020a038a1690811790915583526006909152902080546001810161166683826119e4565b506000918252602080832091909101869055600160a060020a03808816808452600683526040808520548986526005909452909320600019909201909155871615156116b257306116b4565b865b600160a060020a03167fddf252ad1be2c89b69c2b068fc378daa952ba7f163c4a11628f55a4df523b3ef8660405190815260200160405180910390a3505050505050565b600080836001811015801561170f57506003548111155b151561171a57600080fd5b600081815260046020526040902054600160a060020a0316151561173d57600080fd5b600085815260046020526040902054859033600160a060020a039081169116148061178257506000818152600a602052604090205433600160a060020a039081169116145b151561178d57600080fd5b600086815260046020526040902054600160a060020a0316935083158015906117c7575087600160a060020a031684600160a060020a0316145b15156117d257600080fd5b600160a060020a03871615156117e757600080fd5b6117f28888886114fb565b86600160a060020a031663f0b9e5ba8988886000604051602001526040518463ffffffff167c01000000000000000000000000000000000000000000000000000000000281526004018084600160a060020a0316600160a060020a0316815260200183815260200180602001828103825283818151815260200191508051906020019080838360005b8381101561189357808201518382015260200161187b565b50505050905090810190601f1680156118c05780820380516001836020036101000a031916815260200191505b50945050505050602060405180830381600087803b15156118e057600080fd5b6102c65a03f115156118f157600080fd5b50505060405180519350507ff0b9e5ba000000000000000000000000000000000000000000000000000000007fffffffff0000000000000000000000000000000000000000000000000000000084161461194a57600080fd5b5050505050505050565b60008282018381101561196357fe5b9392505050565b60206040519081016040526000815290565b60e06040519081016040908152600080835260208301819052908201819052606082018190526080820181905260a0820181905260c082015290565b815481835581811511610b4d57600202816002028360005260206000209182019101610b4d9190611a08565b815481835581811511610b4d57600083815260209020610b4d918101908301611a44565b61071891905b80821115610b6857805477ffffffffffffffffffffffffffffffffffffffffffffffff1916815560006001820155600201611a0e565b61071891905b80821115610b685760008155600101611a4a5600a165627a7a72305820708b06c0a6251c377186745cff71a0a5da52aaa751f32ed1409988b835c9669c0029",
  "source": "pragma solidity ^0.4.18;\nimport \"./AccessAdmin.sol\";\nimport \"./SafeMath.sol\";\nimport \"./ERC721.sol\";\n\ncontract CaptainToken is AccessAdmin, ERC721 {\n  using SafeMath for SafeMath;\n  //event \n  event CreateCaptain(uint tokenId,uint32 captainId, address _owner, uint256 _price);\n  //ERC721\n  event Transfer(address indexed _from, address indexed _to, uint256 _tokenId);\n  event Approval(address indexed _owner, address indexed _approved, uint256 _tokenId);\n  event ApprovalForAll(address indexed _owner, address indexed _operator, bool _approved);\n\n  struct Captain {\n    uint32 captainId;  \n    uint32 color; // 1,2,3,4  \n    uint32 atk_min; \n    uint32 atk_max; \n    uint32 defense;\n    uint32 level;\n    uint256 exp;\n  }\n    \n  Captain[] public captains; //dynamic Array\n  function CaptainToken() public {\n    captains.length += 1;\n    setAdminContract(msg.sender,true);\n    setActionContract(msg.sender,true);\n  }\n\n  /**MAPPING**/\n  /// @dev tokenId to owner  tokenId -> address\n  mapping (uint256 => address) public captainTokenIdToOwner;\n  /// @dev Equipment token ID search in owner array captainId -> tokenId\n  mapping (uint256 => uint256) captainIdToOwnerIndex;  \n  /// @dev captains owner by the owner (array)\n  mapping (address => uint256[]) ownerToCaptainArray;\n  /// @dev price of each token\n  mapping (uint256 => uint256) captainTokenIdToPrice;\n  /// @dev token count of captain\n  mapping (uint32 => uint256) tokenCountOfCaptain;\n  /// @dev tokens by the captain\n  mapping (uint256 => uint32) IndexToCaptain;\n  /// @dev The authorized address for each Captain\n  mapping (uint256 => address) captainTokenIdToApprovals;\n  /// @dev The authorized operators for each address\n  mapping (address => mapping (address => bool)) operatorToApprovals;\n\n  /*** CONSTRUCTOR ***/\n  /// @dev Amount of tokens destroyed\n  uint256 destroyCaptainCount;\n\n  // modifier\n  /// @dev Check if token ID is valid\n  modifier isValidToken(uint256 _tokenId) {\n    require(_tokenId >= 1 && _tokenId <= captains.length);\n    require(captainTokenIdToOwner[_tokenId] != address(0)); \n    _;\n  }\n  modifier canTransfer(uint256 _tokenId) {\n    require(msg.sender == captainTokenIdToOwner[_tokenId] || msg.sender == captainTokenIdToApprovals[_tokenId]);\n    _;\n  }\n  /// @dev Creates a new Captain with the given name.\n  function CreateCaptainToken(address _owner,uint256 _price, uint32 _captainId, uint32 _color,uint32 _atk_min, uint32 _atk_max,uint32 _defense,uint32 _level,uint256 _exp) public onlyAccess {\n    _createCaptainToken(_owner,_price,_captainId,_color,_atk_min,_atk_max,_defense,_level,_exp);\n  }\n\n    /// For creating CaptainToken\n  function _createCaptainToken(address _owner, uint256 _price, uint32 _captainId, uint32 _color, uint32 _atk_min, uint32 _atk_max,uint32 _defense,uint32 _level,uint256 _exp) \n  internal {\n    uint256 newTokenId = captains.length;\n    Captain memory _captain = Captain({\n      captainId: _captainId,\n      color: _color,\n      atk_min: _atk_min,\n      atk_max: _atk_max,\n      defense: _defense,\n      level: _level,\n      exp: _exp \n    });\n    captains.push(_captain);\n    //event\n    CreateCaptain(newTokenId, _captainId, _owner, _price);\n    captainTokenIdToPrice[newTokenId] = _price;\n    IndexToCaptain[newTokenId] = _captainId;\n    tokenCountOfCaptain[_captainId] = SafeMath.add(tokenCountOfCaptain[_captainId],1);\n    // This will assign ownership, and also emit the Transfer event as\n    // per ERC721 draft\n    _transfer(address(0), _owner, newTokenId);\n  } \n  /// @dev set the token price\n  function setTokenPrice(uint256 _tokenId, uint256 _price) external {\n    require(actionContracts[msg.sender]);\n    captainTokenIdToPrice[_tokenId] = _price;\n  }\n  /// @dev Do the real transfer with out any condition checking\n  /// @param _from The old owner of this Captain(If created: 0x0)\n  /// @param _to The new owner of this Captain \n  /// @param _tokenId The tokenId of the Captain\n  function _transfer(address _from, address _to, uint256 _tokenId) internal {\n    if (_from != address(0)) {\n      uint256 indexFrom = captainIdToOwnerIndex[_tokenId];  // tokenId -> captainId\n      uint256[] storage cpArray = ownerToCaptainArray[_from];\n      require(cpArray[indexFrom] == _tokenId);\n\n      // If the Captain is not the element of array, change it to with the last\n      if (indexFrom != cpArray.length - 1) {\n        uint256 lastTokenId = cpArray[cpArray.length - 1];\n        cpArray[indexFrom] = lastTokenId; \n        captainIdToOwnerIndex[lastTokenId] = indexFrom;\n      }\n      cpArray.length -= 1; \n    \n      if (captainTokenIdToApprovals[_tokenId] != address(0)) {\n        delete captainTokenIdToApprovals[_tokenId];\n      }      \n    }\n\n    // Give the Captain to '_to'\n    captainTokenIdToOwner[_tokenId] = _to;\n    ownerToCaptainArray[_to].push(_tokenId);\n    captainIdToOwnerIndex[_tokenId] = ownerToCaptainArray[_to].length - 1;\n        \n    Transfer(_from != address(0) ? _from : this, _to, _tokenId);\n  }\n\n  /// @notice Returns all the relevant information about a specific tokenId.\n  /// @param _tokenId The tokenId of the rarecard.\n  function getCaptainInfo(uint256 _tokenId) external view returns (\n    uint32 captainId,  \n    uint32 color, \n    uint32 atk_min,\n    uint32 atk_max,\n    uint32 defense,\n    uint32 level,\n    uint256 exp, \n    uint256 price,\n    address owner\n  ) {\n    Captain storage captain = captains[_tokenId];\n    captainId = captain.captainId;\n    color = captain.color;\n    atk_min = captain.atk_min;\n    atk_max = captain.atk_max;\n    defense = captain.defense;\n    level = captain.level;\n    exp = captain.exp;\n    price = captainTokenIdToPrice[_tokenId];\n    owner = captainTokenIdToOwner[_tokenId];\n  }\n\n  /// ERC721 \n\n  function balanceOf(address _owner) external view returns (uint256) {\n    require(_owner != address(0));\n    return ownerToCaptainArray[_owner].length;\n  }\n\n  function ownerOf(uint256 _tokenId) external view returns (address) {\n    return captainTokenIdToOwner[_tokenId];\n  }\n  function safeTransferFrom(address _from, address _to, uint256 _tokenId, bytes data) external payable {\n    _safeTransferFrom(_from, _to, _tokenId, data);\n  }\n  function safeTransferFrom(address _from, address _to, uint256 _tokenId) external payable {\n    _safeTransferFrom(_from, _to, _tokenId, \"\");\n  }\n\n  /// @dev Actually perform the safeTransferFrom\n  function _safeTransferFrom(address _from, address _to, uint256 _tokenId, bytes data) \n    internal\n    isValidToken(_tokenId) \n    canTransfer(_tokenId)\n    {\n    address owner = captainTokenIdToOwner[_tokenId];\n    require(owner != address(0) && owner == _from);\n    require(_to != address(0));\n        \n    _transfer(_from, _to, _tokenId);\n\n    // Do the callback after everything is done to avoid reentrancy attack\n    /*uint256 codeSize;\n    assembly { codeSize := extcodesize(_to) }\n    if (codeSize == 0) {\n      return;\n    }*/\n    bytes4 retval = ERC721TokenReceiver(_to).onERC721Received(_from, _tokenId, data);\n    // bytes4(keccak256(\"onERC721Received(address,uint256,bytes)\")) = 0xf0b9e5ba;\n    require(retval == 0xf0b9e5ba);\n  }\n    \n  /// @dev Transfer ownership of an Captain, '_to' must be a vaild address, or the WAR will lost\n  /// @param _from The current owner of the Captain\n  /// @param _to The new owner\n  /// @param _tokenId The Captain to transfer\n  function transferFrom(address _from, address _to, uint256 _tokenId)\n        external\n        whenNotPaused\n        isValidToken(_tokenId)\n        canTransfer(_tokenId)\n        payable\n    {\n    address owner = captainTokenIdToOwner[_tokenId];\n    require(owner != address(0));\n    require(owner == _from);\n    require(_to != address(0));\n        \n    _transfer(_from, _to, _tokenId);\n  }\n\n  /// @dev Set or reaffirm the approved address for an captain\n  /// @param _approved The new approved captain controller\n  /// @param _tokenId The captain to approve\n  function approve(address _approved, uint256 _tokenId)\n    external\n    whenNotPaused \n    payable\n  {\n    address owner = captainTokenIdToOwner[_tokenId];\n    require(owner != address(0));\n    require(msg.sender == owner || operatorToApprovals[owner][msg.sender]);\n\n    captainTokenIdToApprovals[_tokenId] = _approved;\n    Approval(owner, _approved, _tokenId);\n  }\n  /// @dev Enable or disable approval for a third party (\"operator\") to manage all your asset.\n  /// @param _operator Address to add to the set of authorized operators.\n  /// @param _approved True if the operators is approved, false to revoke approval\n  function setApprovalForAll(address _operator, bool _approved) \n    external \n    whenNotPaused\n  {\n    operatorToApprovals[msg.sender][_operator] = _approved;\n    ApprovalForAll(msg.sender, _operator, _approved);\n  }\n\n  /// @dev Get the approved address for a single Captain\n  /// @param _tokenId The WAR to find the approved address for\n  /// @return The approved address for this WAR, or the zero address if there is none\n  function getApproved(uint256 _tokenId) external view isValidToken(_tokenId) returns (address) {\n    return captainTokenIdToApprovals[_tokenId];\n  }\n  \n  /// @dev Query if an address is an authorized operator for another address\n  /// @param _owner The address that owns the WARs\n  /// @param _operator The address that acts on behalf of the owner\n  /// @return True if `_operator` is an approved operator for `_owner`, false otherwise\n  function isApprovedForAll(address _owner, address _operator) external view returns (bool) {\n    return operatorToApprovals[_owner][_operator];\n  }\n  /// @notice A descriptive name for a collection of NFTs in this contract\n  function name() public pure returns(string) {\n    return \"Pirate Conquest Token\";\n  }\n  /// @notice An abbreviated name for NFTs in this contract\n  function symbol() public pure returns(string) {\n    return \"PCT\";\n  }\n  /// @notice A distinct Uniform Resource Identifier (URI) for a given asset.\n  /// @dev Throws if `_tokenId` is not a valid NFT. URIs are defined in RFC\n  ///  3986. The URI may point to a JSON file that conforms to the \"ERC721\n  ///  Metadata JSON Schema\".\n  //function tokenURI(uint256 _tokenId) external view returns (string);\n\n  /// @notice Count NFTs tracked by this contract\n  /// @return A count of valid NFTs tracked by this contract, where each one of\n  ///  them has an assigned and queryable owner not equal to the zero address\n  function totalSupply() external view returns (uint256) {\n    return captains.length - destroyCaptainCount - 1;\n  }\n  /// @notice Enumerate valid NFTs\n  /// @dev Throws if `_index` >= `totalSupply()`.\n  /// @param _index A counter less than `totalSupply()`\n  /// @return The token identifier for the `_index`th NFT,\n  ///  (sort order not specified)\n  function tokenByIndex(uint256 _index) external view returns (uint256) {\n    require(_index<(captains.length - destroyCaptainCount));\n    //return captainIdToOwnerIndex[_index];\n    return _index;\n  }\n  /// @notice Enumerate NFTs assigned to an owner\n  /// @dev Throws if `_index` >= `balanceOf(_owner)` or if\n  ///  `_owner` is the zero address, representing invalid NFTs.\n  /// @param _owner An address where we are interested in NFTs owned by them\n  /// @param _index A counter less than `balanceOf(_owner)`\n  /// @return The token identifier for the `_index`th NFT assigned to `_owner`,\n  ///   (sort order not specified)\n  function tokenOfOwnerByIndex(address _owner, uint256 _index) external view returns (uint256) {\n    require(_index < ownerToCaptainArray[_owner].length);\n    if (_owner != address(0)) {\n      uint256 tokenId = ownerToCaptainArray[_owner][_index];\n      return tokenId;\n    }\n  }\n\n  /// @param _owner The owner whose celebrity tokens we are interested in.\n  /// @dev This method MUST NEVER be called by smart contract code. First, it's fairly\n  ///  expensive (it walks the entire Persons array looking for persons belonging to owner),\n  ///  but it also returns a dynamic array, which is only supported for web3 calls, and\n  ///  not contract-to-contract calls.\n  function tokensOfOwner(address _owner) external view returns (uint256[],uint32[]) {\n    uint256 len = ownerToCaptainArray[_owner].length;\n    uint256[] memory tokens = new uint256[](len);\n    uint32[] memory captainss = new uint32[](len);\n    uint256 icount;\n    if (_owner != address(0)) {\n      for (uint256 i=0;i<len;i++) {\n        tokens[i] = ownerToCaptainArray[_owner][icount];\n        captainss[i] = IndexToCaptain[ownerToCaptainArray[_owner][icount]];\n        icount++;\n      }\n    }\n    return (tokens,captainss);\n  }\n\n  /// @param _captainId The captain whose celebrity tokens we are interested in.\n  /// @dev This method MUST NEVER be called by smart contract code. First, it's fairly\n  ///  expensive (it walks the entire Persons array looking for persons belonging to owner),\n  ///  but it also returns a dynamic array, which is only supported for web3 calls, and\n  ///  not contract-to-contract calls.\n  function tokensOfCaptain(uint32 _captainId) public view returns(uint256[] captainTokens) {\n    uint256 tokenCount = tokenCountOfCaptain[_captainId];\n    if (tokenCount == 0) {\n        // Return an empty array\n      return new uint256[](0);\n    } else {\n      uint256[] memory result = new uint256[](tokenCount);\n      uint256 totalcaptains = captains.length - destroyCaptainCount - 1;\n      uint256 resultIndex = 0;\n\n      uint256 tokenId;\n      for (tokenId = 0; tokenId <= totalcaptains; tokenId++) {\n        if (IndexToCaptain[tokenId] == _captainId) {\n          result[resultIndex] = tokenId;\n          resultIndex++;\n        }\n      }\n      return result;\n    }\n  } \n}",
  "sourcePath": "/Users/rainysiu/Projects/Blockchain/PirateConquest/contracts/CaptainToken.sol",
  "compiler": {
    "name": "solc",
    "version": "0.4.19+commit.c4cbbb05.Emscripten.clang"
  },
  "schemaVersion": "2.0.0",
  "updatedAt": "2018-06-06T05:08:44.633Z"
}