{
  "contractName": "CaptainSell",
  "abi": [
    {
      "constant": false,
      "inputs": [
        {
          "name": "_address",
          "type": "address"
        }
      ],
      "name": "setGameConfigContract",
      "outputs": [],
      "payable": false,
      "stateMutability": "nonpayable",
      "type": "function"
    },
    {
      "constant": false,
      "inputs": [
        {
          "name": "_address",
          "type": "address"
        }
      ],
      "name": "setCaptainTokenContract",
      "outputs": [],
      "payable": false,
      "stateMutability": "nonpayable",
      "type": "function"
    },
    {
      "constant": false,
      "inputs": [
        {
          "name": "_captainId",
          "type": "uint32"
        }
      ],
      "name": "prepurchase",
      "outputs": [],
      "payable": true,
      "stateMutability": "payable",
      "type": "function"
    },
    {
      "constant": true,
      "inputs": [],
      "name": "captains",
      "outputs": [
        {
          "name": "",
          "type": "address"
        }
      ],
      "payable": false,
      "stateMutability": "view",
      "type": "function"
    },
    {
      "constant": true,
      "inputs": [],
      "name": "config",
      "outputs": [
        {
          "name": "",
          "type": "address"
        }
      ],
      "payable": false,
      "stateMutability": "view",
      "type": "function"
    },
    {
      "constant": true,
      "inputs": [
        {
          "name": "_captainId",
          "type": "uint32"
        }
      ],
      "name": "getCaptainCount",
      "outputs": [
        {
          "name": "",
          "type": "uint256"
        }
      ],
      "payable": false,
      "stateMutability": "view",
      "type": "function"
    },
    {
      "constant": false,
      "inputs": [
        {
          "name": "_tokenId",
          "type": "uint256"
        }
      ],
      "name": "purchase",
      "outputs": [],
      "payable": true,
      "stateMutability": "payable",
      "type": "function"
    },
    {
      "inputs": [],
      "payable": false,
      "stateMutability": "nonpayable",
      "type": "constructor"
    },
    {
      "anonymous": false,
      "inputs": [
        {
          "indexed": false,
          "name": "tokenId",
          "type": "uint256"
        },
        {
          "indexed": false,
          "name": "oldPrice",
          "type": "uint256"
        },
        {
          "indexed": false,
          "name": "prevOwner",
          "type": "address"
        },
        {
          "indexed": false,
          "name": "winner",
          "type": "address"
        }
      ],
      "name": "BuyToken",
      "type": "event"
    }
  ],
  "bytecode": "0x6060604052341561000f57600080fd5b60008054600160a060020a033316600160a060020a031990911617905561080a8061003b6000396000f3006060604052600436106100695763ffffffff60e060020a60003504166308227acb811461006e5780631bbec9871461008f5780632e7db440146100ae5780633c6b9d8c146100bf57806379502c55146100ee578063aebad3a414610101578063efef39a11461012f575b600080fd5b341561007957600080fd5b61008d600160a060020a036004351661013a565b005b341561009a57600080fd5b61008d600160a060020a0360043516610184565b61008d63ffffffff600435166101ce565b34156100ca57600080fd5b6100d2610428565b604051600160a060020a03909116815260200160405180910390f35b34156100f957600080fd5b6100d2610437565b341561010c57600080fd5b61011d63ffffffff60043516610446565b60405190815260200160405180910390f35b61008d60043561045e565b60005433600160a060020a0390811691161461015557600080fd5b6002805473ffffffffffffffffffffffffffffffffffffffff1916600160a060020a0392909216919091179055565b60005433600160a060020a0390811691161461019f57600080fd5b6001805473ffffffffffffffffffffffffffffffffffffffff1916600160a060020a0392909216919091179055565b63ffffffff8116600090815260036020526040808220546002548392839283928392839283929091600160a060020a0390911690631b8bd57c908b9085905160e0015260405163ffffffff83811660e060020a02825291909116600482015260240160e060405180830381600087803b151561024957600080fd5b6102c65a03f1151561025a57600080fd5b5050506040518051906020018051906020018051906020018051906020018051906020018051906020018051969e50949c50929a5090985096509450909250506001831515146102a957600080fd5b600101818111156102b957600080fd5b33600160a060020a031615156102ce57600080fd5b34849010156102dc57600080fd5b600160009054906101000a9004600160a060020a0316600160a060020a0316630fd238d333868c8c8c8c8c6001600060405163ffffffff8b811660e060020a028252600160a060020a039a909a1660048201526024810198909852958816604488015293871660648701529186166084860152851660a4850152841660c484015290921660e482015261010481019190915261012401600060405180830381600087803b151561038b57600080fd5b6102c65a03f1151561039c57600080fd5b50505063ffffffff8916600090815260036020526040908190208290557f4141150ed7d16fb9ef7d804930ab30a68ccbd8e90eb05c54f3c0f36d1f210789908a908690309033905163ffffffff90941684526020840192909252600160a060020a03908116604080850191909152911660608301526080909101905180910390a1505050505050505050565b600154600160a060020a031681565b600254600160a060020a031681565b63ffffffff1660009081526003602052604090205490565b60015460009081908190819081908190600160a060020a03166369b7ca858883604051610120015260405160e060020a63ffffffff8416028152600481019190915260240161012060405180830381600087803b15156104bd57600080fd5b6102c65a03f115156104ce57600080fd5b50505060405180519060200180519060200180519060200180519060200180519060200180519060200180519060200180519060200180519e50909c5050505033600160a060020a03908116908c161415945061052f935050505057600080fd5b33600160a060020a0316151561054457600080fd5b348590101561055257600080fd5b61056761056086605d61077f565b60646107b5565b935061057334866107cc565b925061057f85856107cc565b915061058f61056086607d61077f565b600154909150600160a060020a031663eb685c47888360405160e060020a63ffffffff851602815260048101929092526024820152604401600060405180830381600087803b15156105e057600080fd5b6102c65a03f115156105f157600080fd5b5050600154600160a060020a031690506323b872dd87338a60405160e060020a63ffffffff8616028152600160a060020a0393841660048201529190921660248201526044810191909152606401600060405180830381600087803b151561065857600080fd5b6102c65a03f1151561066957600080fd5b50505030600160a060020a031686600160a060020a03161415156106b857600160a060020a03861684156108fc0285604051600060405180830381858888f1935050505015156106b857600080fd5b600160a060020a03331683156108fc0284604051600060405180830381858888f1935050505015156106e957600080fd5b600054600160a060020a031682156108fc0283604051600060405180830381858888f19350505050151561071c57600080fd5b7f4141150ed7d16fb9ef7d804930ab30a68ccbd8e90eb05c54f3c0f36d1f210789878688336040519384526020840192909252600160a060020a03908116604080850191909152911660608301526080909101905180910390a150505050505050565b60008083151561079257600091506107ae565b508282028284828115156107a257fe5b04146107aa57fe5b8091505b5092915050565b60008082848115156107c357fe5b04949350505050565b6000828211156107d857fe5b509003905600a165627a7a72305820ed8e2f39e89010f1a4a44095b498df40d47cab48b7b52a47a38ea56ecc81db6c0029",
  "source": "pragma solidity ^0.4.18;\nimport \"./SafeMath.sol\";\n\ninterface CaptainTokenInterface {\nfunction getCaptainInfo(uint256 _tokenId) external view returns (\n    uint32 captainId,  \n    uint32 color, \n    uint32 atk_min,\n    uint32 atk_max,\n    uint32 defense,\n    uint32 level,\n    uint256 exp, \n    uint256 price,\n    address owner\n  );\n  function transferFrom(address _from, address _to, uint256 _tokenId) external;\n  function setTokenPrice(uint256 _tokenId, uint256 _price) external;\n  function CreateCaptainToken(address _owner,uint256 _price, uint32 _captainId, uint32 _color,uint32 _atk_min, uint32 _atk_max,uint32 _defense,uint32 _level,uint256 _exp) public;\n}\n\ninterface CaptainGameConfigInterface {\n  function getCardInfo(uint32 cardId) external constant returns (uint32, uint32, uint32,uint32,uint256,bool,uint256);\n}\ncontract CaptainSell {\n  using SafeMath for SafeMath;\n  address devAddress;\n\n  function CaptainSell() public {\n    devAddress = msg.sender;\n  }\n  CaptainTokenInterface public captains;\n  CaptainGameConfigInterface public config; \n  /// @dev The BuyToken event is fired whenever a token is sold.\n  event BuyToken(uint256 tokenId, uint256 oldPrice, address prevOwner, address winner);\n  \n  //mapping\n  mapping(uint32 => uint256) captainToCount; \n\n  modifier onlyOwner {\n    require(msg.sender == devAddress); \n    _;\n  }\n\n  //setting configuration\n  function setGameConfigContract(address _address) external onlyOwner {\n    config = CaptainGameConfigInterface(_address);\n  }\n\n  //setting configuration\n  function setCaptainTokenContract(address _address) external onlyOwner {\n    captains = CaptainTokenInterface(_address);\n  }\n\n\n  function prepurchase(uint32 _captainId) external payable {\n    uint32 color;\n    uint32 atk_min;\n    uint32 atk_max;\n    uint32 defense;\n    uint256 price;\n    bool unitSellable;\n    uint256 captainCount;\n    uint256 SellCount = captainToCount[_captainId];\n    (color,atk_min,atk_max,defense,price,unitSellable,captainCount) = config.getCardInfo(_captainId);\n    require(unitSellable == true);\n    SellCount += 1;\n    require(SellCount<=captainCount);\n\n    // Safety check to prevent against an unexpected 0x0 default.\n    require(msg.sender != address(0));\n    \n    // Making sure sent amount is greater than or equal to the sellingPrice\n    require(msg.value >= price);\n    captains.CreateCaptainToken(msg.sender,price,_captainId,color,atk_min,atk_max,defense,1,0);\n    captainToCount[_captainId] = SellCount;\n    //event \n    BuyToken(_captainId, price,address(this),msg.sender);\n  }\n\n  function getCaptainCount(uint32 _captainId) external view returns (uint256) {\n    return captainToCount[_captainId];\n  }\n  // Allows someone to send ether and obtain the token\n  function purchase(uint256 _tokenId) external payable {\n    address curOwner;\n    uint256 curPrice;\n    (,,,,curPrice,curOwner) = captains.getCaptainInfo(_tokenId);\n    // Making sure token owner is not sending to self\n    require(curOwner != msg.sender);\n\n    // Safety check to prevent against an unexpected 0x0 default.\n    require(msg.sender != address(0));\n    \n    // Making sure sent amount is greater than or equal to the sellingPrice\n    require(msg.value >= curPrice);\n\n    uint256 payment = uint256(SafeMath.div(SafeMath.mul(curPrice, 93), 100));\n    uint256 purchaseExcess = SafeMath.sub(msg.value, curPrice); \n    uint256 commission = SafeMath.sub(curPrice,payment); \n    uint256 nextPrice = SafeMath.div(SafeMath.mul(curPrice, 125), 100);\n    \n    //update prices\n    //IndexToPrice[_tokenId] = nextPrice;\n    captains.setTokenPrice(_tokenId,nextPrice);\n    //_transfer(oldOwner, msg.sender, _tokenId);\n    captains.transferFrom(curOwner,msg.sender, _tokenId);\n\t\t// Pay previous tokenOwner if owner is not contract\n    if (curOwner != address(this)) {\n      curOwner.transfer(payment); //(1-0.07)\n    }\n\n    msg.sender.transfer(purchaseExcess);\n    devAddress.transfer(commission);\n    //event \n    BuyToken(_tokenId, curPrice,curOwner,msg.sender);\n  }\n}",
  "sourcePath": "/Users/rainysiu/Projects/Blockchain/PirateConquest/contracts/CaptainSell.sol",
  "compiler": {
    "name": "solc",
    "version": "0.4.19+commit.c4cbbb05.Emscripten.clang"
  },
  "schemaVersion": "2.0.0",
  "updatedAt": "2018-06-06T05:08:44.622Z"
}