{
  "contractName": "CaptainToken",
  "abi": [
    {
      "constant": false,
      "inputs": [
        {
          "name": "_addr",
          "type": "address"
        },
        {
          "name": "_useful",
          "type": "bool"
        }
      ],
      "name": "setAdminContract",
      "outputs": [],
      "payable": false,
      "stateMutability": "nonpayable",
      "type": "function"
    },
    {
      "constant": false,
      "inputs": [],
      "name": "unpause",
      "outputs": [
        {
          "name": "",
          "type": "bool"
        }
      ],
      "payable": false,
      "stateMutability": "nonpayable",
      "type": "function"
    },
    {
      "constant": true,
      "inputs": [],
      "name": "paused",
      "outputs": [
        {
          "name": "",
          "type": "bool"
        }
      ],
      "payable": false,
      "stateMutability": "view",
      "type": "function"
    },
    {
      "constant": false,
      "inputs": [
        {
          "name": "_actionAddr",
          "type": "address"
        },
        {
          "name": "_useful",
          "type": "bool"
        }
      ],
      "name": "setActionContract",
      "outputs": [],
      "payable": false,
      "stateMutability": "nonpayable",
      "type": "function"
    },
    {
      "constant": false,
      "inputs": [],
      "name": "pause",
      "outputs": [
        {
          "name": "",
          "type": "bool"
        }
      ],
      "payable": false,
      "stateMutability": "nonpayable",
      "type": "function"
    },
    {
      "constant": true,
      "inputs": [
        {
          "name": "",
          "type": "uint256"
        }
      ],
      "name": "captainTokenIdToOwner",
      "outputs": [
        {
          "name": "",
          "type": "address"
        }
      ],
      "payable": false,
      "stateMutability": "view",
      "type": "function"
    },
    {
      "constant": true,
      "inputs": [],
      "name": "owner",
      "outputs": [
        {
          "name": "",
          "type": "address"
        }
      ],
      "payable": false,
      "stateMutability": "view",
      "type": "function"
    },
    {
      "constant": false,
      "inputs": [
        {
          "name": "newOwner",
          "type": "address"
        }
      ],
      "name": "transferOwnership",
      "outputs": [],
      "payable": false,
      "stateMutability": "nonpayable",
      "type": "function"
    },
    {
      "constant": true,
      "inputs": [
        {
          "name": "",
          "type": "uint256"
        }
      ],
      "name": "captains",
      "outputs": [
        {
          "name": "captainId",
          "type": "uint32"
        },
        {
          "name": "color",
          "type": "uint32"
        },
        {
          "name": "atk_min",
          "type": "uint32"
        },
        {
          "name": "atk_max",
          "type": "uint32"
        },
        {
          "name": "defense",
          "type": "uint32"
        },
        {
          "name": "level",
          "type": "uint32"
        },
        {
          "name": "exp",
          "type": "uint256"
        }
      ],
      "payable": false,
      "stateMutability": "view",
      "type": "function"
    },
    {
      "inputs": [],
      "payable": false,
      "stateMutability": "nonpayable",
      "type": "constructor"
    },
    {
      "anonymous": false,
      "inputs": [
        {
          "indexed": false,
          "name": "tokenId",
          "type": "uint256"
        },
        {
          "indexed": false,
          "name": "captainId",
          "type": "uint32"
        },
        {
          "indexed": false,
          "name": "_owner",
          "type": "address"
        },
        {
          "indexed": false,
          "name": "_price",
          "type": "uint256"
        }
      ],
      "name": "CreateCaptain",
      "type": "event"
    },
    {
      "anonymous": false,
      "inputs": [
        {
          "indexed": true,
          "name": "_from",
          "type": "address"
        },
        {
          "indexed": true,
          "name": "_to",
          "type": "address"
        },
        {
          "indexed": false,
          "name": "_tokenId",
          "type": "uint256"
        }
      ],
      "name": "Transfer",
      "type": "event"
    },
    {
      "anonymous": false,
      "inputs": [
        {
          "indexed": true,
          "name": "_owner",
          "type": "address"
        },
        {
          "indexed": true,
          "name": "_approved",
          "type": "address"
        },
        {
          "indexed": false,
          "name": "_tokenId",
          "type": "uint256"
        }
      ],
      "name": "Approval",
      "type": "event"
    },
    {
      "anonymous": false,
      "inputs": [
        {
          "indexed": true,
          "name": "_owner",
          "type": "address"
        },
        {
          "indexed": true,
          "name": "_operator",
          "type": "address"
        },
        {
          "indexed": false,
          "name": "_approved",
          "type": "bool"
        }
      ],
      "name": "ApprovalForAll",
      "type": "event"
    },
    {
      "anonymous": false,
      "inputs": [],
      "name": "Pause",
      "type": "event"
    },
    {
      "anonymous": false,
      "inputs": [],
      "name": "Unpause",
      "type": "event"
    },
    {
      "anonymous": false,
      "inputs": [
        {
          "indexed": true,
          "name": "previousOwner",
          "type": "address"
        },
        {
          "indexed": true,
          "name": "newOwner",
          "type": "address"
        }
      ],
      "name": "OwnershipTransferred",
      "type": "event"
    },
    {
      "constant": false,
      "inputs": [
        {
          "name": "_owner",
          "type": "address"
        },
        {
          "name": "_price",
          "type": "uint256"
        },
        {
          "name": "_captainId",
          "type": "uint32"
        },
        {
          "name": "_color",
          "type": "uint32"
        },
        {
          "name": "_atk_min",
          "type": "uint32"
        },
        {
          "name": "_atk_max",
          "type": "uint32"
        },
        {
          "name": "_defense",
          "type": "uint32"
        },
        {
          "name": "_level",
          "type": "uint32"
        },
        {
          "name": "_exp",
          "type": "uint256"
        }
      ],
      "name": "CreateCaptainToken",
      "outputs": [],
      "payable": false,
      "stateMutability": "nonpayable",
      "type": "function"
    },
    {
      "constant": false,
      "inputs": [
        {
          "name": "_tokenId",
          "type": "uint256"
        },
        {
          "name": "_price",
          "type": "uint256"
        }
      ],
      "name": "setTokenPrice",
      "outputs": [],
      "payable": false,
      "stateMutability": "nonpayable",
      "type": "function"
    },
    {
      "constant": true,
      "inputs": [
        {
          "name": "_tokenId",
          "type": "uint256"
        }
      ],
      "name": "getCaptainInfo",
      "outputs": [
        {
          "name": "captainId",
          "type": "uint32"
        },
        {
          "name": "color",
          "type": "uint32"
        },
        {
          "name": "atk_min",
          "type": "uint32"
        },
        {
          "name": "atk_max",
          "type": "uint32"
        },
        {
          "name": "defense",
          "type": "uint32"
        },
        {
          "name": "level",
          "type": "uint32"
        },
        {
          "name": "exp",
          "type": "uint256"
        },
        {
          "name": "price",
          "type": "uint256"
        },
        {
          "name": "owner",
          "type": "address"
        }
      ],
      "payable": false,
      "stateMutability": "view",
      "type": "function"
    },
    {
      "constant": true,
      "inputs": [
        {
          "name": "_owner",
          "type": "address"
        }
      ],
      "name": "balanceOf",
      "outputs": [
        {
          "name": "",
          "type": "uint256"
        }
      ],
      "payable": false,
      "stateMutability": "view",
      "type": "function"
    },
    {
      "constant": true,
      "inputs": [
        {
          "name": "_tokenId",
          "type": "uint256"
        }
      ],
      "name": "ownerOf",
      "outputs": [
        {
          "name": "",
          "type": "address"
        }
      ],
      "payable": false,
      "stateMutability": "view",
      "type": "function"
    },
    {
      "constant": false,
      "inputs": [
        {
          "name": "_from",
          "type": "address"
        },
        {
          "name": "_to",
          "type": "address"
        },
        {
          "name": "_tokenId",
          "type": "uint256"
        }
      ],
      "name": "safeTransferFrom",
      "outputs": [],
      "payable": true,
      "stateMutability": "payable",
      "type": "function"
    },
    {
      "constant": false,
      "inputs": [
        {
          "name": "_from",
          "type": "address"
        },
        {
          "name": "_to",
          "type": "address"
        },
        {
          "name": "_tokenId",
          "type": "uint256"
        },
        {
          "name": "data",
          "type": "bytes"
        }
      ],
      "name": "safeTransferFrom",
      "outputs": [],
      "payable": true,
      "stateMutability": "payable",
      "type": "function"
    },
    {
      "constant": false,
      "inputs": [
        {
          "name": "_from",
          "type": "address"
        },
        {
          "name": "_to",
          "type": "address"
        },
        {
          "name": "_tokenId",
          "type": "uint256"
        }
      ],
      "name": "transferFrom",
      "outputs": [],
      "payable": true,
      "stateMutability": "payable",
      "type": "function"
    },
    {
      "constant": false,
      "inputs": [
        {
          "name": "_approved",
          "type": "address"
        },
        {
          "name": "_tokenId",
          "type": "uint256"
        }
      ],
      "name": "approve",
      "outputs": [],
      "payable": true,
      "stateMutability": "payable",
      "type": "function"
    },
    {
      "constant": false,
      "inputs": [
        {
          "name": "_operator",
          "type": "address"
        },
        {
          "name": "_approved",
          "type": "bool"
        }
      ],
      "name": "setApprovalForAll",
      "outputs": [],
      "payable": false,
      "stateMutability": "nonpayable",
      "type": "function"
    },
    {
      "constant": true,
      "inputs": [
        {
          "name": "_tokenId",
          "type": "uint256"
        }
      ],
      "name": "getApproved",
      "outputs": [
        {
          "name": "",
          "type": "address"
        }
      ],
      "payable": false,
      "stateMutability": "view",
      "type": "function"
    },
    {
      "constant": true,
      "inputs": [
        {
          "name": "_owner",
          "type": "address"
        },
        {
          "name": "_operator",
          "type": "address"
        }
      ],
      "name": "isApprovedForAll",
      "outputs": [
        {
          "name": "",
          "type": "bool"
        }
      ],
      "payable": false,
      "stateMutability": "view",
      "type": "function"
    },
    {
      "constant": true,
      "inputs": [],
      "name": "name",
      "outputs": [
        {
          "name": "",
          "type": "string"
        }
      ],
      "payable": false,
      "stateMutability": "pure",
      "type": "function"
    },
    {
      "constant": true,
      "inputs": [],
      "name": "symbol",
      "outputs": [
        {
          "name": "",
          "type": "string"
        }
      ],
      "payable": false,
      "stateMutability": "pure",
      "type": "function"
    },
    {
      "constant": true,
      "inputs": [],
      "name": "totalSupply",
      "outputs": [
        {
          "name": "",
          "type": "uint256"
        }
      ],
      "payable": false,
      "stateMutability": "view",
      "type": "function"
    },
    {
      "constant": true,
      "inputs": [
        {
          "name": "_index",
          "type": "uint256"
        }
      ],
      "name": "tokenByIndex",
      "outputs": [
        {
          "name": "",
          "type": "uint256"
        }
      ],
      "payable": false,
      "stateMutability": "view",
      "type": "function"
    },
    {
      "constant": true,
      "inputs": [
        {
          "name": "_owner",
          "type": "address"
        },
        {
          "name": "_index",
          "type": "uint256"
        }
      ],
      "name": "tokenOfOwnerByIndex",
      "outputs": [
        {
          "name": "",
          "type": "uint256"
        }
      ],
      "payable": false,
      "stateMutability": "view",
      "type": "function"
    },
    {
      "constant": true,
      "inputs": [
        {
          "name": "_owner",
          "type": "address"
        }
      ],
      "name": "tokensOfOwner",
      "outputs": [
        {
          "name": "",
          "type": "uint256[]"
        }
      ],
      "payable": false,
      "stateMutability": "view",
      "type": "function"
    },
    {
      "constant": true,
      "inputs": [
        {
          "name": "_captainId",
          "type": "uint256"
        }
      ],
      "name": "tokensOfCaptain",
      "outputs": [
        {
          "name": "captainTokens",
          "type": "uint256[]"
        }
      ],
      "payable": false,
      "stateMutability": "view",
      "type": "function"
    }
  ],
  "bytecode": "0x60606040526000805460a060020a60ff021916905534156200002057600080fd5b60008054600160a060020a03191633600160a060020a031617905560038054600101906200004f908262000071565b5060048054600160a060020a03191633600160a060020a0316179055620000da565b815481835581811511620000a057600202816002028360005260206000209182019101620000a09190620000a5565b505050565b620000d791905b80821115620000d3578054600160c060020a031916815560006001820155600201620000ac565b5090565b90565b61193980620000ea6000396000f3006060604052600436106101695763ffffffff7c010000000000000000000000000000000000000000000000000000000060003504166306fdde03811461016e578063081812fc146101f85780630865dadc1461022a578063095ea7b3146102505780630fd238d31461026757806318160ddd146102b457806323b872dd146102d95780632f745c59146102f65780633f4ba83a1461031857806342842e0e1461033f5780634f6ccce71461035c5780635c975abb146103725780636352211e1461038557806369b7ca851461039b5780636fb642de1461041457806370a08231146104385780638456cb59146104575780638462151c1461046a57806386b259f5146104dc5780638da5cb5b146104f257806395d89b4114610505578063a22cb46514610518578063b88d4fde1461053c578063c918dba714610568578063e985e9c51461057e578063eb685c47146105a3578063f2fde38b146105bc578063f412511e146105db575b600080fd5b341561017957600080fd5b61018161063a565b60405160208082528190810183818151815260200191508051906020019080838360005b838110156101bd5780820151838201526020016101a5565b50505050905090810190601f1680156101ea5780820380516001836020036101000a031916815260200191505b509250505060405180910390f35b341561020357600080fd5b61020e60043561067c565b604051600160a060020a03909116815260200160405180910390f35b341561023557600080fd5b61024e600160a060020a036004351660243515156106dd565b005b61024e600160a060020a0360043516602435610738565b341561027257600080fd5b61024e600160a060020a036004351660243563ffffffff60443581169060643581169060843581169060a43581169060c43581169060e435166101043561083d565b34156102bf57600080fd5b6102c7610880565b60405190815260200160405180910390f35b61024e600160a060020a036004358116906024351660443561088e565b341561030157600080fd5b6102c7600160a060020a03600435166024356109a5565b341561032357600080fd5b61032b610a18565b604051901515815260200160405180910390f35b61024e600160a060020a0360043581169060243516604435610a9c565b341561036757600080fd5b6102c7600435610abb565b341561037d57600080fd5b61032b610ad9565b341561039057600080fd5b61020e600435610ae9565b34156103a657600080fd5b6103b1600435610b04565b60405163ffffffff998a168152978916602089015295881660408089019190915294881660608801529287166080870152951660a085015260c084019490945260e0830193909352600160a060020a031661010082015261012001905180910390f35b341561041f57600080fd5b61024e600160a060020a03600435166024351515610bc6565b341561044357600080fd5b6102c7600160a060020a0360043516610c18565b341561046257600080fd5b61032b610c4b565b341561047557600080fd5b610489600160a060020a0360043516610cd4565b60405160208082528190810183818151815260200191508051906020019060200280838360005b838110156104c85780820151838201526020016104b0565b505050509050019250505060405180910390f35b34156104e757600080fd5b61020e600435610d9b565b34156104fd57600080fd5b61020e610db6565b341561051057600080fd5b610181610dc5565b341561052357600080fd5b61024e600160a060020a03600435166024351515610e06565b61024e600160a060020a0360048035821691602480359091169160443591606435908101910135610e8d565b341561057357600080fd5b610489600435610ecf565b341561058957600080fd5b61032b600160a060020a0360043581169060243516610fab565b34156105ae57600080fd5b61024e600435602435610fd9565b34156105c757600080fd5b61024e600160a060020a0360043516611012565b34156105e657600080fd5b6105f16004356110ad565b60405163ffffffff978816815295871660208701529386166040808701919091529286166060860152908516608085015290931660a083015260c082015260e001905180910390f35b610642611819565b60408051908101604052601581527f50697261746520436f6e717565737420546f6b656e0000000000000000000000602082015290505b90565b6000816001811015801561069257506003548111155b151561069d57600080fd5b600081815260056020526040902054600160a060020a031615156106c057600080fd5b50506000908152600b6020526040902054600160a060020a031690565b60005433600160a060020a039081169116146106f857600080fd5b600160a060020a038216151561070d57600080fd5b600160a060020a03919091166000908152600160205260409020805460ff1916911515919091179055565b6000805460a060020a900460ff161561075057600080fd5b50600081815260056020526040902054600160a060020a031680151561077557600080fd5b80600160a060020a031633600160a060020a031614806107bb5750600160a060020a038082166000908152600c60209081526040808320339094168352929052205460ff165b15156107c657600080fd5b6000828152600b602052604090819020805473ffffffffffffffffffffffffffffffffffffffff1916600160a060020a0386811691821790925591908316907f8c5be1e5ebec7d5bd14f71427d1e84f3dd0314c0f7b2291e5b200ac8c7c3b9259085905190815260200160405180910390a3505050565b600160a060020a03331660009081526002602052604090205460ff16151561086457600080fd5b61087589898989898989898961112d565b505050505050505050565b600d54600354036000190190565b6000805460a060020a900460ff16156108a657600080fd5b81600181101580156108ba57506003548111155b15156108c557600080fd5b600081815260056020526040902054600160a060020a031615156108e857600080fd5b600083815260056020526040902054839033600160a060020a039081169116148061092d57506000818152600b602052604090205433600160a060020a039081169116145b151561093857600080fd5b600084815260056020526040902054600160a060020a031692508215801590610972575085600160a060020a031683600160a060020a0316145b151561097d57600080fd5b600160a060020a038516151561099257600080fd5b61099d8686866113aa565b505050505050565b600160a060020a03821660009081526007602052604081205481908310156109cc57600080fd5b600160a060020a03841615610a1157600160a060020a03841660009081526007602052604090208054849081106109ff57fe5b90600052602060002090015490508091505b5092915050565b6000805433600160a060020a03908116911614610a3457600080fd5b60005460a060020a900460ff161515610a4c57600080fd5b6000805474ff0000000000000000000000000000000000000000191690557f7805862f689e2f13df9f062ff482ad3ad112aca9e0847911ed832e158c525b3360405160405180910390a150600190565b610ab68383836020604051908101604052600081526115a7565b505050565b600d546003546000916000199103018210610ad557600080fd5b5090565b60005460a060020a900460ff1681565b600090815260056020526040902054600160a060020a031690565b60008060008060008060008060008060038b815481101515610b2257fe5b60009182526020808320600290920290910180546001909101549d83526008825260408084205460059093529092205463ffffffff8084169f640100000000850482169f68010000000000000000860483169f506c01000000000000000000000000860483169e50700100000000000000000000000000000000860483169d5060a060020a9095049091169a50929850909650600160a060020a0316945092505050565b600160a060020a03331660009081526001602052604090205460ff161515610bed57600080fd5b600160a060020a03919091166000908152600260205260409020805460ff1916911515919091179055565b6000600160a060020a0382161515610c2f57600080fd5b50600160a060020a031660009081526007602052604090205490565b6000805433600160a060020a03908116911614610c6757600080fd5b60005460a060020a900460ff1615610c7e57600080fd5b6000805474ff0000000000000000000000000000000000000000191660a060020a1790557f6985a02210a168e66602d3235cb6db0e70f92b3ba4d376a33c0f3d9434bff62560405160405180910390a150600190565b610cdc611819565b6000610ce6611819565b600160a060020a0384166000908152600760205260408082205493508190849051805910610d115750595b90808252806020026020018201604052509250600160a060020a03861615610d91575060005b83811015610d9157600160a060020a0386166000908152600760205260409020805483908110610d6357fe5b906000526020600020900154838281518110610d7b57fe5b6020908102909101015260019182019101610d37565b5090949350505050565b600560205260009081526040902054600160a060020a031681565b600054600160a060020a031681565b610dcd611819565b60408051908101604052600381527f50435400000000000000000000000000000000000000000000000000000000006020820152905090565b60005460a060020a900460ff1615610e1d57600080fd5b33600160a060020a039081166000818152600c602090815260408083209487168084529490915290819020805460ff19168515151790557f17307eab39ab6107e8899845ad3d59bd9653f200f220920489ca2b5937696c3190849051901515815260200160405180910390a35050565b610ec885858585858080601f0160208091040260200160405190810160405281815292919060208401838380828437506115a7945050505050565b5050505050565b610ed7611819565b6000610ee1611819565b60008481526009602052604081205492508080841515610f22576000604051805910610f0a5750595b90808252806020026020018201604052509550610fa1565b84604051805910610f305750595b9080825280602002602001820160405250600d546003549195506000199103019250600091508190505b828111610f9d576000818152600a6020526040902054871415610f955780848381518110610f8457fe5b602090810290910101526001909101905b600101610f5a565b8395505b5050505050919050565b600160a060020a039182166000908152600c6020908152604080832093909416825291909152205460ff1690565b600160a060020a03331660009081526002602052604090205460ff16151561100057600080fd5b60009182526008602052604090912055565b60005433600160a060020a0390811691161461102d57600080fd5b600160a060020a038116151561104257600080fd5b600054600160a060020a0380831691167f8be0079c531659141344cd1fd0a4f28419497f9722a3daafe3b4186f6b6457e060405160405180910390a36000805473ffffffffffffffffffffffffffffffffffffffff1916600160a060020a0392909216919091179055565b60038054829081106110bb57fe5b60009182526020909120600290910201805460019091015463ffffffff808316935064010000000083048116926801000000000000000081048216926c010000000000000000000000008204831692700100000000000000000000000000000000830481169260a060020a9004169087565b600061113761182b565b600354915060e0604051908101604052808a63ffffffff1681526020018963ffffffff1681526020018863ffffffff1681526020018763ffffffff1681526020018663ffffffff1681526020018563ffffffff168152602001848152509050600380548060010182816111aa9190611867565b600092835260209092208391600202018151815463ffffffff191663ffffffff919091161781556020820151815463ffffffff919091166401000000000267ffffffff00000000199091161781556040820151815463ffffffff9190911668010000000000000000026bffffffff0000000000000000199091161781556060820151815463ffffffff919091166c01000000000000000000000000026fffffffff000000000000000000000000199091161781556080820151815463ffffffff919091167001000000000000000000000000000000000273ffffffff000000000000000000000000000000001990911617815560a0820151815463ffffffff9190911660a060020a0277ffffffff00000000000000000000000000000000000000001990911617815560c082015181600101555050507fe1ea955b818ed7aa04751f4187794a758e077e289195544fd00ef49de3df5a75828a8d8d60405193845263ffffffff9092166020840152600160a060020a031660408084019190915260608301919091526080909101905180910390a160008281526008602090815260408083208d9055600a825280832063ffffffff8d169081905583526009909152902054611379906001611803565b63ffffffff8a1660009081526009602052604081209190915561139d908c846113aa565b5050505050505050505050565b60008080600160a060020a038616156114c257600084815260066020908152604080832054600160a060020a038a16845260079092529091208054919450925084908390859081106113f857fe5b6000918252602090912001541461140e57600080fd5b815460001901831461146a5781548290600019810190811061142c57fe5b906000526020600020900154905080828481548110151561144957fe5b60009182526020808320909101929092558281526006909152604090208390555b81546000190161147a8382611893565b506000848152600b6020526040902054600160a060020a0316156114c2576000848152600b60205260409020805473ffffffffffffffffffffffffffffffffffffffff191690555b6000848152600560209081526040808320805473ffffffffffffffffffffffffffffffffffffffff1916600160a060020a038a169081179091558352600790915290208054600181016115158382611893565b506000918252602080832091909101869055600160a060020a03808816808452600783526040808520548986526006909452909320600019909201909155871615156115615730611563565b865b600160a060020a03167fddf252ad1be2c89b69c2b068fc378daa952ba7f163c4a11628f55a4df523b3ef8660405190815260200160405180910390a3505050505050565b60008083600181101580156115be57506003548111155b15156115c957600080fd5b600081815260056020526040902054600160a060020a031615156115ec57600080fd5b600085815260056020526040902054859033600160a060020a039081169116148061163157506000818152600b602052604090205433600160a060020a039081169116145b151561163c57600080fd5b600086815260056020526040902054600160a060020a031693508315801590611676575087600160a060020a031684600160a060020a0316145b151561168157600080fd5b600160a060020a038716151561169657600080fd5b6116a18888886113aa565b86600160a060020a031663f0b9e5ba8988886000604051602001526040518463ffffffff167c01000000000000000000000000000000000000000000000000000000000281526004018084600160a060020a0316600160a060020a0316815260200183815260200180602001828103825283818151815260200191508051906020019080838360005b8381101561174257808201518382015260200161172a565b50505050905090810190601f16801561176f5780820380516001836020036101000a031916815260200191505b50945050505050602060405180830381600087803b151561178f57600080fd5b6102c65a03f115156117a057600080fd5b50505060405180519350507ff0b9e5ba000000000000000000000000000000000000000000000000000000007fffffffff000000000000000000000000000000000000000000000000000000008416146117f957600080fd5b5050505050505050565b60008282018381101561181257fe5b9392505050565b60206040519081016040526000815290565b60e06040519081016040908152600080835260208301819052908201819052606082018190526080820181905260a0820181905260c082015290565b815481835581811511610ab657600202816002028360005260206000209182019101610ab691906118b7565b815481835581811511610ab657600083815260209020610ab69181019083016118f3565b61067991905b80821115610ad557805477ffffffffffffffffffffffffffffffffffffffffffffffff19168155600060018201556002016118bd565b61067991905b80821115610ad557600081556001016118f95600a165627a7a72305820a8c45fada820d646e345b7d3f5e90c71790c733ba826c24f859c9aa479f790240029",
  "source": "pragma solidity ^0.4.18;\nimport \"./AccessAdmin.sol\";\nimport \"./SafeMath.sol\";\nimport \"./ERC721.sol\";\n\ncontract CaptainToken is AccessAdmin, ERC721 {\n  using SafeMath for SafeMath;\n  //event \n  event CreateCaptain(uint tokenId,uint32 captainId, address _owner, uint256 _price);\n  //ERC721\n  event Transfer(address indexed _from, address indexed _to, uint256 _tokenId);\n  event Approval(address indexed _owner, address indexed _approved, uint256 _tokenId);\n  event ApprovalForAll(address indexed _owner, address indexed _operator, bool _approved);\n\n  struct Captain {\n    uint32 captainId;  \n    uint32 color; // 1,2,3,4  \n    uint32 atk_min; \n    uint32 atk_max; \n    uint32 defense;\n    uint32 level;\n    uint256 exp;\n  }\n    \n  Captain[] public captains; //dynamic Array\n  address devAddress;\n  function CaptainToken() public {\n    captains.length += 1;\n    devAddress = msg.sender;\n    //setActionContract(msg.sender,true);\n    //setAdminContract(msg.sender,true);\n  }\n\n  /**mapping**/\n  /// @dev tokenId to owner  tokenId -> address\n  mapping (uint256 => address) public captainTokenIdToOwner;\n  /// @dev Equipment token ID search in owner array captainId -> tokenId\n  mapping (uint256 => uint256) captainIdToOwnerIndex;  \n  /// @dev captains owner by the owner (array)\n  mapping (address => uint256[]) ownerToCaptainArray;\n  /// @dev price of each token\n  mapping (uint256 => uint256) captainTokenIdToPrice;\n  /// @dev token count of captain\n  mapping (uint256 => uint256) tokenCountOfCaptain;\n  /// @dev tokens by the captain\n  mapping (uint256 => uint256) IndexToCaptain;\n  /// @dev The authorized address for each Captain\n  mapping (uint256 => address) captainTokenIdToApprovals;\n  /// @dev The authorized operators for each address\n  mapping (address => mapping (address => bool)) operatorToApprovals;\n\n  /*** CONSTRUCTOR ***/\n  uint256 private constant startPrice = 0.5 ether;\n  /// @dev Amount of tokens destroyed\n  uint256 destroyCaptainCount;\n\n  // modifier\n  /// @dev Check if token ID is valid\n  modifier isValidToken(uint256 _tokenId) {\n    require(_tokenId >= 1 && _tokenId <= captains.length);\n    require(captainTokenIdToOwner[_tokenId] != address(0)); \n    _;\n  }\n  modifier canTransfer(uint256 _tokenId) {\n    require(msg.sender == captainTokenIdToOwner[_tokenId] || msg.sender == captainTokenIdToApprovals[_tokenId]);\n    _;\n  }\n  /// @dev Creates a new Captain with the given name.\n  function CreateCaptainToken(address _owner,uint256 _price, uint32 _captainId, uint32 _color,uint32 _atk_min, uint32 _atk_max,uint32 _defense,uint32 _level,uint256 _exp) public onlyAccess {\n    _createCaptainToken(_owner,_price,_captainId,_color,_atk_min,_atk_max,_defense,_level,_exp);\n  }\n\n    /// For creating CaptainToken\n  function _createCaptainToken(address _owner, uint256 _price, uint32 _captainId, uint32 _color, uint32 _atk_min, uint32 _atk_max,uint32 _defense,uint32 _level,uint256 _exp) \n  internal {\n    uint256 newTokenId = captains.length;\n    Captain memory _captain = Captain({\n      captainId: _captainId,\n      color: _color,\n      atk_min: _atk_min,\n      atk_max: _atk_max,\n      defense: _defense,\n      level: _level,\n      exp: _exp \n    });\n    captains.push(_captain);\n    //event\n    CreateCaptain(newTokenId, _captainId, _owner, _price);\n    captainTokenIdToPrice[newTokenId] = _price;\n    IndexToCaptain[newTokenId] = _captainId;\n    tokenCountOfCaptain[_captainId] = SafeMath.add(tokenCountOfCaptain[_captainId],1);\n    // This will assign ownership, and also emit the Transfer event as\n    // per ERC721 draft\n    _transfer(address(0), _owner, newTokenId);\n  } \n  /// @dev set the token price\n  function setTokenPrice(uint256 _tokenId, uint256 _price) external {\n    require(actionContracts[msg.sender]);\n    captainTokenIdToPrice[_tokenId] = _price;\n  }\n  /// @dev Do the real transfer with out any condition checking\n  /// @param _from The old owner of this Captain(If created: 0x0)\n  /// @param _to The new owner of this Captain \n  /// @param _tokenId The tokenId of the Captain\n  function _transfer(address _from, address _to, uint256 _tokenId) internal {\n    if (_from != address(0)) {\n      uint256 indexFrom = captainIdToOwnerIndex[_tokenId];  // tokenId -> captainId\n      uint256[] storage cpArray = ownerToCaptainArray[_from];\n      require(cpArray[indexFrom] == _tokenId);\n\n      // If the Captain is not the element of array, change it to with the last\n      if (indexFrom != cpArray.length - 1) {\n        uint256 lastTokenId = cpArray[cpArray.length - 1];\n        cpArray[indexFrom] = lastTokenId; \n        captainIdToOwnerIndex[lastTokenId] = indexFrom;\n      }\n      cpArray.length -= 1; \n    \n      if (captainTokenIdToApprovals[_tokenId] != address(0)) {\n        delete captainTokenIdToApprovals[_tokenId];\n      }      \n    }\n\n    // Give the Captain to '_to'\n    captainTokenIdToOwner[_tokenId] = _to;\n    ownerToCaptainArray[_to].push(_tokenId);\n    captainIdToOwnerIndex[_tokenId] = ownerToCaptainArray[_to].length - 1;\n        \n    Transfer(_from != address(0) ? _from : this, _to, _tokenId);\n  }\n\n  /// @notice Returns all the relevant information about a specific tokenId.\n  /// @param _tokenId The tokenId of the rarecard.\n  function getCaptainInfo(uint256 _tokenId) external view returns (\n    uint32 captainId,  \n    uint32 color, \n    uint32 atk_min,\n    uint32 atk_max,\n    uint32 defense,\n    uint32 level,\n    uint256 exp, \n    uint256 price,\n    address owner\n  ) {\n    Captain storage captain = captains[_tokenId];\n    captainId = captain.captainId;\n    color = captain.color;\n    atk_min = captain.atk_min;\n    atk_max = captain.atk_max;\n    defense = captain.defense;\n    level = captain.level;\n    exp = captain.exp;\n    price = captainTokenIdToPrice[_tokenId];\n    owner = captainTokenIdToOwner[_tokenId];\n  }\n\n  /// ERC721 \n\n  function balanceOf(address _owner) external view returns (uint256) {\n    require(_owner != address(0));\n    return ownerToCaptainArray[_owner].length;\n  }\n\n  function ownerOf(uint256 _tokenId) external view returns (address) {\n    return captainTokenIdToOwner[_tokenId];\n  }\n  function safeTransferFrom(address _from, address _to, uint256 _tokenId, bytes data) external payable {\n    _safeTransferFrom(_from, _to, _tokenId, data);\n  }\n  function safeTransferFrom(address _from, address _to, uint256 _tokenId) external payable {\n    _safeTransferFrom(_from, _to, _tokenId, \"\");\n  }\n\n  /// @dev Actually perform the safeTransferFrom\n  function _safeTransferFrom(address _from, address _to, uint256 _tokenId, bytes data) \n    internal\n    isValidToken(_tokenId) \n    canTransfer(_tokenId)\n    {\n    address owner = captainTokenIdToOwner[_tokenId];\n    require(owner != address(0) && owner == _from);\n    require(_to != address(0));\n        \n    _transfer(_from, _to, _tokenId);\n\n    // Do the callback after everything is done to avoid reentrancy attack\n    /*uint256 codeSize;\n    assembly { codeSize := extcodesize(_to) }\n    if (codeSize == 0) {\n      return;\n    }*/\n    bytes4 retval = ERC721TokenReceiver(_to).onERC721Received(_from, _tokenId, data);\n    // bytes4(keccak256(\"onERC721Received(address,uint256,bytes)\")) = 0xf0b9e5ba;\n    require(retval == 0xf0b9e5ba);\n  }\n    \n  /// @dev Transfer ownership of an Captain, '_to' must be a vaild address, or the WAR will lost\n  /// @param _from The current owner of the Captain\n  /// @param _to The new owner\n  /// @param _tokenId The Captain to transfer\n  function transferFrom(address _from, address _to, uint256 _tokenId)\n        external\n        whenNotPaused\n        isValidToken(_tokenId)\n        canTransfer(_tokenId)\n        payable\n    {\n    address owner = captainTokenIdToOwner[_tokenId];\n    require(owner != address(0) && owner == _from);\n    require(_to != address(0));\n        \n    _transfer(_from, _to, _tokenId);\n  }\n\n  /// @dev Set or reaffirm the approved address for an WAR\n  /// @param _approved The new approved WAR controller\n  /// @param _tokenId The WAR to approve\n  function approve(address _approved, uint256 _tokenId)\n    external\n    whenNotPaused \n    payable\n  {\n    address owner = captainTokenIdToOwner[_tokenId];\n    require(owner != address(0));\n    require(msg.sender == owner || operatorToApprovals[owner][msg.sender]);\n\n    captainTokenIdToApprovals[_tokenId] = _approved;\n    Approval(owner, _approved, _tokenId);\n  }\n  /// @dev Enable or disable approval for a third party (\"operator\") to manage all your asset.\n  /// @param _operator Address to add to the set of authorized operators.\n  /// @param _approved True if the operators is approved, false to revoke approval\n  function setApprovalForAll(address _operator, bool _approved) \n    external \n    whenNotPaused\n  {\n    operatorToApprovals[msg.sender][_operator] = _approved;\n    ApprovalForAll(msg.sender, _operator, _approved);\n  }\n\n  /// @dev Get the approved address for a single Captain\n  /// @param _tokenId The WAR to find the approved address for\n  /// @return The approved address for this WAR, or the zero address if there is none\n  function getApproved(uint256 _tokenId) external view isValidToken(_tokenId) returns (address) {\n    return captainTokenIdToApprovals[_tokenId];\n  }\n  \n  /// @dev Query if an address is an authorized operator for another address\n  /// @param _owner The address that owns the WARs\n  /// @param _operator The address that acts on behalf of the owner\n  /// @return True if `_operator` is an approved operator for `_owner`, false otherwise\n  function isApprovedForAll(address _owner, address _operator) external view returns (bool) {\n    return operatorToApprovals[_owner][_operator];\n  }\n  /// @notice A descriptive name for a collection of NFTs in this contract\n  function name() public pure returns(string) {\n    return \"Pirate Conquest Token\";\n  }\n  /// @notice An abbreviated name for NFTs in this contract\n  function symbol() public pure returns(string) {\n    return \"PCT\";\n  }\n  /// @notice A distinct Uniform Resource Identifier (URI) for a given asset.\n  /// @dev Throws if `_tokenId` is not a valid NFT. URIs are defined in RFC\n  ///  3986. The URI may point to a JSON file that conforms to the \"ERC721\n  ///  Metadata JSON Schema\".\n  //function tokenURI(uint256 _tokenId) external view returns (string);\n\n  /// @notice Count NFTs tracked by this contract\n  /// @return A count of valid NFTs tracked by this contract, where each one of\n  ///  them has an assigned and queryable owner not equal to the zero address\n  function totalSupply() external view returns (uint256) {\n    return captains.length - destroyCaptainCount - 1;\n  }\n  /// @notice Enumerate valid NFTs\n  /// @dev Throws if `_index` >= `totalSupply()`.\n  /// @param _index A counter less than `totalSupply()`\n  /// @return The token identifier for the `_index`th NFT,\n  ///  (sort order not specified)\n  function tokenByIndex(uint256 _index) external view returns (uint256) {\n    require(_index<(captains.length - destroyCaptainCount - 1));\n    return _index;\n  }\n  /// @notice Enumerate NFTs assigned to an owner\n  /// @dev Throws if `_index` >= `balanceOf(_owner)` or if\n  ///  `_owner` is the zero address, representing invalid NFTs.\n  /// @param _owner An address where we are interested in NFTs owned by them\n  /// @param _index A counter less than `balanceOf(_owner)`\n  /// @return The token identifier for the `_index`th NFT assigned to `_owner`,\n  ///   (sort order not specified)\n  function tokenOfOwnerByIndex(address _owner, uint256 _index) external view returns (uint256) {\n    require(_index >= ownerToCaptainArray[_owner].length);\n    if (_owner != address(0)) {\n      uint256 tokenId = ownerToCaptainArray[_owner][_index];\n      return tokenId;\n    }\n  }\n\n  /// @param _owner The owner whose celebrity tokens we are interested in.\n  /// @dev This method MUST NEVER be called by smart contract code. First, it's fairly\n  ///  expensive (it walks the entire Persons array looking for persons belonging to owner),\n  ///  but it also returns a dynamic array, which is only supported for web3 calls, and\n  ///  not contract-to-contract calls.\n  function tokensOfOwner(address _owner) external view returns (uint256[]) {\n    uint256 len = ownerToCaptainArray[_owner].length;\n    uint256[] memory tokens = new uint256[](len);\n    uint256 icount;\n    if (_owner != address(0)) {\n      for (uint256 i=0;i<len;i++) {\n        tokens[i] = ownerToCaptainArray[_owner][icount];\n        icount++;\n      }\n    }\n    return tokens;\n  }\n\n  /// @param _captainId The captain whose celebrity tokens we are interested in.\n  /// @dev This method MUST NEVER be called by smart contract code. First, it's fairly\n  ///  expensive (it walks the entire Persons array looking for persons belonging to owner),\n  ///  but it also returns a dynamic array, which is only supported for web3 calls, and\n  ///  not contract-to-contract calls.\n  function tokensOfCaptain(uint256 _captainId) public view returns(uint256[] captainTokens) {\n    uint256 tokenCount = tokenCountOfCaptain[_captainId];\n    if (tokenCount == 0) {\n        // Return an empty array\n      return new uint256[](0);\n    } else {\n      uint256[] memory result = new uint256[](tokenCount);\n      uint256 totalcaptains = captains.length - destroyCaptainCount - 1;\n      uint256 resultIndex = 0;\n\n      uint256 tokenId;\n      for (tokenId = 0; tokenId <= totalcaptains; tokenId++) {\n        if (IndexToCaptain[tokenId] == _captainId) {\n          result[resultIndex] = tokenId;\n          resultIndex++;\n        }\n      }\n      return result;\n    }\n  } \n}",
  "sourcePath": "/Users/rainysiu/Projects/Blockchain/PirateConquest/contracts/CaptainToken.sol",
  "compiler": {
    "name": "solc",
    "version": "0.4.19+commit.c4cbbb05.Emscripten.clang"
  },
  "schemaVersion": "2.0.0",
  "updatedAt": "2018-06-04T08:23:29.503Z"
}