{
  "contractName": "CaptainToken",
  "abi": [
    {
      "constant": false,
      "inputs": [
        {
          "name": "_addr",
          "type": "address"
        },
        {
          "name": "_useful",
          "type": "bool"
        }
      ],
      "name": "setAdminContract",
      "outputs": [],
      "payable": false,
      "stateMutability": "nonpayable",
      "type": "function"
    },
    {
      "constant": false,
      "inputs": [],
      "name": "unpause",
      "outputs": [
        {
          "name": "",
          "type": "bool"
        }
      ],
      "payable": false,
      "stateMutability": "nonpayable",
      "type": "function"
    },
    {
      "constant": true,
      "inputs": [],
      "name": "paused",
      "outputs": [
        {
          "name": "",
          "type": "bool"
        }
      ],
      "payable": false,
      "stateMutability": "view",
      "type": "function"
    },
    {
      "constant": false,
      "inputs": [
        {
          "name": "_actionAddr",
          "type": "address"
        },
        {
          "name": "_useful",
          "type": "bool"
        }
      ],
      "name": "setActionContract",
      "outputs": [],
      "payable": false,
      "stateMutability": "nonpayable",
      "type": "function"
    },
    {
      "constant": false,
      "inputs": [],
      "name": "pause",
      "outputs": [
        {
          "name": "",
          "type": "bool"
        }
      ],
      "payable": false,
      "stateMutability": "nonpayable",
      "type": "function"
    },
    {
      "constant": true,
      "inputs": [
        {
          "name": "",
          "type": "uint256"
        }
      ],
      "name": "captainTokenIdToOwner",
      "outputs": [
        {
          "name": "",
          "type": "address"
        }
      ],
      "payable": false,
      "stateMutability": "view",
      "type": "function"
    },
    {
      "constant": true,
      "inputs": [],
      "name": "owner",
      "outputs": [
        {
          "name": "",
          "type": "address"
        }
      ],
      "payable": false,
      "stateMutability": "view",
      "type": "function"
    },
    {
      "constant": false,
      "inputs": [
        {
          "name": "newOwner",
          "type": "address"
        }
      ],
      "name": "transferOwnership",
      "outputs": [],
      "payable": false,
      "stateMutability": "nonpayable",
      "type": "function"
    },
    {
      "constant": true,
      "inputs": [
        {
          "name": "",
          "type": "uint256"
        }
      ],
      "name": "captains",
      "outputs": [
        {
          "name": "name",
          "type": "string"
        },
        {
          "name": "captainId",
          "type": "uint32"
        },
        {
          "name": "color",
          "type": "uint32"
        },
        {
          "name": "attType",
          "type": "uint32"
        }
      ],
      "payable": false,
      "stateMutability": "view",
      "type": "function"
    },
    {
      "inputs": [],
      "payable": false,
      "stateMutability": "nonpayable",
      "type": "constructor"
    },
    {
      "anonymous": false,
      "inputs": [
        {
          "indexed": false,
          "name": "tokenId",
          "type": "uint256"
        },
        {
          "indexed": false,
          "name": "name",
          "type": "string"
        },
        {
          "indexed": false,
          "name": "_owner",
          "type": "address"
        },
        {
          "indexed": false,
          "name": "_price",
          "type": "uint256"
        }
      ],
      "name": "CreateCaptain",
      "type": "event"
    },
    {
      "anonymous": false,
      "inputs": [
        {
          "indexed": true,
          "name": "_from",
          "type": "address"
        },
        {
          "indexed": true,
          "name": "_to",
          "type": "address"
        },
        {
          "indexed": false,
          "name": "_tokenId",
          "type": "uint256"
        }
      ],
      "name": "Transfer",
      "type": "event"
    },
    {
      "anonymous": false,
      "inputs": [
        {
          "indexed": true,
          "name": "_owner",
          "type": "address"
        },
        {
          "indexed": true,
          "name": "_approved",
          "type": "address"
        },
        {
          "indexed": false,
          "name": "_tokenId",
          "type": "uint256"
        }
      ],
      "name": "Approval",
      "type": "event"
    },
    {
      "anonymous": false,
      "inputs": [
        {
          "indexed": true,
          "name": "_owner",
          "type": "address"
        },
        {
          "indexed": true,
          "name": "_operator",
          "type": "address"
        },
        {
          "indexed": false,
          "name": "_approved",
          "type": "bool"
        }
      ],
      "name": "ApprovalForAll",
      "type": "event"
    },
    {
      "anonymous": false,
      "inputs": [],
      "name": "Pause",
      "type": "event"
    },
    {
      "anonymous": false,
      "inputs": [],
      "name": "Unpause",
      "type": "event"
    },
    {
      "anonymous": false,
      "inputs": [
        {
          "indexed": true,
          "name": "previousOwner",
          "type": "address"
        },
        {
          "indexed": true,
          "name": "newOwner",
          "type": "address"
        }
      ],
      "name": "OwnershipTransferred",
      "type": "event"
    },
    {
      "constant": false,
      "inputs": [
        {
          "name": "_price",
          "type": "uint256"
        },
        {
          "name": "_name",
          "type": "string"
        },
        {
          "name": "_captainId",
          "type": "uint32"
        },
        {
          "name": "_color",
          "type": "uint32"
        },
        {
          "name": "_attType",
          "type": "uint32"
        }
      ],
      "name": "CreateCaptainToken",
      "outputs": [],
      "payable": false,
      "stateMutability": "nonpayable",
      "type": "function"
    },
    {
      "constant": false,
      "inputs": [
        {
          "name": "_tokenId",
          "type": "uint256"
        },
        {
          "name": "_price",
          "type": "uint256"
        }
      ],
      "name": "setTokenPrice",
      "outputs": [],
      "payable": false,
      "stateMutability": "nonpayable",
      "type": "function"
    },
    {
      "constant": true,
      "inputs": [
        {
          "name": "_tokenId",
          "type": "uint256"
        }
      ],
      "name": "getCaptainInfo",
      "outputs": [
        {
          "name": "name",
          "type": "string"
        },
        {
          "name": "captainId",
          "type": "uint32"
        },
        {
          "name": "color",
          "type": "uint32"
        },
        {
          "name": "attType",
          "type": "uint32"
        },
        {
          "name": "price",
          "type": "uint256"
        },
        {
          "name": "owner",
          "type": "address"
        }
      ],
      "payable": false,
      "stateMutability": "view",
      "type": "function"
    },
    {
      "constant": true,
      "inputs": [
        {
          "name": "_owner",
          "type": "address"
        }
      ],
      "name": "balanceOf",
      "outputs": [
        {
          "name": "",
          "type": "uint256"
        }
      ],
      "payable": false,
      "stateMutability": "view",
      "type": "function"
    },
    {
      "constant": true,
      "inputs": [
        {
          "name": "_tokenId",
          "type": "uint256"
        }
      ],
      "name": "ownerOf",
      "outputs": [
        {
          "name": "",
          "type": "address"
        }
      ],
      "payable": false,
      "stateMutability": "view",
      "type": "function"
    },
    {
      "constant": false,
      "inputs": [
        {
          "name": "_from",
          "type": "address"
        },
        {
          "name": "_to",
          "type": "address"
        },
        {
          "name": "_tokenId",
          "type": "uint256"
        },
        {
          "name": "data",
          "type": "bytes"
        }
      ],
      "name": "safeTransferFrom",
      "outputs": [],
      "payable": true,
      "stateMutability": "payable",
      "type": "function"
    },
    {
      "constant": false,
      "inputs": [
        {
          "name": "_from",
          "type": "address"
        },
        {
          "name": "_to",
          "type": "address"
        },
        {
          "name": "_tokenId",
          "type": "uint256"
        }
      ],
      "name": "safeTransferFrom",
      "outputs": [],
      "payable": true,
      "stateMutability": "payable",
      "type": "function"
    },
    {
      "constant": false,
      "inputs": [
        {
          "name": "_from",
          "type": "address"
        },
        {
          "name": "_to",
          "type": "address"
        },
        {
          "name": "_tokenId",
          "type": "uint256"
        }
      ],
      "name": "transferFrom",
      "outputs": [],
      "payable": true,
      "stateMutability": "payable",
      "type": "function"
    },
    {
      "constant": false,
      "inputs": [
        {
          "name": "_approved",
          "type": "address"
        },
        {
          "name": "_tokenId",
          "type": "uint256"
        }
      ],
      "name": "approve",
      "outputs": [],
      "payable": true,
      "stateMutability": "payable",
      "type": "function"
    },
    {
      "constant": false,
      "inputs": [
        {
          "name": "_operator",
          "type": "address"
        },
        {
          "name": "_approved",
          "type": "bool"
        }
      ],
      "name": "setApprovalForAll",
      "outputs": [],
      "payable": false,
      "stateMutability": "nonpayable",
      "type": "function"
    },
    {
      "constant": true,
      "inputs": [
        {
          "name": "_tokenId",
          "type": "uint256"
        }
      ],
      "name": "getApproved",
      "outputs": [
        {
          "name": "",
          "type": "address"
        }
      ],
      "payable": false,
      "stateMutability": "view",
      "type": "function"
    },
    {
      "constant": true,
      "inputs": [
        {
          "name": "_owner",
          "type": "address"
        },
        {
          "name": "_operator",
          "type": "address"
        }
      ],
      "name": "isApprovedForAll",
      "outputs": [
        {
          "name": "",
          "type": "bool"
        }
      ],
      "payable": false,
      "stateMutability": "view",
      "type": "function"
    },
    {
      "constant": true,
      "inputs": [],
      "name": "name",
      "outputs": [
        {
          "name": "",
          "type": "string"
        }
      ],
      "payable": false,
      "stateMutability": "pure",
      "type": "function"
    },
    {
      "constant": true,
      "inputs": [],
      "name": "symbol",
      "outputs": [
        {
          "name": "",
          "type": "string"
        }
      ],
      "payable": false,
      "stateMutability": "pure",
      "type": "function"
    },
    {
      "constant": true,
      "inputs": [],
      "name": "totalSupply",
      "outputs": [
        {
          "name": "",
          "type": "uint256"
        }
      ],
      "payable": false,
      "stateMutability": "view",
      "type": "function"
    },
    {
      "constant": true,
      "inputs": [
        {
          "name": "_index",
          "type": "uint256"
        }
      ],
      "name": "tokenByIndex",
      "outputs": [
        {
          "name": "",
          "type": "uint256"
        }
      ],
      "payable": false,
      "stateMutability": "view",
      "type": "function"
    },
    {
      "constant": true,
      "inputs": [
        {
          "name": "_owner",
          "type": "address"
        },
        {
          "name": "_index",
          "type": "uint256"
        }
      ],
      "name": "tokenOfOwnerByIndex",
      "outputs": [
        {
          "name": "",
          "type": "uint256"
        }
      ],
      "payable": false,
      "stateMutability": "view",
      "type": "function"
    },
    {
      "constant": true,
      "inputs": [
        {
          "name": "_owner",
          "type": "address"
        }
      ],
      "name": "tokensOfOwner",
      "outputs": [
        {
          "name": "",
          "type": "uint256[]"
        }
      ],
      "payable": false,
      "stateMutability": "view",
      "type": "function"
    },
    {
      "constant": true,
      "inputs": [
        {
          "name": "_captainId",
          "type": "uint256"
        }
      ],
      "name": "tokensOfCaptain",
      "outputs": [
        {
          "name": "captainTokens",
          "type": "uint256[]"
        }
      ],
      "payable": false,
      "stateMutability": "view",
      "type": "function"
    }
  ],
  "bytecode": "0x60606040526000805460a060020a60ff021916905534156200002057600080fd5b60008054600160a060020a03191633600160a060020a031617905560038054600101906200004f908262000056565b5062000133565b81548183558181151162000085576002028160020283600052602060002091820191016200008591906200008a565b505050565b620000c891905b80821115620000c4576000620000a88282620000cb565b506001810180546001606060020a031916905560020162000091565b5090565b90565b50805460018160011615610100020316600290046000825580601f10620000f3575062000113565b601f01602090049060005260206000209081019062000113919062000116565b50565b620000c891905b80821115620000c457600081556001016200011d565b611a7a80620001436000396000f3006060604052600436106101695763ffffffff7c010000000000000000000000000000000000000000000000000000000060003504166306fdde03811461016e578063081812fc146101f85780630865dadc1461022a578063095ea7b31461025057806318160ddd1461026757806323b872dd1461028c5780632f745c59146102a95780633f4ba83a146102cb57806342842e0e146102f25780634f6ccce71461030f5780635c975abb146103255780636352211e1461033857806369b7ca851461034e5780636fb642de1461041257806370a08231146104365780638456cb59146104555780638462151c1461046857806386b259f5146104da5780638da5cb5b146104f057806395d89b4114610503578063a22cb46514610516578063b88d4fde1461053a578063c918dba714610566578063e985e9c51461057c578063eb685c47146105a1578063f2fde38b146105ba578063f412511e146105d9578063f9e7177014610696575b600080fd5b341561017957600080fd5b610181610703565b60405160208082528190810183818151815260200191508051906020019080838360005b838110156101bd5780820151838201526020016101a5565b50505050905090810190601f1680156101ea5780820380516001836020036101000a031916815260200191505b509250505060405180910390f35b341561020357600080fd5b61020e600435610745565b604051600160a060020a03909116815260200160405180910390f35b341561023557600080fd5b61024e600160a060020a036004351660243515156107a6565b005b61024e600160a060020a0360043516602435610801565b341561027257600080fd5b61027a610906565b60405190815260200160405180910390f35b61024e600160a060020a0360043581169060243516604435610914565b34156102b457600080fd5b61027a600160a060020a0360043516602435610a2b565b34156102d657600080fd5b6102de610a9e565b604051901515815260200160405180910390f35b61024e600160a060020a0360043581169060243516604435610b22565b341561031a57600080fd5b61027a600435610b41565b341561033057600080fd5b6102de610b5f565b341561034357600080fd5b61020e600435610b6f565b341561035957600080fd5b610364600435610b8a565b60405163ffffffff808716602083015285811660408301528416606082015260808101839052600160a060020a03821660a082015260c08082528190810188818151815260200191508051906020019080838360005b838110156103d25780820151838201526020016103ba565b50505050905090810190601f1680156103ff5780820380516001836020036101000a031916815260200191505b5097505050505050505060405180910390f35b341561041d57600080fd5b61024e600160a060020a03600435166024351515610cb5565b341561044157600080fd5b61027a600160a060020a0360043516610d07565b341561046057600080fd5b6102de610d3a565b341561047357600080fd5b610487600160a060020a0360043516610dc3565b60405160208082528190810183818151815260200191508051906020019060200280838360005b838110156104c65780820151838201526020016104ae565b505050509050019250505060405180910390f35b34156104e557600080fd5b61020e600435610e89565b34156104fb57600080fd5b61020e610ea4565b341561050e57600080fd5b610181610eb3565b341561052157600080fd5b61024e600160a060020a03600435166024351515610ef4565b61024e600160a060020a0360048035821691602480359091169160443591606435908101910135610f7b565b341561057157600080fd5b610487600435610fbd565b341561058757600080fd5b6102de600160a060020a0360043581169060243516611099565b34156105ac57600080fd5b61024e6004356024356110c7565b34156105c557600080fd5b61024e600160a060020a0360043516611100565b34156105e457600080fd5b6105ef60043561119b565b60405163ffffffff80851660208301528381166040830152821660608201526080808252855460026000196101006001841615020190911604908201819052819060a0820190879080156106845780601f1061065957610100808354040283529160200191610684565b820191906000526020600020905b81548152906001019060200180831161066757829003601f168201915b50509550505050505060405180910390f35b34156106a157600080fd5b61024e600480359060446024803590810190830135806020601f820181900481020160405190810160405281815292919060208401838380828437509496505063ffffffff8535811695602081013582169550604001351692506111e6915050565b61070b6118ac565b60408051908101604052601581527f50697261746520436f6e717565737420546f6b656e0000000000000000000000602082015290505b90565b6000816001811015801561075b57506003548111155b151561076657600080fd5b600081815260046020526040902054600160a060020a0316151561078957600080fd5b50506000908152600a6020526040902054600160a060020a031690565b60005433600160a060020a039081169116146107c157600080fd5b600160a060020a03821615156107d657600080fd5b600160a060020a03919091166000908152600160205260409020805460ff1916911515919091179055565b6000805460a060020a900460ff161561081957600080fd5b50600081815260046020526040902054600160a060020a031680151561083e57600080fd5b80600160a060020a031633600160a060020a031614806108845750600160a060020a038082166000908152600b60209081526040808320339094168352929052205460ff165b151561088f57600080fd5b6000828152600a602052604090819020805473ffffffffffffffffffffffffffffffffffffffff1916600160a060020a0386811691821790925591908316907f8c5be1e5ebec7d5bd14f71427d1e84f3dd0314c0f7b2291e5b200ac8c7c3b9259085905190815260200160405180910390a3505050565b600c54600354036000190190565b6000805460a060020a900460ff161561092c57600080fd5b816001811015801561094057506003548111155b151561094b57600080fd5b600081815260046020526040902054600160a060020a0316151561096e57600080fd5b600083815260046020526040902054839033600160a060020a03908116911614806109b357506000818152600a602052604090205433600160a060020a039081169116145b15156109be57600080fd5b600084815260046020526040902054600160a060020a0316925082158015906109f8575085600160a060020a031683600160a060020a0316145b1515610a0357600080fd5b600160a060020a0385161515610a1857600080fd5b610a23868686611227565b505050505050565b600160a060020a0382166000908152600660205260408120548190831015610a5257600080fd5b600160a060020a03841615610a9757600160a060020a0384166000908152600660205260409020805484908110610a8557fe5b90600052602060002090015490508091505b5092915050565b6000805433600160a060020a03908116911614610aba57600080fd5b60005460a060020a900460ff161515610ad257600080fd5b6000805474ff0000000000000000000000000000000000000000191690557f7805862f689e2f13df9f062ff482ad3ad112aca9e0847911ed832e158c525b3360405160405180910390a150600190565b610b3c838383602060405190810160405260008152611424565b505050565b600c546003546000916000199103018210610b5b57600080fd5b5090565b60005460a060020a900460ff1681565b600090815260046020526040902054600160a060020a031690565b610b926118ac565b600080600080600080600388815481101515610baa57fe5b90600052602060002090600202019050806000018054600181600116156101000203166002900480601f016020809104026020016040519081016040528092919081815260200182805460018160011615610100020316600290048015610c525780601f10610c2757610100808354040283529160200191610c52565b820191906000526020600020905b815481529060010190602001808311610c3557829003601f168201915b50505060019093015460009a8b52600760209081526040808d20546004909252909b2054929b63ffffffff8083169c640100000000840482169c5068010000000000000000909304169950909750600160a060020a039092169550909350505050565b600160a060020a03331660009081526001602052604090205460ff161515610cdc57600080fd5b600160a060020a03919091166000908152600260205260409020805460ff1916911515919091179055565b6000600160a060020a0382161515610d1e57600080fd5b50600160a060020a031660009081526006602052604090205490565b6000805433600160a060020a03908116911614610d5657600080fd5b60005460a060020a900460ff1615610d6d57600080fd5b6000805474ff0000000000000000000000000000000000000000191660a060020a1790557f6985a02210a168e66602d3235cb6db0e70f92b3ba4d376a33c0f3d9434bff62560405160405180910390a150600190565b610dcb6118ac565b6000610dd56118ac565b600160a060020a0384166000908152600660205260408082205493508190849051805910610e005750595b90808252806020026020018201604052509250600160a060020a03861615610e80575060005b83811015610e8057600160a060020a0386166000908152600660205260409020805483908110610e5257fe5b906000526020600020900154838281518110610e6a57fe5b6020908102909101015260019182019101610e26565b50505050919050565b600460205260009081526040902054600160a060020a031681565b600054600160a060020a031681565b610ebb6118ac565b60408051908101604052600381527f50435400000000000000000000000000000000000000000000000000000000006020820152905090565b60005460a060020a900460ff1615610f0b57600080fd5b33600160a060020a039081166000818152600b602090815260408083209487168084529490915290819020805460ff19168515151790557f17307eab39ab6107e8899845ad3d59bd9653f200f220920489ca2b5937696c3190849051901515815260200160405180910390a35050565b610fb685858585858080601f016020809104026020016040519081016040528181529291906020840183838082843750611424945050505050565b5050505050565b610fc56118ac565b6000610fcf6118ac565b60008481526008602052604081205492508080841515611010576000604051805910610ff85750595b9080825280602002602001820160405250955061108f565b8460405180591061101e5750595b9080825280602002602001820160405250600c546003549195506000199103019250600091508190505b82811161108b57600081815260096020526040902054871415611083578084838151811061107257fe5b602090810290910101526001909101905b600101611048565b8395505b5050505050919050565b600160a060020a039182166000908152600b6020908152604080832093909416825291909152205460ff1690565b600160a060020a03331660009081526002602052604090205460ff1615156110ee57600080fd5b60009182526007602052604090912055565b60005433600160a060020a0390811691161461111b57600080fd5b600160a060020a038116151561113057600080fd5b600054600160a060020a0380831691167f8be0079c531659141344cd1fd0a4f28419497f9722a3daafe3b4186f6b6457e060405160405180910390a36000805473ffffffffffffffffffffffffffffffffffffffff1916600160a060020a0392909216919091179055565b60038054829081106111a957fe5b60009182526020909120600290910201600181015490915063ffffffff808216916401000000008104821691680100000000000000009091041684565b60005433600160a060020a0390811691161461120157600080fd5b61120f308686868686611680565b5061121d600d546001611896565b600d555050505050565b60008080600160a060020a0386161561133f57600084815260056020908152604080832054600160a060020a038a168452600690925290912080549194509250849083908590811061127557fe5b6000918252602090912001541461128b57600080fd5b81546000190183146112e7578154829060001981019081106112a957fe5b90600052602060002090015490508082848154811015156112c657fe5b60009182526020808320909101929092558281526005909152604090208390555b8154600019016112f783826118be565b506000848152600a6020526040902054600160a060020a03161561133f576000848152600a60205260409020805473ffffffffffffffffffffffffffffffffffffffff191690555b6000848152600460209081526040808320805473ffffffffffffffffffffffffffffffffffffffff1916600160a060020a038a1690811790915583526006909152902080546001810161139283826118be565b506000918252602080832091909101869055600160a060020a03808816808452600683526040808520548986526005909452909320600019909201909155871615156113de57306113e0565b865b600160a060020a03167fddf252ad1be2c89b69c2b068fc378daa952ba7f163c4a11628f55a4df523b3ef8660405190815260200160405180910390a3505050505050565b600080836001811015801561143b57506003548111155b151561144657600080fd5b600081815260046020526040902054600160a060020a0316151561146957600080fd5b600085815260046020526040902054859033600160a060020a03908116911614806114ae57506000818152600a602052604090205433600160a060020a039081169116145b15156114b957600080fd5b600086815260046020526040902054600160a060020a0316935083158015906114f3575087600160a060020a031684600160a060020a0316145b15156114fe57600080fd5b600160a060020a038716151561151357600080fd5b61151e888888611227565b86600160a060020a031663f0b9e5ba8988886000604051602001526040518463ffffffff167c01000000000000000000000000000000000000000000000000000000000281526004018084600160a060020a0316600160a060020a0316815260200183815260200180602001828103825283818151815260200191508051906020019080838360005b838110156115bf5780820151838201526020016115a7565b50505050905090810190601f1680156115ec5780820380516001836020036101000a031916815260200191505b50945050505050602060405180830381600087803b151561160c57600080fd5b6102c65a03f1151561161d57600080fd5b50505060405180519350507ff0b9e5ba000000000000000000000000000000000000000000000000000000007fffffffff0000000000000000000000000000000000000000000000000000000084161461167657600080fd5b5050505050505050565b60008061168b6118e2565b60035491506080604051908101604052808881526020018763ffffffff1681526020018663ffffffff1681526020018563ffffffff168152509050600380548060010182816116da9190611911565b600092835260209092208391600202018151819080516116fe92916020019061193d565b50602082015160018201805463ffffffff191663ffffffff9290921691909117905560408201518160010160046101000a81548163ffffffff021916908363ffffffff16021790555060608201518160010160086101000a81548163ffffffff021916908363ffffffff1602179055505050507f3fd9e87ad553ef81bf3fcea94c4f59386a1aa1d3b8efee071b1598edd8491cd682888b8b604051848152600160a060020a03831660408201526060810182905260806020820181815290820185818151815260200191508051906020019080838360005b838110156117ee5780820151838201526020016117d6565b50505050905090810190601f16801561181b5780820380516001836020036101000a031916815260200191505b509550505050505060405180910390a160008281526007602090815260408083208b90556009825280832063ffffffff8a169081905583526008909152902054611866906001611896565b63ffffffff871660009081526008602052604081209190915561188a908a84611227565b50979650505050505050565b6000828201838110156118a557fe5b9392505050565b60206040519081016040526000815290565b815481835581811511610b3c57600083815260209020610b3c9181019083016119b3565b6080604051908101604052806118f66118ac565b81526000602082018190526040820181905260609091015290565b815481835581811511610b3c57600202816002028360005260206000209182019101610b3c91906119cd565b828054600181600116156101000203166002900490600052602060002090601f016020900481019282601f1061197e57805160ff19168380011785556119ab565b828001600101855582156119ab579182015b828111156119ab578251825591602001919060010190611990565b50610b5b9291505b61074291905b80821115610b5b57600081556001016119b9565b61074291905b80821115610b5b5760006119e78282611a07565b506001810180546bffffffffffffffffffffffff191690556002016119d3565b50805460018160011615610100020316600290046000825580601f10611a2d5750611a4b565b601f016020900490600052602060002090810190611a4b91906119b3565b505600a165627a7a723058205107ce3aa076ae817542e7ffb764c7e04dfc909b9ebca12522e881c6bef9288f0029",
  "source": "pragma solidity ^0.4.18;\nimport \"./AccessAdmin.sol\";\nimport \"./SafeMath.sol\";\nimport \"./ERC721.sol\";\n\ncontract CaptainToken is AccessAdmin, ERC721 {\n  using SafeMath for SafeMath;\n  //event \n  event CreateCaptain(uint tokenId,string name, address _owner, uint256 _price);\n  //ERC721\n  event Transfer(address indexed _from, address indexed _to, uint256 _tokenId);\n  event Approval(address indexed _owner, address indexed _approved, uint256 _tokenId);\n  event ApprovalForAll(address indexed _owner, address indexed _operator, bool _approved);\n\n  struct Captain {\n    string name; \n    uint32 captainId;  \n    uint32 color; // 1,2,3,4  \n    uint32 attType; // attack \n  }\n    \n  Captain[] public captains; //dynamic Array\n\n  function CaptainToken() public {\n    captains.length += 1;\n  }\n\n  /**mapping**/\n  /// @dev tokenId to owner  tokenId -> address\n  mapping (uint256 => address) public captainTokenIdToOwner;\n  /// @dev Equipment token ID search in owner array captainId -> tokenId\n  mapping (uint256 => uint256) captainIdToOwnerIndex;  \n  /// @dev captains owner by the owner (array)\n  mapping (address => uint256[]) ownerToCaptainArray;\n  /// @dev price of each token\n  mapping (uint256 => uint256) captainTokenIdToPrice;\n  /// @dev token count of captain\n  mapping (uint256 => uint256) tokenCountOfCaptain;\n  /// @dev tokens by the captain\n  mapping (uint256 => uint256) IndexToCaptain;\n  /// @dev The authorized address for each Captain\n  mapping (uint256 => address) captainTokenIdToApprovals;\n  /// @dev The authorized operators for each address\n  mapping (address => mapping (address => bool)) operatorToApprovals;\n\n  /*** CONSTRUCTOR ***/\n  uint256 private constant startPrice = 0.5 ether;\n  /// @dev Amount of tokens destroyed\n  uint256 destroyCaptainCount;\n  uint256 captainCount;\n\n  // modifier\n  /// @dev Check if token ID is valid\n  modifier isValidToken(uint256 _tokenId) {\n    require(_tokenId >= 1 && _tokenId <= captains.length);\n    require(captainTokenIdToOwner[_tokenId] != address(0)); \n    _;\n  }\n  modifier canTransfer(uint256 _tokenId) {\n    require(msg.sender == captainTokenIdToOwner[_tokenId] || msg.sender == captainTokenIdToApprovals[_tokenId]);\n    _;\n  }\n  /// @dev Creates a new Captain with the given name.\n  function CreateCaptainToken(uint256 _price, string _name, uint32 _captainId, uint32 _color,uint32 _attType) public onlyOwner {\n    _createCaptainToken(address(this),_price,_name,_captainId,_color,_attType);\n    captainCount = SafeMath.add(captainCount,1);\n  }\n\n    /// For creating CaptainToken\n  function _createCaptainToken(address _owner, uint256 _price, string _name, uint32 _captainId, uint32 _color, uint32 _attType) \n  internal returns(uint) {\n    uint256 newTokenId = captains.length;\n    Captain memory _captain = Captain({\n      name: _name,\n      captainId: _captainId,\n      color: _color,\n      attType: _attType\n    });\n    captains.push(_captain);\n    //event\n    CreateCaptain(newTokenId, _name, _owner, _price);\n    captainTokenIdToPrice[newTokenId] = _price;\n    IndexToCaptain[newTokenId] = _captainId;\n    tokenCountOfCaptain[_captainId] = SafeMath.add(tokenCountOfCaptain[_captainId],1);\n    // This will assign ownership, and also emit the Transfer event as\n    // per ERC721 draft\n    _transfer(address(0), _owner, newTokenId);\n\n    return newTokenId;\n  } \n\n  /// @dev set the token price\n  function setTokenPrice(uint256 _tokenId, uint256 _price) external {\n    require(actionContracts[msg.sender]);\n    captainTokenIdToPrice[_tokenId] = _price;\n  }\n  /// @dev Do the real transfer with out any condition checking\n  /// @param _from The old owner of this Captain(If created: 0x0)\n  /// @param _to The new owner of this Captain \n  /// @param _tokenId The tokenId of the Captain\n  function _transfer(address _from, address _to, uint256 _tokenId) internal {\n    if (_from != address(0)) {\n      uint256 indexFrom = captainIdToOwnerIndex[_tokenId];  // tokenId -> captainId\n      uint256[] storage cpArray = ownerToCaptainArray[_from];\n      require(cpArray[indexFrom] == _tokenId);\n\n      // If the Captain is not the element of array, change it to with the last\n      if (indexFrom != cpArray.length - 1) {\n        uint256 lastTokenId = cpArray[cpArray.length - 1];\n        cpArray[indexFrom] = lastTokenId; \n        captainIdToOwnerIndex[lastTokenId] = indexFrom;\n      }\n      cpArray.length -= 1; \n    \n      if (captainTokenIdToApprovals[_tokenId] != address(0)) {\n        delete captainTokenIdToApprovals[_tokenId];\n      }      \n    }\n\n    // Give the Captain to '_to'\n    captainTokenIdToOwner[_tokenId] = _to;\n    ownerToCaptainArray[_to].push(_tokenId);\n    captainIdToOwnerIndex[_tokenId] = ownerToCaptainArray[_to].length - 1;\n        \n    Transfer(_from != address(0) ? _from : this, _to, _tokenId);\n  }\n\n  /// @notice Returns all the relevant information about a specific tokenId.\n  /// @param _tokenId The tokenId of the rarecard.\n  function getCaptainInfo(uint256 _tokenId) external view returns (\n    string name, \n    uint32 captainId,  \n    uint32 color, \n    uint32 attType, \n    uint256 price,\n    address owner\n  ) {\n    Captain storage captain = captains[_tokenId];\n    name = captain.name;\n    captainId = captain.captainId;\n    color = captain.color;\n    attType = captain.attType;\n    price = captainTokenIdToPrice[_tokenId];\n    owner = captainTokenIdToOwner[_tokenId];\n  }\n\n  /// ERC721 \n\n  function balanceOf(address _owner) external view returns (uint256) {\n    require(_owner != address(0));\n    return ownerToCaptainArray[_owner].length;\n  }\n\n  function ownerOf(uint256 _tokenId) external view returns (address) {\n    return captainTokenIdToOwner[_tokenId];\n  }\n  function safeTransferFrom(address _from, address _to, uint256 _tokenId, bytes data) external payable {\n    _safeTransferFrom(_from, _to, _tokenId, data);\n  }\n  function safeTransferFrom(address _from, address _to, uint256 _tokenId) external payable {\n    _safeTransferFrom(_from, _to, _tokenId, \"\");\n  }\n\n  /// @dev Actually perform the safeTransferFrom\n  function _safeTransferFrom(address _from, address _to, uint256 _tokenId, bytes data) \n    internal\n    isValidToken(_tokenId) \n    canTransfer(_tokenId)\n    {\n    address owner = captainTokenIdToOwner[_tokenId];\n    require(owner != address(0) && owner == _from);\n    require(_to != address(0));\n        \n    _transfer(_from, _to, _tokenId);\n\n    // Do the callback after everything is done to avoid reentrancy attack\n    /*uint256 codeSize;\n    assembly { codeSize := extcodesize(_to) }\n    if (codeSize == 0) {\n      return;\n    }*/\n    bytes4 retval = ERC721TokenReceiver(_to).onERC721Received(_from, _tokenId, data);\n    // bytes4(keccak256(\"onERC721Received(address,uint256,bytes)\")) = 0xf0b9e5ba;\n    require(retval == 0xf0b9e5ba);\n  }\n    \n  /// @dev Transfer ownership of an Captain, '_to' must be a vaild address, or the WAR will lost\n  /// @param _from The current owner of the Captain\n  /// @param _to The new owner\n  /// @param _tokenId The Captain to transfer\n  function transferFrom(address _from, address _to, uint256 _tokenId)\n        external\n        whenNotPaused\n        isValidToken(_tokenId)\n        canTransfer(_tokenId)\n        payable\n    {\n    address owner = captainTokenIdToOwner[_tokenId];\n    require(owner != address(0) && owner == _from);\n    require(_to != address(0));\n        \n    _transfer(_from, _to, _tokenId);\n  }\n\n  /// @dev Set or reaffirm the approved address for an WAR\n  /// @param _approved The new approved WAR controller\n  /// @param _tokenId The WAR to approve\n  function approve(address _approved, uint256 _tokenId)\n    external\n    whenNotPaused \n    payable\n  {\n    address owner = captainTokenIdToOwner[_tokenId];\n    require(owner != address(0));\n    require(msg.sender == owner || operatorToApprovals[owner][msg.sender]);\n\n    captainTokenIdToApprovals[_tokenId] = _approved;\n    Approval(owner, _approved, _tokenId);\n  }\n  /// @dev Enable or disable approval for a third party (\"operator\") to manage all your asset.\n  /// @param _operator Address to add to the set of authorized operators.\n  /// @param _approved True if the operators is approved, false to revoke approval\n  function setApprovalForAll(address _operator, bool _approved) \n    external \n    whenNotPaused\n  {\n    operatorToApprovals[msg.sender][_operator] = _approved;\n    ApprovalForAll(msg.sender, _operator, _approved);\n  }\n\n  /// @dev Get the approved address for a single Captain\n  /// @param _tokenId The WAR to find the approved address for\n  /// @return The approved address for this WAR, or the zero address if there is none\n  function getApproved(uint256 _tokenId) external view isValidToken(_tokenId) returns (address) {\n    return captainTokenIdToApprovals[_tokenId];\n  }\n  \n  /// @dev Query if an address is an authorized operator for another address\n  /// @param _owner The address that owns the WARs\n  /// @param _operator The address that acts on behalf of the owner\n  /// @return True if `_operator` is an approved operator for `_owner`, false otherwise\n  function isApprovedForAll(address _owner, address _operator) external view returns (bool) {\n    return operatorToApprovals[_owner][_operator];\n  }\n  /// @notice A descriptive name for a collection of NFTs in this contract\n  function name() public pure returns(string) {\n    return \"Pirate Conquest Token\";\n  }\n  /// @notice An abbreviated name for NFTs in this contract\n  function symbol() public pure returns(string) {\n    return \"PCT\";\n  }\n  /// @notice A distinct Uniform Resource Identifier (URI) for a given asset.\n  /// @dev Throws if `_tokenId` is not a valid NFT. URIs are defined in RFC\n  ///  3986. The URI may point to a JSON file that conforms to the \"ERC721\n  ///  Metadata JSON Schema\".\n  //function tokenURI(uint256 _tokenId) external view returns (string);\n\n  /// @notice Count NFTs tracked by this contract\n  /// @return A count of valid NFTs tracked by this contract, where each one of\n  ///  them has an assigned and queryable owner not equal to the zero address\n  function totalSupply() external view returns (uint256) {\n    return captains.length - destroyCaptainCount - 1;\n  }\n  /// @notice Enumerate valid NFTs\n  /// @dev Throws if `_index` >= `totalSupply()`.\n  /// @param _index A counter less than `totalSupply()`\n  /// @return The token identifier for the `_index`th NFT,\n  ///  (sort order not specified)\n  function tokenByIndex(uint256 _index) external view returns (uint256) {\n    require(_index<(captains.length - destroyCaptainCount - 1));\n    //uint256[] memory tokens = new uint256[](tokenCountOfCaptain[_index]);\n    return _index;\n  }\n  /// @notice Enumerate NFTs assigned to an owner\n  /// @dev Throws if `_index` >= `balanceOf(_owner)` or if\n  ///  `_owner` is the zero address, representing invalid NFTs.\n  /// @param _owner An address where we are interested in NFTs owned by them\n  /// @param _index A counter less than `balanceOf(_owner)`\n  /// @return The token identifier for the `_index`th NFT assigned to `_owner`,\n  ///   (sort order not specified)\n  function tokenOfOwnerByIndex(address _owner, uint256 _index) external view returns (uint256) {\n    require(_index >= ownerToCaptainArray[_owner].length);\n    if (_owner != address(0)) {\n      uint256 tokenId = ownerToCaptainArray[_owner][_index];\n      return tokenId;\n    }\n  }\n\n  /// @param _owner The owner whose celebrity tokens we are interested in.\n  /// @dev This method MUST NEVER be called by smart contract code. First, it's fairly\n  ///  expensive (it walks the entire Persons array looking for persons belonging to owner),\n  ///  but it also returns a dynamic array, which is only supported for web3 calls, and\n  ///  not contract-to-contract calls.\n  function tokensOfOwner(address _owner) external view returns (uint256[]) {\n    uint256 len = ownerToCaptainArray[_owner].length;\n    uint256[] memory tokens = new uint256[](len);\n    uint256 icount;\n    if (_owner != address(0)) {\n      for (uint256 i=0;i<len;i++) {\n        tokens[i] = ownerToCaptainArray[_owner][icount];\n        icount++;\n      }\n    }\n  }\n\n  /// @param _captainId The captain whose celebrity tokens we are interested in.\n  /// @dev This method MUST NEVER be called by smart contract code. First, it's fairly\n  ///  expensive (it walks the entire Persons array looking for persons belonging to owner),\n  ///  but it also returns a dynamic array, which is only supported for web3 calls, and\n  ///  not contract-to-contract calls.\n  function tokensOfCaptain(uint256 _captainId) public view returns(uint256[] captainTokens) {\n    uint256 tokenCount = tokenCountOfCaptain[_captainId];\n    if (tokenCount == 0) {\n        // Return an empty array\n      return new uint256[](0);\n    } else {\n      uint256[] memory result = new uint256[](tokenCount);\n      uint256 totalcaptains = captains.length - destroyCaptainCount - 1;\n      uint256 resultIndex = 0;\n\n      uint256 tokenId;\n      for (tokenId = 0; tokenId <= totalcaptains; tokenId++) {\n        if (IndexToCaptain[tokenId] == _captainId) {\n          result[resultIndex] = tokenId;\n          resultIndex++;\n        }\n      }\n      return result;\n    }\n  } \n}",
  "sourcePath": "/Users/xiaojingyu/Projects/BCProj/priate/contracts/CaptainToken.sol",
  "compiler": {
    "name": "solc",
    "version": "0.4.19+commit.c4cbbb05.Emscripten.clang"
  },
  "schemaVersion": "1.0.1",
  "updatedAt": "2018-06-02T08:20:29.093Z"
}