{
  "contractName": "CaptainGameConfig",
  "abi": [
    {
      "constant": true,
      "inputs": [
        {
          "name": "",
          "type": "uint32"
        }
      ],
      "name": "captainIndxToCount",
      "outputs": [
        {
          "name": "",
          "type": "uint256"
        }
      ],
      "payable": false,
      "stateMutability": "view",
      "type": "function"
    },
    {
      "inputs": [],
      "payable": false,
      "stateMutability": "nonpayable",
      "type": "constructor"
    },
    {
      "constant": true,
      "inputs": [
        {
          "name": "cardId",
          "type": "uint32"
        }
      ],
      "name": "getCardInfo",
      "outputs": [
        {
          "name": "",
          "type": "uint32"
        },
        {
          "name": "",
          "type": "uint32"
        },
        {
          "name": "",
          "type": "uint32"
        },
        {
          "name": "",
          "type": "uint32"
        },
        {
          "name": "",
          "type": "uint256"
        },
        {
          "name": "",
          "type": "bool"
        },
        {
          "name": "",
          "type": "uint256"
        }
      ],
      "payable": false,
      "stateMutability": "view",
      "type": "function"
    },
    {
      "constant": false,
      "inputs": [
        {
          "name": "id",
          "type": "uint32"
        },
        {
          "name": "color",
          "type": "uint32"
        },
        {
          "name": "atk_min",
          "type": "uint32"
        },
        {
          "name": "atk_max",
          "type": "uint32"
        },
        {
          "name": "defense",
          "type": "uint32"
        },
        {
          "name": "price",
          "type": "uint256"
        },
        {
          "name": "unitSellable",
          "type": "bool"
        }
      ],
      "name": "addCard",
      "outputs": [],
      "payable": false,
      "stateMutability": "nonpayable",
      "type": "function"
    },
    {
      "constant": false,
      "inputs": [
        {
          "name": "_id",
          "type": "uint32"
        },
        {
          "name": "_count",
          "type": "uint256"
        }
      ],
      "name": "setCaptainIndexToCount",
      "outputs": [],
      "payable": false,
      "stateMutability": "nonpayable",
      "type": "function"
    }
  ],
  "bytecode": "0x6060604052341561000f57600080fd5b60008054600160a060020a03191633600160a060020a031617905560e060405190810160409081526001808352602080840182905260009284018390526064606085015260c86080850152670928ca80cfc2000060a085015260c084018290529181905290527fcc69885fda6bcc1a4ace058b4a62bf5e179ea78fd58a1ccd71c22cc9b688792f8151815463ffffffff191663ffffffff919091161781556020820151815463ffffffff919091166401000000000267ffffffff00000000199091161781556040820151815463ffffffff919091166801000000000000000002604060020a63ffffffff02199091161781556060820151815463ffffffff919091166c0100000000000000000000000002606060020a63ffffffff02199091161781556080820151815463ffffffff9190911670010000000000000000000000000000000002608060020a63ffffffff021990911617815560a0820151816001015560c0820151600291909101805460ff19169115159190911790555060e06040519081016040908152600280835260016020808501829052600093850184905260c8606086018190526080860152670928ca80cfc2000060a086015260c0850182905291909252527fd9d16d34ffb15ba3a3d852f0d403e2ce1d691fb54de27ac87cd2f993f3ec330f8151815463ffffffff191663ffffffff919091161781556020820151815463ffffffff919091166401000000000267ffffffff00000000199091161781556040820151815463ffffffff919091166801000000000000000002604060020a63ffffffff02199091161781556060820151815463ffffffff919091166c0100000000000000000000000002606060020a63ffffffff02199091161781556080820151815463ffffffff9190911670010000000000000000000000000000000002608060020a63ffffffff021990911617815560a0820151816001015560c0820151600291909101805460ff19169115159190911790555060e0604051908101604090815260038083526002602080850191909152600092840183905261012c606085015260646080850152670dbd2fc137a3000060a0850152600160c085018190529190925290527f7dfe757ecd65cbd7922a9c0161e935dd7fdbcc0e999689c7d31633896b1fc60b8151815463ffffffff191663ffffffff919091161781556020820151815463ffffffff919091166401000000000267ffffffff00000000199091161781556040820151815463ffffffff919091166801000000000000000002604060020a63ffffffff02199091161781556060820151815463ffffffff919091166c0100000000000000000000000002606060020a63ffffffff02199091161781556080820151815463ffffffff9190911670010000000000000000000000000000000002608060020a63ffffffff021990911617815560a0820151816001015560c0820151600291909101805460ff19169115159190911790555060e0604051908101604090815260048083526002602080850191909152600092840183905260c8606085015260646080850152670dbd2fc137a3000060a0850152600160c085018190529190925290527fedc95719e9a3b28dd8e80877cb5880a9be7de1a13fc8b05e7999683b6b5676438151815463ffffffff191663ffffffff919091161781556020820151815463ffffffff919091166401000000000267ffffffff00000000199091161781556040820151815463ffffffff919091166801000000000000000002604060020a63ffffffff02199091161781556060820151815463ffffffff919091166c0100000000000000000000000002606060020a63ffffffff02199091161781556080820151815463ffffffff9190911670010000000000000000000000000000000002608060020a63ffffffff021990911617815560a0820151816001015560c0820151600291909101805460ff19169115159190911790555060e0604051908101604090815260058083526003602080850191909152600092840183905260c86060850181905260808501526706f05b59d3b2000060a0850152600160c085018190529190925290527fe2689cd4a84e23ad2f564004f1c9013e9589d260bde6380aba3ca7e09e4df40c8151815463ffffffff191663ffffffff919091161781556020820151815463ffffffff919091166401000000000267ffffffff00000000199091161781556040820151815463ffffffff919091166801000000000000000002604060020a63ffffffff02199091161781556060820151815463ffffffff919091166c0100000000000000000000000002606060020a63ffffffff02199091161781556080820151815463ffffffff9190911670010000000000000000000000000000000002608060020a63ffffffff021990911617815560a0820151816001015560c0820151600291909101805460ff19169115159190911790555060e0604051908101604090815260068083526003602080850191909152600092840183905261012c606085015261019060808501526706f05b59d3b2000060a0850152600160c085018190529190925290527f8f331abe73332f95a25873e8b430885974c0409691f89d643119a11623a7924a8151815463ffffffff191663ffffffff919091161781556020820151815463ffffffff919091166401000000000267ffffffff00000000199091161781556040820151815463ffffffff919091166801000000000000000002604060020a63ffffffff02199091161781556060820151815463ffffffff919091166c0100000000000000000000000002606060020a63ffffffff02199091161781556080820151815463ffffffff9190911670010000000000000000000000000000000002608060020a63ffffffff021990911617815560a0820151816001015560c0820151600291909101805460ff19169115159190911790555060e0604051908101604090815260078083526004602080850191909152600092840183905261019060608501526101f460808501526706f05b59d3b2000060a0850152600160c085018190529190925290527fdc686ec4a0ff239c70e7c7c36e8f853eced3bc8618f48d2b816da2a74311237e8151815463ffffffff191663ffffffff919091161781556020820151815463ffffffff919091166401000000000267ffffffff00000000199091161781556040820151815463ffffffff919091166801000000000000000002604060020a63ffffffff02199091161781556060820151815463ffffffff919091166c0100000000000000000000000002606060020a63ffffffff02199091161781556080820151815463ffffffff9190911670010000000000000000000000000000000002608060020a63ffffffff021990911617815560a0820151816001015560c0820151600291909101805460ff19169115159190911790555060e0604051908101604090815260088083526004602080850191909152600092840183905261019060608501526102586080850152670429d069189e000060a0850152600160c085018190529190925290527f4db623e5c4870b62d3fc9b4e8f893a1a77627d75ab45d9ff7e56ba19564af99b8151815463ffffffff191663ffffffff919091161781556020820151815463ffffffff919091166401000000000267ffffffff00000000199091161781556040820151815463ffffffff919091166801000000000000000002604060020a63ffffffff02199091161781556060820151815463ffffffff919091166c0100000000000000000000000002606060020a63ffffffff02199091161781556080820151815463ffffffff9190911670010000000000000000000000000000000002608060020a63ffffffff021990911617815560a0820151816001015560c0820151600291909101805460ff19169115159190911790555060e060405190810160409081526009808352600460208085019190915260009284018390526101f460608501526102586080850152670429d069189e000060a0850152600160c085018190529190925290527f74a5fbcb419ab7dbacbb2c92a4e163730f0da5c72b911deecf4f05a6b327d0a48151815463ffffffff191663ffffffff919091161781556020820151815463ffffffff919091166401000000000267ffffffff00000000199091161781556040820151815463ffffffff919091166801000000000000000002604060020a63ffffffff02199091161781556060820151815463ffffffff919091166c0100000000000000000000000002606060020a63ffffffff02199091161781556080820151815463ffffffff9190911670010000000000000000000000000000000002608060020a63ffffffff021990911617815560a0820151816001015560c08201516002918201805491151560ff1990921691909117905560205250601e7fe90b7bceb6e7df5418fb78d8ee546e97c83a08bbccc01a0644d599ccd2a7c2e08190557f679795a0195a1b76cdebb7c51d74e058aee92919b8c3389af86ef24535e8a28c5560147f88601476d11616a71c5be67555bd1dff4b1cbf21533d2669b768b61518cfe1c38190557fee60d0579bcffd98e668647d59fec1ff86a7fb340ce572e844f234ae73a6918f5560647fb98b78633099fa36ed8b8680c4f8092689e1e04080eb9cbb077ca38a14d7e3848190557f59dd4b18488d12f51eda69757a0ed42a2010c14b564330cc74a06895e60c077b8190557facd8ef244210bb6898e73c48bf820ed8ecc857a3bab8d79c10e4fa92b1e9ca658190557f3a5ea591190eeb3f8fcdced843c78df04ec0dfd42f5510375207515664fa0a7581905560096000527ff85cc6ffc513dc6cf7d199ef87b7a63cf9defe62251c1c247cd12f1eec7bff29556103d880610e256000396000f3006060604052600436106100615763ffffffff7c01000000000000000000000000000000000000000000000000000000006000350416631b8bd57c811461006657806374d41fa4146100c95780638bb204d4146100f7578063d6c7102014610118575b600080fd5b341561007157600080fd5b61008263ffffffff60043516610154565b60405163ffffffff97881681529587166020870152938616604080870191909152929095166060850152608084015292151560a083015260c082015260e001905180910390f35b34156100d457600080fd5b6100e563ffffffff600435166101cb565b60405190815260200160405180910390f35b341561010257600080fd5b61011663ffffffff600435166024356101dd565b005b341561012357600080fd5b61011663ffffffff6004358116906024358116906044358116906064358116906084351660a43560c435151561021e565b63ffffffff90811660009081526001602081815260408084208054938101546002918201549190935293205464010000000083048516956801000000000000000084048616956c010000000000000000000000008504811695700100000000000000000000000000000000909504169360ff169190565b60026020526000908152604090205481565b6000543373ffffffffffffffffffffffffffffffffffffffff90811691161461020557600080fd5b63ffffffff909116600090815260026020526040902055565b6000543373ffffffffffffffffffffffffffffffffffffffff90811691161461024657600080fd5b60e0604051908101604090815263ffffffff808a16808452898216602080860191909152898316848601528883166060860152918716608085015260a0840186905284151560c085015260009081526001909152208151815463ffffffff191663ffffffff919091161781556020820151815463ffffffff919091166401000000000267ffffffff00000000199091161781556040820151815463ffffffff9190911668010000000000000000026bffffffff0000000000000000199091161781556060820151815463ffffffff919091166c01000000000000000000000000026fffffffff000000000000000000000000199091161781556080820151815463ffffffff919091167001000000000000000000000000000000000273ffffffff000000000000000000000000000000001990911617815560a0820151816001015560c0820151600291909101805460ff191691151591909117905550505050505050505600a165627a7a723058201cf3e7fdde16626defd4478eb2b8c12ea227dfe4c4035b7930e111274767cc440029",
  "source": "pragma solidity ^0.4.18;\n\ncontract CaptainGameConfig {\n  address owner;\n  struct Card {\n    uint32 cardId;\n    uint32 color;\n    uint32 atk_min;\n    uint32 atk_max; \n    uint32 defense;\n    uint256 price;\n    bool unitSellable; \n  }\n\n  /** mapping**/\n  mapping(uint256 => Card) private cardInfo;  //normal card\n  mapping(uint32 => uint256) public captainIndxToCount;\n\n  function CaptainGameConfig() public {\n    owner = msg.sender;\n\n    cardInfo[1] = Card(1, 1, 0, 100, 200,  0.66 ether, true);\n    cardInfo[2] = Card(2, 1, 0, 200, 200,  0.66 ether, true);\n    cardInfo[3] = Card(3, 2, 0, 300, 100,  0.99 ether, true);\n    cardInfo[4] = Card(4, 2, 0, 200, 100,  0.99 ether, true);\n    cardInfo[5] = Card(5, 3, 0, 200, 200,  0.5 ether, true);\n    cardInfo[6] = Card(6, 3, 0, 300, 400,  0.5 ether, true);\n    cardInfo[7] = Card(7, 4, 0, 400, 500, 0.5 ether, true);\n    cardInfo[8] = Card(8, 4, 0, 400, 600, 0.3 ether, true);\n    cardInfo[9] = Card(9, 4, 0, 500, 600,  0.3 ether, true);\n\n    captainIndxToCount[1] = 30;\n    captainIndxToCount[2] = 30;\n    captainIndxToCount[3] = 20;\n    captainIndxToCount[4] = 20;\n    captainIndxToCount[5] = 100;\n    captainIndxToCount[6] = 100;\n    captainIndxToCount[7] = 100;\n    captainIndxToCount[8] = 100;\n    captainIndxToCount[9] = 100;\n  }\n\n  function getCardInfo(uint32 cardId) external constant returns (uint32, uint32, uint32,uint32,uint256,bool,uint256) {\n    return (\n      cardInfo[cardId].color, \n      cardInfo[cardId].atk_min,\n      cardInfo[cardId].atk_max,\n      cardInfo[cardId].defense,\n      cardInfo[cardId].price,\n      cardInfo[cardId].unitSellable,\n      captainIndxToCount[cardId]);\n  }    \n  \n  function addCard(uint32 id, uint32 color, uint32 atk_min, uint32 atk_max, uint32 defense, uint256 price, bool unitSellable) external {\n    require(msg.sender == owner);\n    cardInfo[id] = Card(id, color, atk_min, atk_max, defense, price, unitSellable);\n  }\n  \n  function setCaptainIndexToCount(uint32 _id, uint256 _count) external {\n    require(msg.sender == owner);\n    captainIndxToCount[_id] = _count;\n  }\n}",
  "sourcePath": "/Users/rainysiu/Projects/Blockchain/PirateConquest/contracts/CaptainGameConfig.sol",
  "compiler": {
    "name": "solc",
    "version": "0.4.19+commit.c4cbbb05.Emscripten.clang"
  },
  "schemaVersion": "2.0.0",
  "updatedAt": "2018-06-04T13:14:28.371Z"
}